:020000040800F2
:1000000078B50020DD010008DD3200085F2B000814
:10001000D932000847070008453C000800000000EE
:10002000000000000000000000000000153500087E
:100030004B07000800000000E132000831350008DD
:10004000F7010008F7010008F701000899330008DC
:10005000F7010008F7010008F7010008F7010008A0
:10006000F7010008F7010008F7010008F701000890
:10007000F7010008F7010008F7010008F701000880
:10008000F7010008F7010008F7010008F701000870
:10009000F7010008F7010008F7010008F701000860
:1000A000F7010008F7010008F7010008C135000852
:1000B000D1350008E1350008F1350008F7010008E6
:1000C000F7010008F7010008F7010008F701000830
:1000D000F7010008153C0008253C0008353C0008E5
:1000E000F7010008F7010008F7010008F701000810
:1000F000F7010008F701000801360008F7010008C1
:10010000F7010008F7010008F7010008F7010008EF
:10011000F7010008F7010008F7010008F7010008DF
:10012000F7010008F7010008F7010008F7010008CF
:1001300000F002F800F043F80AA090E8000C8244B6
:100140008344AAF10107DA4501D100F038F8AFF293
:10015000090EBAE80F0013F0010F18BFFB1A43F0A5
:1001600001031847485D0000685D0000103A24BF95
:1001700078C878C1FAD8520724BF30C830C144BF0C
:1001800004680C607047000000230024002500264E
:10019000103A28BF78C1FBD8520728BF30C148BFEA
:1001A0000B607047642900F0A980002070471FB5DC
:1001B0009DE8030000F04AF91FBD10B510BD00F026
:1001C0004EFA1146FFF7F3FF03F0D0FF00F06CFA90
:1001D00003B4FFF7F2FF03BC03F052FD0948804768
:1001E00009480047FEE7FEE7FEE7FEE7FEE7FEE719
:1001F000FEE7FEE7FEE7FEE704480549054A064B31
:1002000070470000BF3500083101000878AF0020BA
:1002100078B5002078B1002078B10020704770B523
:10022000064600F0F7F8056806F10B0020F0070419
:10023000B4429CBF002070BD2B466A68BAB11068FA
:10024000A04210D304F1080188423CBF50685860B6
:1002500007D35168101941601168091B016058608B
:100260001460101D70BD13465268002AE7D1214664
:10027000284600F0D7F80028DED170BD0FB404493D
:1002800010B503AA029800F097F910BC5DF814FBB2
:10029000500000202DE9F0410E4604460020206267
:1002A0002046E168884730B3252805D0D4E90121EC
:1002B0009047206A401CF2E7E16820460027884703
:1002C000050018D0A5F14100192802D820354FF4B7
:1002D00000673246294620462760FFF763FF40B19A
:1002E000012804D0F61D26F007060836D8E7361D8B
:1002F000D6E72846DAE7206ABDE8F0812DE9F0412B
:100300000646002410687529314616A510D0AFF3B3
:100310000080002802DA404213A507E031688A070E
:1003200001D512A502E0490704D511A5012401E079
:10033000AFF3008000210A2206F1240709E0B0FB98
:10034000F2FCB0FBF2F302FB1C003030785418468C
:10035000491C0028F3D123462A463046BDE8F04127
:1003600000F0D1B8000000002D0000002B000000BC
:100370002000000040EA0103024630B59B0710D17F
:100380004FF0013400E008C208C91D1B9D4315EA67
:10039000C41FF8D013F0FF0102F8011B0DD01B0A97
:1003A000F8E711F8013B002B02F8013B05D011F8EA
:1003B000013B002B02F8013BF3D130BD4FF00002AE
:1003C00000B5134694469646203922BFA0E80C504B
:1003D000A0E80C50B1F12001BFF4F7AF090728BF26
:1003E000A0E80C5048BF0CC05DF804EB890028BFA2
:1003F00040F8042B08BF704748BF20F8022B11F0CB
:10040000804F18BF00F8012B704770477047704746
:1004100070470000004870471CAF002070477047CD
:100420007047704738B504460A4600206946AFF366
:100430000080002808BF38BD02460099204600F021
:10044000D1F8012038BD012000F002B9F8B5AFF3B2
:100450000080054600200C46102000BF0646A81963
:10046000A0420DD9324669460020AFF30080070054
:1004700008BF00F0EDF80098A04218BF0546C41967
:10048000FFF7C8FF05600746F01D20F0070046197A
:10049000284600F00AF8B44208BFF8BDA21B314656
:1004A0003868BDE8F84000F09DB800210160C0E95F
:1004B000011070471020704770B50446051FFFF704
:1004C000A9FF0068002C14BF446870BD002C18BF41
:1004D000AC423CBF20466468F8D301680A18AA42BF
:1004E00018BF456003D12A68054611440160286899
:1004F0004119A1421CBF6C6070BD616869602168D0
:100500000844286070BD2DE9F0470D469946924693
:10051000044600F124080168880604D5E06921F04A
:100520001001216000E00120A84201DD471B00E02E
:100530000027A1697A1902EB0900081AA061207846
:10054000C00602D42046AFF30080002608E0D4E9BC
:1005500001211AF806009047206A401C761C206290
:100560004E45F4DB2078C0060AD52046AFF3008064
:1005700006E0D4E9012130209047206A401C206227
:10058000381EA7F10107F4DC07E0D4E9012118F8CF
:1005900005009047206A401C2062281EA5F1010535
:1005A000F3DC2046AFF300802078000602D502205D
:1005B000BDE8F0870120FBE7074B70B50D467B4493
:1005C00000F02FF80446284600F03EF810B14FF036
:1005D000FF3070BD204670BD5B380000004870479A
:1005E00014AF0020034640688C46002818BF88429C
:1005F0003CBF03464068F8D318681844884207D0C7
:100600000CF1030020F00700001D411A521A0146A8
:10061000081D0A60FFF750BF01694A1C0261087893
:10062000704700B58FB0CDE9013100210591054932
:100630007944CDE9031011466846FFF72BFE0FB051
:1006400000BD0000E5FFFFFF007B00F08000704769
:1006500010B500F037F8BDE8104000F02EB8754630
:10066000FFF7BCFFAE4605006946534620F0070081
:10067000854618B020B5FFF7BFFDBDE820404FF01C
:1006800000064FF000074FF000084FF0000B21F07C
:100690000701AC46ACE8C009ACE8C009ACE8C00949
:1006A000ACE8C0098D46704710B50446AFF3008032
:1006B0002046BDE81040FFF78BBD002801D003F0B5
:1006C000DFBA704710B5012805D0002103A000F063
:1006D00021F8012010BD09A1F8E700005349475255
:1006E000544D454D3A204F7574206F662068656102
:1006F00070206D656D6F7279000000003A204865CA
:100700006170206D656D6F727920636F72727570A4
:100710007465640070B505460C460A2000E06D1C47
:1007200003F0B0FA35B128780028F8D102E0641C53
:1007300003F0A8FA14B120780028F8D1BDE8704081
:100740000A2003F09FBA00BFFEE7704772B600BFF1
:10075000FEE7000070B50446B3F5804F13D1D1E930
:10076000000540EA05108D6840EA05208D692843A0
:100770008D8940EA054054F82250064E3540284302
:1007800044F8220003E06FF0704044F8220000209B
:1007900070BD00000000F0CF70B50246086852F846
:1007A000200020F001000E6842F826008868082822
:1007B00001D1402300E00023486818438E6830438D
:1007C000CE6830430E6930434E693043CE693043C2
:1007D0000E6A30434E6A30438E6A3043CE6A3043ED
:1007E0000E6B40EA060488690443486B0443074DD6
:1007F00045F4806545F4E025086852F82000A843D8
:1008000020430E6842F82600002070BD7FFB0800E0
:1008100010B50346D1E9000440EA04108C6840EAB0
:1008200004208C8940EA0444088A401E44EA0054AB
:10083000087D801E44EA00608C692043541C53F8F4
:10084000244004F040442043541C43F8240000207A
:1008500010BD0146002291F82100022808D0042092
:10086000886300BF002081F8200000BF012070478E
:100870000868006820F00E000B68186008680068BF
:1008800020F001000B68186091F84030012098407A
:10089000CB6B5860012081F8210000BF002081F857
:1008A000200000BF1046E2E770B50446002594F82A
:1008B0002100022803D00420A0630125C1E02068A4
:1008C000006820F00E00216808602068006820F0B1
:1008D0000100216808605C492068884252D95A4961
:1008E00078392068884201D1012047E056496439AF
:1008F0002068884201D1102040E0534950392068D7
:10090000884201D1801539E04F493C39206888423E
:1009100001D1801432E04C4928392068884202D144
:100920004FF480302AE0484914392068884202D1C7
:100930004FF4801022E044492068884201D14004ED
:100940001CE042492068884201D1012016E03F495D
:1009500014312068884201D110200FE03B49283132
:100960002068884201D1801508E038493C31206870
:10097000884201D1801401E04FF480303349091FCF
:10098000086051E0304978392068884201D101205F
:1009900047E02D4964392068884201D1102040E0A9
:1009A000294950392068884201D1801539E026490B
:1009B0003C392068884201D1801432E0224928392C
:1009C0002068884202D14FF480302AE01E49143951
:1009D0002068884202D14FF4801022E01A49206832
:1009E000884201D140041CE018492068884201D1A6
:1009F000012016E0154914312068884201D11020E9
:100A00000FE0124928312068884201D1801508E0A2
:100A10000E493C312068884201D1801401E04FF436
:100A20008030094980394860012084F8210000BFE6
:100A3000002084F8200000BF606B10B12046616B7D
:100A40008847284670BD000080000240080402402C
:100A500010B50446A0B203F045FE10BD00B585B048
:100A6000002001900290039004902248006808B191
:100A700005B000BD01201F49086000BF1E48406945
:100A800040F480701C4948610846406900F4807059
:100A9000009000BF00BF4FF23F0001900220029083
:100AA0000320049001A9154800F030F841F23F00FE
:100AB0000190022002900320049001A9104800F048
:100AC00025F84FF6837001900220029003200490D5
:100AD00001A90C4800F01AF84DF63370019002207D
:100AE00002900320049001A9074800F00FF800BF0E
:100AF000BEE700001400002000100240001C01406E
:100B00000020014000180140001401402DE9F84781
:100B1000024600239C467BE14FF0010808FA03F4EB
:100B2000D1F8008008EA0400A0427DD1DFF8F4A2E9
:100B3000D1F80480A8EB0A09D0453AD014DCB8F10A
:100B4000030F50D009DCB8F1000F31D0B8F1010F1C
:100B50001CD0B8F1020F49D120E0B8F1110F18D024
:100B6000B8F1120F42D11EE0B9F5881F25D006DC7E
:100B7000B9F5803F20D0B9F5801F37D11AE0B9F51B
:100B8000001F18D0B9F5041F30D117E0D1F80CC000
:100B90002DE0D1F80C8008F1040C28E0D1F80C808D
:100BA00008F1080C23E0D1F80C8008F10C0C1EE0D1
:100BB00000BF00BF00BF00BF00BF00BFD1F808806A
:100BC000B8F1000F02D14FF0040C0BE0D1F808800F
:100BD000B8F1010F03D14FF0080C146102E04FF09F
:100BE000080C546103E04FF0000C00E000BF00BFB0
:100BF000FF2801D8904601E002F104084646FF288C
:100C000002D84FEA830803E0A3F108084FEA8808F6
:100C10004746D6F800804FF00F0909FA07F928EA8D
:100C200009080CFA07F900E07AE048EA0908C6F872
:100C30000080D1F8048008F08058B8F1805F6FD14F
:100C400000BFDFF8E481D8F8188048F00108DFF829
:100C5000D891C9F81880C846D8F8188008F001085B
:100C6000CDF8008000BF00BF4FEAB9384FEA9309C2
:100C700058F829504FEA83784FEA18794FF00F0857
:100C800008FA09F825EA0805DFF8A081424502D1F3
:100C90004FF0000824E0DFF89881424502D14FF080
:100CA00001081DE0DFF88C81424502D14FF00208B7
:100CB00016E0DFF88481424502D14FF003080FE0CF
:100CC000DFF87881424502D14FF0040808E0DFF8F0
:100CD0007081424502D14FF0050801E04FF006084F
:100CE0004FEA83794FEA197908FA09F848EA0505C5
:100CF000DFF850814FEA930948F82950D1F8048071
:100D000008F48018B8F5801F0BD1DFF83C81D8F8C3
:100D1000008048EA0008DFF83091C9F800800AE056
:100D200075E0DFF82481D8F8008028EA0008DFF8B1
:100D30001891C9F80080D1F8048008F40018B8F5BB
:100D4000001F0ED1DFF8008108F10408D8F80080F8
:100D500048EA0008DFF8F09009F10409C9F80080BA
:100D60000DE0DFF8E48008F10408D8F8008028EAF4
:100D70000008DFF8D49009F10409C9F80080D1F81F
:100D8000048008F40038B8F5003F0ED1DFF8B880D1
:100D9000A8F10408D8F8008048EA0008DFF8A89015
:100DA000A9F10409C9F800800DE0DFF89C80A8F1E2
:100DB0000408D8F8008028EA0008DFF88C90A9F130
:100DC0000409C9F80080D1F8048008F48038B8F527
:100DD000803F0ED1DFF87080A8F10808D8F80080B5
:100DE00048EA0008DFF86090A9F10809C9F8008016
:100DF0000DE0DFF85480A8F10808D8F8008028EA50
:100E00000008DFF84490A9F10809C9F800805B1CCC
:100E1000D1F8008028FA03F8B8F1000F7FF47CAE17
:100E2000BDE8F887000011100010024000080140E2
:100E3000000C014000100140001401400018014066
:100E4000001C01400800014008040140024693686C
:100E50000B400BB1012000E00020704710B5C268C4
:100E600021EA020302EA010443EA0443036110BDDC
:100E70000AB1016101E00B04036170470148006899
:100E8000704700003C0000200348006803490978CF
:100E900008440149086070473C00002044000020DD
:100EA00010B50848006840F01000064908600320AB
:100EB00000F0A8F80F2000F007F800F02BF8002051
:100EC00010BD00000020024070B504460E480078B6
:100ED0004FF47A71B1FBF0F00C490968B1FBF0F501
:100EE000284600F039FF08B1012070BD102C07D250
:100EF00000222146501E00F047F80548046001E03A
:100F00000120F2E70020F0E7440000204800002024
:100F10004000002008B500BF1148806940F0010082
:100F20000F4988610846806900F00100009000BF09
:100F300000BF00BF0846C06940F08050C861084645
:100F4000C06900F08050009000BF00BF00BF05499D
:100F5000486820F0E06040F00070486000BF08BDC5
:100F6000001002400000014001460846002809DB4D
:100F700000F01F0301229A4043099B0003F1E02384
:100F8000C3F8002100BF70472DE9F05F80460D4691
:100F90001646002702F058FE074639462A463346D1
:100FA00001F00700C0F1070ABAF1040F02D94FF0AF
:100FB000040A01E0C0F1070AD14600F1040ABAF1BF
:100FC000070F02D24FF0000A01E0A0F1030AD44655
:100FD0004FF0010A0AFA09FAAAF1010A0AEA020A1A
:100FE0000AFA0CFA4FF0010B0BFA0CFBABF1010BF8
:100FF0000BEA030B4AEA0B042146404602F02CFEA2
:10100000BDE8F09F00BF00F00702064B19684FF6DD
:10101000FF031940044B0B4343EA0221014B1960C3
:1010200000BF70470CED00E00000FA050120014907
:101030000862704700000E422DE9F04706464FF067
:101040000008002500270024A146042E37D004DC28
:10105000012E3CD0022E6CD160E0082E33D0102E31
:1010600067D136484468006800F0807008B334489F
:10107000C4F38341475C04F4803078B12F48406862
:10108000C0F340402F4911F8008004F4803040B193
:101090002D48B0FBF8F000FB07F502E02B4807FBFA
:1010A00000F52648406800F48000B0F5800F01D1BB
:1010B000A94603E068000321B0FBF1F93AE000F033
:1010C000CBF9814636E000F0C7F9814632E01B4893
:1010D000046A04F44070B0F5807F05D104F002008A
:1010E00010B14FF4004918E004F44070B0F5007FEF
:1010F00007D11248406A00F0020010B149F6404999
:101100000BE004F44070B0F5407F06D10B48006856
:1011100000F4003008B14FF224490BE000F08CF9E4
:1011200006494968C1F38131491C4900B0FBF1F916
:1011300000E000BF00BF4846BDE8F0870010024055
:10114000865100089651000800127A0000093D00FF
:10115000F8B5044600260025207800F0010000289C
:101160006BD000274348C06900F0805070B900BFC1
:101170004048C06940F080503E49C8610846C06997
:1011800000F08050009000BF00BF01273A4800687F
:1011900000F48070B0B93848006840F48070364977
:1011A0000860FFF76BFE064606E0FFF767FE801B50
:1011B000642801D90320F8BD2F48006800F480702E
:1011C0000028F2D02B48006A00F440752DB3A088A7
:1011D00000F44070A84220D02648006A20F44075F0
:1011E000012026490860002008602248056205F0B9
:1011F000010090B1FFF742FE064608E0FFF73EFE11
:10120000801B41F28831884201D90320D3E7194875
:10121000006A00F002000028F0D01648006A20F4AE
:1012200040706168084313490862012F04D10846E1
:10123000C06920F08050C86100BF207800F0020033
:10124000022807D10B48406820F44040A1680843B9
:1012500008494860207800F01000102807D10548A0
:10126000406820F48000616908430249486000201A
:10127000A1E700000010024000700040400442421C
:1012800070B504460D460CB9012070BD5A4800687F
:1012900000F00700A8420ED25748006820F007006F
:1012A0002843554908600846006800F00700A84236
:1012B00001D00120E9E7207800F0020002281DD1CA
:1012C000207800F00400042805D14C48406840F420
:1012D000E0604A494860207800F00800082805D1FD
:1012E0004648406840F4605044494860434840687C
:1012F00020F0F000A168084340494860207800F0E1
:10130000010078B36068012806D13C48006800F409
:10131000003090B90120B8E76068022806D137484C
:10132000006800F0007040B90120AEE73348006863
:1013300000F0020008B90120A7E73048406820F01B
:101340000300616808432D494860FFF797FD064692
:1013500009E0FFF793FD801B41F28831884202D9F2
:10136000032092E707E02548406800F00C00616820
:10137000B0EB810FEDD12048006800F00700A842D3
:101380000ED91D48006820F0070028431A4908605C
:101390000846006800F00700A84201D0012074E769
:1013A000207800F00400042807D11448406820F495
:1013B000E060E168084311494860207800F00800C7
:1013C000082808D10D48406820F46050216940EA9F
:1013D000C1000A49486000F03FF808494968C1F374
:1013E0000311074A515CC840064908600648006876
:1013F000FFF76AFD002048E700200240001002408D
:101400009851000848000020400000200148006872
:10141000704700004800002000B5FFF7F7FF0449BF
:101420004968C1F30221034A515CC84000BD000075
:1014300000100240A851000800B5FFF7E7FF04497B
:101440004968C1F3C221034A515CC84000BD000095
:1014500000100240A851000870B5002100220024AD
:1014600000230020134D696801F00C05F5B1042D2F
:1014700002D0082D19D101E00F4819E00F4DC1F33A
:101480008346AB5D01F4803555B10A4D6D68C5F3F7
:1014900040450B4E725D084D5D43B5FBF2F402E032
:1014A000084D03FB05F4204602E000BF024800BFE0
:1014B00000BF70BD0010024000127A007451000895
:1014C0008451000800093D00F8B504460CB901201C
:1014D000F8BD207800F00100002878D0F848406876
:1014E00000F00C0004280CD0F548406800F00C0017
:1014F000082811D1F248406800F48030B0F5803FF0
:101500000AD1EF48006800F4003000285FD060681E
:1015100000285CD10120DBE700BF6068B0F5803FA8
:1015200006D1E748006840F48030E549086028E0CB
:10153000606858B9E248006820F48030E0490860EB
:101540000846006820F4802008601AE06068B0F562
:10155000A02F0BD1DA48006840F48020D8490860F9
:101560000846006840F4803008600AE0D44800680B
:1015700020F48030D24908600846006820F48020BA
:10158000086000BF606888B1FFF778FC054606E098
:10159000FFF774FC401B642801D9032098E7C84872
:1015A000006800F400300028F2D010E0FFF766FC7D
:1015B000054606E0FFF762FC401B642801D90320C2
:1015C00086E7BF48006800F400300028F2D1207898
:1015D00000F00200022857D1B948406800F00C0022
:1015E00050B1B748406800F00C00082818D1B44842
:1015F000406800F4803098B9B148006800F00200FB
:1016000020B12069012801D0012061E7AC480068C1
:1016100020F0F800616940EAC100A949086033E0A0
:101620002069E8B10120A7490860FFF727FC0546BB
:1016300006E0FFF723FC401B022801D9032047E7FF
:101640009F48006800F002000028F2D09C48006823
:1016500020F0F800616940EAC1009949086013E090
:10166000002098490860FFF709FC054606E0FFF7EF
:1016700005FC401B022801D9032029E79048006897
:1016800000F002000028F2D1207800F008000828BD
:101690002DD1A069B8B101208B490860FFF7EEFB9E
:1016A000054606E0FFF7EAFB401B022801D90320AC
:1016B0000EE78348406A00F002000028F2D00120C3
:1016C00001F010FE13E000207F490860FFF7D6FB11
:1016D000054606E0FFF7D2FB401B022801D9032094
:1016E000F6E67748406A00F002000028F2D1207840
:1016F00000F00400042873D100277148C06900F08D
:10170000805070B900BF6E48C06940F080506C498D
:10171000C8610846C06900F08050009000BF00BF5B
:1017200001276A48006800F48070B0B96748006813
:1017300040F4807065490860FFF7A0FB054606E0AD
:10174000FFF79CFB401B642801D90320C0E65F48DB
:10175000006800F480700028F2D000BFE068012823
:1017600006D15748006A40F001005549086227E059
:10177000E06858B95248006A20F0010050490862F8
:101780000846006A20F00400086219E0E0680528B5
:101790000BD14B48006A40F00400494908620846F2
:1017A000006A40F0010008620AE04548006A20F043
:1017B0000100434908620846006A20F004000862FC
:1017C00000BFE068A0B1FFF759FB054609E0FFF74D
:1017D00055FB401B41F28831884202D9032077E64D
:1017E00022E03748006A00F002000028EFD012E043
:1017F000FFF744FB054608E0FFF740FB401B41F2C2
:101800008831884201D9032062E62D48006A00F041
:1018100002000028F0D1012F05D12948C06920F02D
:1018200080502749C86100BFE069C8B324484068B8
:1018300000F00C00082860D0E069022848D10020A0
:1018400020490866FFF71AFB054606E0FFF716FB7E
:10185000401B022801D903203AE61948006800F02D
:1018600000700028F2D1206AB0F5803F07D11448FB
:10187000406820F40030A168084311494860D4E969
:10188000080108430E49496821F4741108430C49C2
:10189000486001200B490866FFF7F0FA054607E0AB
:1018A0003DE0FFF7EBFA401B022801D903200FE6C9
:1018B0000348006800F000700028F2D02FE000001C
:1018C000001002400000424280044242007000408A
:1018D000002014490866FFF7D1FA054606E0FFF735
:1018E000CDFA401B022801D90320F1E50E4800681B
:1018F00000F000700028F2D111E0E069012800D169
:10190000E6E50948466806F48031206A814204D140
:1019100006F47011606A814201D00120D8E50020F0
:10192000D6E50000000042420010024010B5034618
:1019300000220020024A02EB81021468A0B210BD0E
:10194000006C004010B503460020034800EB810006
:1019500094B2046010BD0000006C004070477047F6
:1019600010B504462068006800F00100F0B120685E
:10197000406800F00100C8B120684068C0F38000F2
:1019800048B12046FFF7EBFF6FF004002168486084
:101990000420607404E02046FFF7E0FF012060743B
:1019A0002068406820F001002168486010BD0000F8
:1019B00070B5044600250CB9012070BD607C20B9CB
:1019C00000202074204600F053F802206074204666
:1019D00000F06AF918B1042060740120EDE7204698
:1019E00001F09FFC18B1042060740120E5E7206835
:1019F000406820F0070021684860A06828B11B48B3
:101A0000006820F00100194908601848001F0068AC
:101A100020F46070A16808431449091F08606068D9
:101A2000401C08B1656809E00120FFF705FB054689
:101A30001DB9042060740120BFE76D1EC5F303408B
:101A400021688860A8B22168C860204601F086FC41
:101A500018B1042060740120AFE70021E173012177
:101A60006173A173012060740020A6E7306C004010
:101A700038B5044613492068884222D1FFF7D6FAC8
:101A800000BF1148C06940F000600F49C8610846B6
:101A9000C06900F00060009000BF00BF01200B494A
:101AA0000860002202210320FFF76EFA0320FFF7EF
:101AB0005BFA03F027F845F2500201210448FFF7D2
:101AC00041FF38BD00280040001002403C04424263
:101AD000D4AA00202DE9F04704460D469046002682
:101AE0000027B14604B115B90120BDE8F08700BF59
:101AF000207C012801D10220F7E70120207400BFDB
:101B000002206074B8F1000F06D1E978E1736978BA
:101B10006173A978A1730BE0E87801F0F7FBE0733B
:101B2000687801F0F3FB6073A87801F0EFFBA07315
:101B3000A27B617BE07B01F07DFC2073207B287021
:101B4000204601F05DFC06464FF46160B6FBF0F9FB
:101B5000B9F1180F2FD91820B9FBF0F000EB4000B5
:101B6000C000C0EB4011C1EB0020A6EB00163146CF
:101B7000204601F0B8FC38B10420607400BF00209A
:101B8000207400BF0120B0E7204601F02DFC07467D
:101B9000781C80B1B7420ED20B4807443946204624
:101BA00001F08AFC38B10420607400BF002020746A
:101BB00000BF012099E70120607400BF002020745D
:101BC00000BF00BF91E70000805101002DE9F04700
:101BD00004460D4690460026002704B115B90120A1
:101BE000BDE8F08700BF207C012801D10220F7E783
:101BF0000120207400BF02206074B8F1000F0BD1E7
:101C000028784FF4616148436978C1EB011100EB1A
:101C10008100A978461812E0287801F077FB4FF48C
:101C2000616100FB01F9687801F070FBC0EB001006
:101C300009EB8009A87801F069FB09EB0006314641
:101C4000204601F050FC38B10420607400BF002031
:101C5000207400BF0120C3E72068406820F0050021
:101C600021684860204601F0BFFB0746781C80B120
:101C7000B7420ED20B4807443946204601F01CFCFF
:101C800038B10420607400BF0020207400BF012020
:101C9000A6E70120607400BF0020207400BF00BFD1
:101CA0009EE700008051010070B5044600250CB984
:101CB000012070BD2068406820F00800216848605D
:101CC000FFF7DCF8054607E0FFF7D8F8401BB0F552
:101CD0007A7F01D90320ECE72068406800F0080013
:101CE0000028F1D00020E4E770B504460E46154602
:101CF0001CB1A069B0F5807F01D1012070BD94F8BE
:101D0000410028B9002084F84000204600F01FF868
:101D100004F108012068FEF73FFD3146A268206803
:101D2000FEF776FD2946236BD4E90102FEF712FD8A
:101D3000A168206850F8210040F00100A2682168E5
:101D400041F82200012084F841000020D6E710B5B8
:101D50000446FEF783FE10BD70B504462546681E96
:101D6000B0F1807F01D301200FE0681E4FF0E02129
:101D700048610F214FF0FF3001F06EFF00204FF05F
:101D8000E021886107200861002070BD704770471E
:101D900010B50346002200BF93F83C00012801D192
:101DA000022010BD012083F83C0000BF22F0FF009C
:101DB000CC6840EA040222F440708C6840EA0402D5
:101DC00022F480604C6840EA040222F400600C684F
:101DD00040EA040222F480500C6940EA040222F432
:101DE00000504C6940EA040222F48040CC6940EA89
:101DF00004021868426400BF002083F83C0000BF62
:101E000000BFCEE730B502460B4600BF92F83C005B
:101E1000012801D1022030BD012082F83C0000BF22
:101E2000022082F83D00106844681068816824F040
:101E300070041868044310684460144D1068A84288
:101E400013D0134D1068A8420FD01068B0F1804F26
:101E50000BD0104D1068A84207D00F4D1068A84253
:101E600003D00E4D1068A84205D121F080015868BA
:101E7000014310688160012082F83D0000BF00200E
:101E800082F83C0000BF00BFC5E70000002C014005
:101E9000003401400004004000080040000C0040F5
:101EA000014691F83D00012801D001207047022031
:101EB00081F83D00164B0868984213D0154B08680E
:101EC00098420FD00868B0F1804F0BD0124B0868D1
:101ED000984207D0114B0868984203D0104B08680D
:101EE00098420CD10868806800F00702062A0CD0DE
:101EF0000868006840F001000B68186005E0086899
:101F0000006840F001000B6818600020CEE7000078
:101F1000002C014000340140000400400008004053
:101F2000000C0040704710B5044620680069C0F3FB
:101F30004000D8B12068C068C0F34000B0B16FF075
:101F4000020021680861012020772068806900F084
:101F5000030018B12046FFF7E5FF05E0204600F03A
:101F60009BF9204600F01AFB0020207720680069CA
:101F7000C0F38000D8B12068C068C0F38000B0B161
:101F80006FF00400216808610220207720688069D2
:101F900000F4407018B12046FFF7C4FF05E020466A
:101FA00000F07AF9204600F0F9FA00202077206846
:101FB0000069C0F3C000D8B12068C068C0F3C00099
:101FC000B0B16FF008002168086104202077206814
:101FD000C06900F0030018B12046FFF7A3FF05E039
:101FE000204600F059F9204600F0D8FA002020776A
:101FF00020680069C0F30010D8B12068C068C0F341
:102000000010B0B16FF0100021680861082020773F
:102010002068C06900F4407018B12046FFF782FFC5
:1020200005E0204600F038F9204600F0B7FA00201D
:1020300020772068006900F0010058B12068C0686E
:1020400000F0010030B16FF0010021680861204606
:1020500000F0A5FA20680069C0F3C01058B12068EC
:10206000C068C0F3C01030B16FF080002168086113
:102070002046FFF78BFE20680069C0F3801058B13E
:102080002068C068C0F3801030B16FF04000216854
:102090000861204600F084FA20680069C0F340100F
:1020A00058B12068C068C0F3401030B16FF0200014
:1020B000216808612046FFF76AFE10BD10B586B0A2
:1020C0000446002002900390049005904C4920683B
:1020D000884218D100BF4B48806940F0040049494C
:1020E00088610846806900F00400019000BF00BFCD
:1020F00008150290022003900320059002A942488F
:10210000FEF704FD7AE02068B0F1804F17D100BFE0
:102110003C48806940F004003A498861084680697B
:1021200000F00400019000BF00BF02200290039065
:102130000320059002A93448FEF7E8FC5EE033492D
:102140002068884218D100BF2E48806940F00800FE
:102150002C4988610846806900F00800019000BFA2
:1021600000BF01200290022003900320059002A9E5
:102170002748FEF7CBFC41E026492068884221D160
:1021800000BF2048806940F020001E498861084651
:10219000806900F02000019000BF00BF4FF40050A4
:1021A0000290022003900320059002A91A48FEF72E
:1021B000ADFC00BF1949486840F0E06040F4805031
:1021C00048601BE016492068884217D100BF0D48BF
:1021D000806940F010000B4988610846806900F072
:1021E0001000019000BF00BF402002900220039029
:1021F0000320059002A90B48FEF788FC06B010BD2D
:10220000002C014000100240000801400004004082
:10221000000C014000080040001401400000014093
:1022200000340140001001402DE9F04104460E4603
:102230001546002700BF94F83C00012802D1022077
:10224000BDE8F081012084F83C0000BF35B1042DC9
:1022500009D0082D0CD00C2D14D10EE03146206889
:1022600001F036FA10E03146206801F069FA0BE01F
:102270003146206801F0A2FA06E03146206801F0FC
:10228000D9FA01E0012700BF00BF00BF002084F899
:102290003C0000BF3846D3E710B504461349206818
:1022A000884203D1124802F007F91EE01149206864
:1022B000884203D1104802F0FFF816E00F49206869
:1022C000884203D10E4802F0F7F80EE00D4920686D
:1022D000884203D10C4802F0EFF806E02068B0F124
:1022E000804F02D1094802F0E7F810BD002C0140F0
:1022F00024AE00200034014054AE00200004004011
:1023000084AE002000080040B4AE0020E4AE0020FF
:1023100010B504460CB9012010BD94F83D0028B951
:10232000002084F83C00204600F026F8022084F8C3
:102330003D00211D206801F06BF9012084F8460062
:1023400000BF84F83E0001213F2001554020015587
:102350004120015500BF00BF012084F84200432006
:102360000155442001554520015500BF012084F846
:102370003D000020D0E7000038B5044643492068FE
:10238000884216D100BF4248806940F4006040494D
:1023900088610846806900F40060009000BF00BFBB
:1023A000002202211B20FEF7EFFD1B20FEF7DCFDC3
:1023B0006AE02068B0F1804F16D100BF3448C06990
:1023C00040F001003249C8610846C06900F00100D0
:1023D000009000BF00BF002202211C20FEF7D4FDA8
:1023E0001C20FEF7C1FD4FE02A492068884216D123
:1023F00000BF2748C06940F002002549C86108466F
:10240000C06900F00200009000BF00BF002202215E
:102410001D20FEF7B9FD1D20FEF7A6FD34E01E4984
:102420002068884216D100BF1948C06940F00400F6
:102430001749C8610846C06900F00400009000BF59
:1024400000BF002202211E20FEF79EFD1E20FEF787
:102450008BFD19E011492068884215D100BF0C4856
:10246000806940F400500A4988610846806900F498
:102470000050009000BF00BF002202212E20FEF776
:1024800083FD2E20FEF770FD38BD0000002C0140BA
:1024900000100240000400400008004000340140E9
:1024A00070B504460D46002635B1042D0BD0082D1D
:1024B00010D00C2D1CD114E02068C06820F0020060
:1024C0002168C86016E02068C06820F00400216818
:1024D000C8600FE02068C06820F008002168C8606C
:1024E00008E02068C06820F010002168C86001E0A2
:1024F000012600BF00BF002E4AD1002229462068D5
:1025000001F0D4F823492068884203D0224920688A
:10251000884201D1012000E0002090B100BF206876
:10252000006A41F21111084050B92068006A891010
:10253000084028B92068406C20F4004021684864B5
:1025400000BF00BF2068006A41F21111084050B975
:102550002068006A8910084028B92068006820F0C7
:1025600001002168086000BF1DB9012084F83E0009
:102570000EE0042D03D101213F20015508E0082D74
:1025800003D101214020015502E0012141200155E4
:10259000304670BD002C0140003401407047704748
:1025A00070477047704700002DE9F84F04462068D7
:1025B00005682068C668206847694FF00009CA4668
:1025C00005F00F09B9F1000F0AD105F0200038B16C
:1025D00006F0200020B1204601F0A6F9BDE8F88FF2
:1025E000B9F1000F7BD007F0010018B906F4907024
:1025F000002874D005F0010030B106F4807018B1E5
:10260000606C40F00100606405F0040030B107F038
:10261000010018B1606C40F00200606405F0020037
:1026200030B107F0010018B1606C40F00400606444
:1026300005F0080048B106F0200010B907F00100CD
:1026400018B1606C40F008006064606C002845D0F0
:1026500005F0200028B106F0200010B1204601F05E
:1026600063F920684069C0F3801A606C00F00800CC
:1026700010B9BAF1000F2CD0204601F00FF92068F4
:10268000406900F0400000B300BF00BF2168143172
:1026900051E8001F21F040002168143141E8000298
:1026A000002AF3D100BFE06B50B17748E16B48637B
:1026B000E06BFEF7F9F888B1E06B416B88470DE0FD
:1026C0002046FFF76FFF09E009E02046FFF76AFFA9
:1026D00004E02046FFF766FF002060647EE7206B81
:1026E000012877D105F01000002873D006F0100003
:1026F0000028FAD000BF00200090206800680090F9
:1027000020684068009000BF00BF2068406900F06A
:10271000400000285FD0E06B006840681FFA80F836
:10272000B8F1000F55D0A08D404552DDA4F82E80A1
:10273000E06B8069202843D000BF00BF21680C31C6
:1027400051E8001F21F4807021680C3141E800023B
:10275000002AF3D100BF00BF00BF2168143151E847
:10276000001F21F001002168143141E80002002A15
:10277000F3D100BF00BF00BF2168143151E8001F32
:1027800021F040002168143141E80002002AF3D111
:1027900000BF202084F842000020206300BF00BF5B
:1027A00021680C3151E8001F21F0100021680C3124
:1027B00041E80002002AF3D100BFE06BFEF749F8C0
:1027C00002206063A08DE28D801A81B22046FFF75F
:1027D000E8FE03E742E0A08DE18D401A1FFA80F881
:1027E000E08DD0B3B8F1000F37D000BF00BF216833
:1027F0000C3151E8001F21F4907021680C3141E840
:102800000002002AF3D100BF00BF00BF21681431CD
:1028100051E8001F21F001002168143141E8000255
:10282000002AF3D100BF202084F84200002020635A
:1028300000BF00BF21680C3151E8001F21F01000DB
:1028400021680C3141E80002002AF3D100BF0220C8
:10285000606341462046FFF7A4FEBFE605F0800016
:1028600030B106F0800018B1204601F059F9B5E604
:1028700005F0400030B106F0400018B1204601F0EC
:1028800043F8ABE600BFA9E68938000810B5044656
:102890000CB9012010BDA06900B100E000BF94F8A0
:1028A000410028B9002084F84000204600F02AF8B2
:1028B000242084F841002068C06820F4005021687A
:1028C000C860204601F0AEF82068006920F490400E
:1028D000216808612068406920F02A002168486169
:1028E0002068C06840F400502168C860002060641F
:1028F000202084F8410084F842000020606300BF7B
:10290000C8E7000010B586B004460020029003908E
:10291000049005905D49206888423FD100BF5C4823
:10292000806940F480405A4988610846806900F413
:102930008040019000BF00BF00BF0846806940F0A2
:10294000080088610846806900F00800019000BF17
:1029500000BF40200290022003900320059002A9AE
:102960004C48FEF7D3F8802002900020039004909A
:1029700002A94848FEF7CAF800BF4749486840F036
:10298000E06040F00400486000BF002202212520E2
:10299000FEF7FAFA2520FEF7E7FA75E03F492068CE
:1029A000884236D100BF3A48C06940F40030384907
:1029B000C8610846C06900F40030019000BF00BF44
:1029C00000BF0846806940F00400886108468069BD
:1029D00000F00400019000BF00BF0420029002201C
:1029E00003900320059002A92D48FEF78FF80820D8
:1029F000029000200390049002A92948FEF786F86F
:102A0000002211462620FEF7BFFA2620FEF7ACFA78
:102A10003AE024492068884236D100BF1C48C0698A
:102A200040F480201A49C8610846C06900F480203B
:102A3000019000BF00BF00BF0846806940F0080059
:102A400088610846806900F00800019000BF00BF5F
:102A500008150290022003900320059002A90D485A
:102A6000FEF754F84FF400600290002003900490A9
:102A700002A90848FEF74AF8002211462720FEF76F
:102A800083FA2720FEF770FA06B010BD0038014027
:102A900000100240000C01400000014000440040D2
:102AA000000801400048004070472DE9F84F0446F7
:102AB0000E46174699464FF0000A94F84100202828
:102AC0004AD106B117B90120BDE8F88F0020606433
:102AD000212084F84100FEF7D1F98246A784E784DB
:102AE000A068B0F5805F04D1206910B90025B04618
:102AF00002E035464FF000081BE0534600228021DB
:102B00002046CDF8009001F03BF808B10320DBE748
:102B100045B9B8F80000C0F308002168486008F122
:102B2000020803E02878216848606D1CE08C401E94
:102B3000E084E08C0028E0D153460022402120466A
:102B4000CDF8009001F01CF808B10320BCE720206C
:102B500084F841000020B7E70220B5E7704700BFC6
:102B6000FEE7000000B587B01C216846FDF726FC93
:102B70004FF020401B4908601B48486006208860D1
:102B800000211848C160016110214161002181616B
:102B9000C161016241624FF4805181620021C162D2
:102BA000016341638163002000900F2001900320A6
:102BB0000290002003901020049011200590002026
:102BC0000690002269460748FFF78EF808B1FDF726
:102BD000BDFD0648C06940F480600449C86107B083
:102BE00000BD000080AA0020040100A000000140F8
:102BF00000B585B00020019002900390049000BFC2
:102C00008E48806940F040008C49886108468069A0
:102C100000F04000009000BF00BF00BF0846806980
:102C200040F0100088610846806900F010000090B4
:102C300000BF00BF00BF0846806940F08000886187
:102C40000846806900F08000009000BF00BF00BF10
:102C50000846806940F0040088610846806900F0F9
:102C60000400009000BF00BF00BF0846806940F02C
:102C7000080088610846806900F00800009000BFE5
:102C800000BF00BF0846806940F480708861084634
:102C9000806900F48070009000BF00BF00BF08464C
:102CA000806940F0200088610846806900F02000BB
:102CB000009000BF00BF002204216148FEF7D8F851
:102CC000012220215E48FEF7D3F801220F215D4842
:102CD000FEF7CEF8002230215A48FEF7C9F800224C
:102CE0004FF400615848FEF7C3F8002244F2C011C7
:102CF0005648FEF7BDF80122D1035448FEF7B8F854
:102D000000224FF480715248FEF7B2F801225102BE
:102D10004F48FEF7ADF804200190012002900220F8
:102D20000390049001A94648FDF7F0FE1820019099
:102D3000002002900220039001A94148FDF7E6FE21
:102D4000202001900120029003900220049001A90C
:102D50003B48FDF7DBFE40200190002002900390ED
:102D600001A93748FDF7D2FE4FF4F860019000202A
:102D70000290039001A93448FDF7C8FE3F2001905E
:102D800001200290002003900220049001A92D4808
:102D9000FDF7BCFE0120019000200290022003906C
:102DA00001A92C48FDF7B2FE1020019002200290EC
:102DB0000320049001A92748FDF7A8FE4FF4006006
:102DC000019001200290002003900220049001A9AC
:102DD0001D48FDF79BFE4FF48050019002200290A9
:102DE0000320049001A91A48FDF790FE4CF2C01090
:102DF000019001200290002003900220049001A97C
:102E00001248FDF783FE4FF480700190012002907C
:102E100003900320049001A90D48FDF777FE4FF4BD
:102E20000070019011200290002003900320049074
:102E300001A90748FDF76AFE05B000BD0010024079
:102E40000018014000100140001C0140002001401A
:102E5000000C0140000801401FB500240020039031
:102E6000029000BF3548C06940F000603349C86136
:102E70000846C06900F00060019000BF00BF00BFBD
:102E80000846C06940F08050C8610846C06900F03B
:102E90008050019000BF00BFFEF7C8F8012128480C
:102EA000FEF744FD84B22748254908604FF0FF3003
:102EB0004860002122488160FEF77AFD08B1FDF7E5
:102EC00045FC16208DF80C0010208DF80D00002018
:102ED0008DF80E00012203A91948FEF777FE08B10C
:102EE000FDF734FC06208DF8080003208DF809005A
:102EF00023208DF80A0000208DF80B00012202A982
:102F00000F48FEF7E7FD08B1FDF720FC45F2500041
:102F100084420AD00020202111231722CDE900107D
:102F200003214FF4FD6001F0BBFE05480068006816
:102F300040F001000249096808601FBD001002400E
:102F4000D4AA00200028004000B591B000200F90C6
:102F500010901C2108A8FDF731FA20216846FDF7E2
:102F60002DFA244824490860112048600021224895
:102F700081604FF6FE71C160002101614161816194
:102F8000FFF7C6F908B1FDF7E1FB00200F901090A4
:102F90000FA91948FEF736FF08B1FDF7D7FB30201F
:102FA0000890002009900A900B900C900D900E90C4
:102FB000082208A91048FFF737F908B1FDF7C6FB4A
:102FC0000020009001900290039004904FF4005074
:102FD00005900020079069460748FEF7D9FE08B122
:102FE000FDF7B4FB0448FEF75BFF0348FFF766F804
:102FF00011B000BD002C0140E8AA002000B589B046
:103000000020079008901C216846FDF7D7F94FF083
:1030100080401949086011204860002116488160ED
:103020004FF6FE71C160002101618161FFF770F907
:1030300008B1FDF78BFB00200790089007A90E4808
:10304000FEF7E0FE08B1FDF781FB30200090002084
:10305000019002900490042269460748FFF7E4F8C3
:1030600008B1FDF773FB0448FEF71AFF0248FFF7AB
:1030700025F809B000BD000030AB002000B589B0D4
:103080000020079008901C216846FDF797F9194821
:1030900019490860112048600021174881604FF6E7
:1030A000FE71C160002101618161FFF731F908B152
:1030B000FDF74CFB00200790089007A90E48FEF78B
:1030C000A1FE08B1FDF742FB3020009000200190E6
:1030D00002900490082269460748FFF7A5F808B156
:1030E000FDF734FB0448FEF7DBFE0348FEF7E6FF7E
:1030F00009B000BD0004004078AB002000B589B0E5
:103100000020079008901C216846FDF757F91948E0
:1031100019490860112048600021174881604FF666
:10312000FE71C160002101618161FFF7F1F808B112
:10313000FDF70CFB00200790089007A90E48FEF74A
:1031400061FE08B1FDF702FB3020009000200190E5
:1031500002900490042269460748FFF765F808B119
:10316000FDF7F4FA0448FEF79BFE0348FEF7A6FFBE
:1031700009B000BD00080040C0AB002000B591B010
:1031800000200F9010901C2108A8FDF717F92021AE
:103190006846FDF713F92448244908601120486067
:1031A0000021224881604FF6FE71C160002101615B
:1031B00041618161FFF7ACF808B1FDF7C7FA002063
:1031C0000F9010900FA91948FEF71CFE08B1FDF7EB
:1031D000BDFA30200890002009900A900B900C90C6
:1031E0000D900E90002208A91048FFF71DF808B1B5
:1031F000FDF7ACFA0020009001900290039004903B
:103200004FF4005005900020079069460748FEF7EC
:10321000BFFD08B1FDF79AFA0448FEF741FE0348E6
:10322000FEF74CFF11B000BD0034014008AC002097
:1032300010B50B480B4908604FF4E130486000219D
:1032400008488160C16001610C21416100218161F8
:10325000C161FFF71BFB08B1FDF778FA10BD000054
:103260000038014050AC002010B50B480B490860F5
:103270004FF4E1304860002108488160C16001617D
:103280000C21416100218161C161FFF7FFFA08B1A2
:10329000FDF75CFA10BD00000044004098AC00202F
:1032A00010B50B480B4908604FF4E130486000212D
:1032B00008488160C16001610C2141610021816188
:1032C000C161FFF7E3FA08B1FDF740FA10BD000055
:1032D00000480040E0AC002000BFFEE700BFFEE772
:1032E0007047000008B508490968C9084FF47A72A8
:1032F000B1FBF2F14143009100BF00BF00994A1EAB
:1033000000920029F9D108BD48000020014600BF05
:10331000080900EB8000420001F00F001044C0B229
:10332000704770B504460025FDF7A8FD054607E087
:10333000FDF7A4FD401BB0F57A7F01D9032070BDD5
:103340002068406800F020000028F1D02068406824
:1033500040F01000216848600020F0E770B5044696
:1033600000252068406820F0100021684860FDF7C3
:1033700085FD054607E0FDF781FD401BB0F57A7F2E
:1033800001D9032070BD2068406800F020000028AB
:10339000F1D00020F6E7000010B51248FEF7E0FA81
:1033A00010480068406800F0010048B101F0AAFB35
:1033B0000C480068406820F001000A49096848602C
:1033C00008480068406820F0040006490968486021
:1033D00000BF044800684068C0F340100028F8D0DF
:1033E00010BD0000D4AA0020014600220023086876
:1033F000006A82B20868406A83B243EA02407047BA
:1034000030B5014600220023002400200D68AD697C
:10341000AAB20D68ED69ACB20D68AD69ABB29A4263
:1034200005D00D68ED6963F31F45284601E044EAC5
:10343000024030BDF0B504460B460021002504F5DE
:10344000FA61032B1BD2C3EBC30000EB0310092668
:10345000B0FBF6F01044001D4618481E06EB90061F
:103460006427B0FBF7F0361A481EBF00B0FBF7F038
:1034700030440726B0FBF6F706FB17051AE0C3EB4E
:10348000C30000EB03100926B0FBF6F01044001D4A
:10349000084400EB91006426B1FBF6F6801B4FF464
:1034A000C876B1FBF6F63044801E0726B0FBF6F76F
:1034B00006FB1705E8B2F0BD70B504460D460026C0
:1034C0002046FFF72EFF08B101260AE0280C2168EC
:1034D0000862A8B2216848622046FFF73FFF00B1AA
:1034E0000126304670BD70B504460D4600262046C4
:1034F000FFF717FF08B101260AE0280C2168886150
:10350000A8B22168C8612046FFF728FF00B1012654
:10351000304670BD7047002104E00023821C5354E4
:103520004A1CD1B20A29F8DB0021017041707047B2
:1035300010B5FDF7A9FC10BD00B595B028210BA86A
:10354000FCF73CFF142106A8FCF738FF1821684659
:10355000FCF734FF05200B904FF480300C900020D6
:103560000D9001200E900F9002201290C103139134
:103570004FF4E01114910BA8FDF7A6FF08B1FDF779
:10358000E5F80F20069002200790002008904FF4E5
:103590008060099000200A90022106A8FDF770FEC5
:1035A00008B1FDF7D3F801200090000201906846B1
:1035B000FDF7CEFD08B1FDF7C9F815B000BD7047A5
:1035C00010B50248FEF7AFFC10BD0000E8AA0020CD
:1035D00010B50248FEF7A7FC10BD000030AB00207C
:1035E00010B50248FEF79FFC10BD000078AB00202C
:1035F00010B50248FEF797FC10BD0000C0AB0020DC
:1036000010B50248FEF78FFC10BD000008AC00208A
:1036100010B50268204B98420ED0204B98420BD038
:10362000B0F1804F08D01E4B984205D01D4B9842F8
:1036300002D01D4B984203D122F070024B681A430E
:10364000154B98420ED0154B98420BD0B0F1804FDD
:1036500008D0134B984205D0124B984202D0124B1F
:10366000984203D122F44072CB681A4322F08003BF
:103670004C6943EA040202608B68C3620B68836290
:10368000054B984202D0054B984201D10B69036368
:103690000123436110BD0000002C014000340140B3
:1036A0000004004000080040000C004030B501F06C
:1036B0001F05012404FA05F3046A9C430462046AAA
:1036C00001F01F0502FA05F52C43046230BD00002D
:1036D00030B5026A056A25F0010505624368846910
:1036E00024F0700424F003040D682C4322F002023D
:1036F0008D682A43104DA84200D103E00F4DA84227
:1037000006D100BF22F00802CD682A4322F004024D
:10371000094DA84202D0094DA84207D123F4807375
:1037200023F400734D692B438D692B4343608461FF
:103730004D684563026230BD002C014000340140F9
:1037400030B5026A056A25F0100505624368846990
:1037500024F4E04424F440740D6844EA052422F083
:1037600020028D6842EA0512124DA84200D103E002
:10377000114DA84207D100BF22F08002CD6842EA75
:10378000051222F040020B4DA84202D00A4DA84279
:1037900009D123F4806323F400634D6943EA850370
:1037A0008D6943EA8503436084614D6885630262E5
:1037B00030BD0000002C01400034014030B5026AE9
:1037C000056A25F4807505624368C46924F07004B5
:1037D00024F003040D682C4322F400728D6842EA41
:1037E0000522124DA84200D103E0114DA84207D195
:1037F00000BF22F40062CD6842EA052222F4806212
:103800000A4DA84202D00A4DA84209D123F48053A0
:1038100023F400534D6943EA05138D6943EA051308
:103820004360C4614D68C563026230BD002C014035
:103830000034014030B5036A056A25F480550562FD
:103840004468C26922F4E04222F440720D6842EA00
:10385000052223F400538D6843EA0533084DA8423E
:1038600002D0084DA84204D124F480444D6944EAB2
:1038700085144460C2614D680564036230BD000078
:10388000002C01400034014070B505466C6A0020F0
:10389000E085E0842046FEF785FE70BD00BF00BFD6
:1038A00002680C3252E8002F22F4907102680C3248
:1038B00042E80013002BF3D100BF00BF00BF026835
:1038C000143252E8002F22F001010268143242E85B
:1038D0000013002BF3D100BF016B01290ED100BFF3
:1038E00000BF02680C3252E8002F22F0100102687B
:1038F0000C3242E80013002BF3D100BF202180F8E6
:10390000421000210163704710B504462068C0686A
:1039100020F040002168C860202084F84100204643
:10392000FFF71CF9002010BDF8B5044694F84200DA
:10393000222875D1A068B0F5805F0CD1206950B9FC
:103940000025A66A20684068C0F308003080A06A9D
:10395000801CA06215E0A56A0026A068B0F5805F13
:1039600003D0A06828B9206918B920684068287079
:1039700004E02068406800F07F002870A06A401CC6
:10398000A062E08D401E80B2E085002846D120680C
:10399000C06820F020002168C8602068C06820F45A
:1039A00080702168C8602068406920F001002168AB
:1039B0004861202084F8420000206063206B0128C9
:1039C00026D10020206300BF00BF21680C3151E8E0
:1039D000001F21F0100021680C3141E80002002A8C
:1039E000F3D100BF2068006800F0100010280AD151
:1039F00000BF0020009020680068009020684068A8
:103A0000009000BF00BFA18D2046FEF7CAFD02E076
:103A10002046FFF749F80020F8BD01E00020FBE751
:103A20000220F9E770B504462168096921F4405184
:103A3000E2681143226811612269A1681143626939
:103A400041EA02052168C96841F20C6291432943A9
:103A50002268D1602168496921F44071A26911434B
:103A6000226851612D4A2168914202D1FDF7E4FCA0
:103A700001E0FDF7D1FC00EBC00101EB0011626831
:103A80009200B1FBF2F100EBC00202EB001263689E
:103A90009B00B2FBF3F26423B2FBF3F202EBC2032E
:103AA00003EB0212A1EB8201322202EB011164222C
:103AB000B1FBF2F101F0F00100EBC00202EB0012E9
:103AC00063689B00B2FBF3F26423B2FBF3F201EBF9
:103AD000021200EBC00101EB001163689B00B1FB17
:103AE000F3F100EBC00303EB00136668B600B3FB11
:103AF000F6F36426B3FBF6F303EBC30606EB0313FE
:103B0000A1EB8301322303EB01116423B1FBF3F139
:103B100001F00F0111442268916070BD003801402E
:103B2000014691F84100212828D18868B0F5805FCE
:103B30000BD1086948B90A6A1088C0F308000B68FD
:103B40005860086A801C086205E00B6A581C08620D
:103B500018780B685860C88C401E80B2C88458B969
:103B60000868C06820F080000B68D8600868C068EA
:103B700040F040000B68D860002070470220FCE74E
:103B80002DE9F04104460D4617469846069E34E05E
:103B9000701C88B32EB1FDF771F9A0EB0800B0429C
:103BA0002BD900BF00BF21680C3151E8001F21F460
:103BB000D07021680C3141E80002002AF3D100BF27
:103BC00000BF00BF2168143151E8001F21F001003F
:103BD0002168143141E80002002AF3D100BF2020FF
:103BE00084F8410084F8420000BF002084F84000BF
:103BF00000BF0320BDE8F081FFE72068006828408F
:103C0000A84201D1012000E00020B842C0D000202D
:103C1000F0E7000010B50248FEF7C6FC10BD00003A
:103C200050AC002010B50248FEF7BEFC10BD0000ED
:103C300098AC002010B50248FEF7B6FC10BD00009D
:103C4000E0AC002000BFFEE702480068C0F302209D
:103C5000704700000CED00E010B5002804DB0A07F7
:103C6000130E054A135406E00A07140E034A00F027
:103C70000F031B1FD45410BD00E400E018ED00E05A
:103C800000BF704700BF704710B5044615E000BF85
:103C9000012204210A48FDF7EBF800BFFA20FCF7E7
:103CA000D7FE00BF002204210548FDF7E1F800BF60
:103CB000FA20FCF7CDFE601EC4B2002CE7DC10BD7C
:103CC000001801402DE9F04106460D4690461F467A
:103CD0002420FCF7A4FA044614B90020BDE8F081C2
:103CE00031462046FCF746FB0020206127626561D3
:103CF0002076E061CDB1E86998B10D49E8690860C6
:103D00000DE00B480068006928B1094800680069A7
:103D10000749086003E006480068046100E0F0E736
:103D200000E0EC61287E401C28762046D6E70000A3
:103D30005C0000202DE9F04107460D46164600F0D4
:103D40004BF9A02000F010F900F08EF9384600F091
:103D50000BF900F089F9002406E0285D00F004F971
:103D600000F082F9601CC4B2B442F6DB00F05CF9EA
:103D70000A20FCF76DFEBDE8F0812DE9F041074611
:103D80000C46154600F028F9A02000F0EDF800F0F0
:103D90006BF9384600F0E8F800F066F900F01CF91D
:103DA000A12000F0E1F800F05FF9002606E000F045
:103DB000B1F8A05500F05EF8701CC6B2681EB042A3
:103DC000F5DC00F0A7F8691E605400F083F800F0FD
:103DD0002BF9BDE8F0811CB5002001905520009022
:103DE000012201A9FF20FFF7C8FF9DF80400552814
:103DF00001D100201CBD01226946FF20FFF79AFF78
:103E0000012201A9FF20FFF7B8FF9DF80400552803
:103E100001D10020EEE70120ECE7000000BF054AD9
:103E2000126802F04002002AF9D0C2B2014B1B1DF9
:103E30001A6070470038014001460022002007E068
:103E40000A4B53F8213033F8103003B1521C401C98
:103E5000074B53F821308342F2D864205043044B7F
:103E600053F82130B0FBF3F080B270470800002017
:103E70006451000810B500BF00224FF400711148D2
:103E8000FCF7F6FF00BF00F01FF800BF012211028F
:103E90000C48FCF7EDFF00BF00F016F800BF002251
:103EA0004FF480710748FCF7E3FF00BF00F00CF807
:103EB00000BF012251020348FCF7DAFF00BF00F007
:103EC00003F810BD000C014010B5022000F0E2FF25
:103ED00010BD000010B500BF012251020C48FCF7D4
:103EE000C7FF00BFFFF7F0FF00BF01221102084823
:103EF000FCF7BEFF00BFFFF7E7FF00BF00224FF453
:103F000080710348FCF7B4FF00BFFFF7DDFF10BD71
:103F1000000C014070B5002400251EE06006040E70
:103F200000BF012211020F48FCF7A2FF00BFFFF7FC
:103F3000CBFF4FF400710B48FCF788FF08B1601C01
:103F4000C4B200BF00224FF480710648FCF790FF16
:103F500000BFFFF7B9FF681CC5B2082DDEDB2046A5
:103F600070BD0000000C014070B50446002526E03D
:103F700000BFE00928B1012251021648FCF778FF82
:103F800005E000224FF400711248FCF771FF00BFFA
:103F9000FFF79AFF00BF012211020E48FCF768FFED
:103FA00000BFFFF791FF00BF00224FF48071094866
:103FB000FCF75EFF00BF6006040E681CC5B2082D4A
:103FC000D6DB00BF012251020248FCF751FF00BFBF
:103FD00070BD0000000C014010B500BF012251026D
:103FE0001048FCF745FF00BF00BF012211020D4839
:103FF000FCF73EFF00BFFFF767FF00BF00224FF452
:1040000000710848FCF734FF00BFFFF75DFF00BFF9
:1040100000224FF480710348FCF72AFF00BFFFF72E
:1040200053FF10BD000C014010B500BF00224FF43B
:1040300000710C48FCF71CFF00BFFFF745FF00BFF5
:10404000012211020748FCF713FF00BFFFF73CFFF6
:1040500000BF012251020348FCF70AFF00BFFFF72F
:1040600033FF10BD000C014070B50024002500BFD7
:10407000012251021548FCF7FBFE00BFFFF724FFA9
:1040800000BF012211021148FCF7F2FE00BFFFF74A
:104090001BFF07E0601CC4B2FA2C03DDFFF7C4FF6E
:1040A000012506E04FF400710848FCF7CFFE002818
:1040B000F0D100BF00BF00224FF480710348FCF72D
:1040C000D7FE00BFFFF700FF284670BD000C01407F
:1040D00070B5054600242248007868B301212148C4
:1040E000FCF7B4FE01280BD010211F48FCF7AEFEF0
:1040F000012805D008211C48FCF7A8FE01281BD187
:104100000A20FCF7A5FC002015490870012115487C
:10411000FCF79CFE012800D1052410211248FCF771
:1041200095FE012800D1012408210F48FCF78EFEDE
:10413000012813D1022411E001210A48FCF786FE70
:1041400060B910210848FCF781FE38B908210648FB
:10415000FCF77CFE10B9012001490870204670BDB3
:104160004C00002000080140001801401CB5FCF77D
:1041700097FEFFF7E1F9FEF73BFDFEF7F3FCFEF7D4
:10418000E3FEFEF73BFFFEF779FFFEF7B7FFFEF712
:10419000F5FFFFF74DF8FFF767F8FFF781F8FEF737
:1041A0005BFE00F066FB434808238022002100905C
:1041B000084600F007FB00F015FE00F02BF900F0B8
:1041C0004FF9FFF708FE8046FFF75EFD4FF47A7067
:1041D000FCF73EFC00F0F1FA282008210923182200
:1041E000CDE9001003214FF4FD6000F059FD324B82
:1041F0000122002131A0FFF765FD044600230222C1
:10420000214631A0FFF75EFD054600230222294624
:104210002FA0FFF757FD0023022229462FA0FFF70A
:1042200051FD0023022221462FA0FFF74BFD064639
:1042300000231A4631462FA0FFF744FD00231A46FB
:1042400031462FA0FFF73EFD0023022221462FA07A
:10425000FFF738FD074600231A4639462DA0FFF721
:1042600031FD00231A4639462DA0FFF72BFD2F48BC
:1042700004601EE00A20FCF7EBFB2D480078401C90
:104280002B49087008460078322812D12748006868
:1042900000F0D6FD25480068016A24480068884778
:1042A00000BF20212348FCF7D9FD00BF0020204992
:1042B0000870DFE7685A0008394300084D61696EED
:1042C0004D656E7500000000736574704D6F74006D
:1042D000736574704D6F745F3100000073657470A6
:1042E0004D6F745F3200000055534152544D656E5E
:1042F0007500000055534152544D656E755F310095
:1043000055534152544D656E755F32004949434DD6
:10431000656E75004949434D656E755F310000005B
:104320004949434D656E755F32000000580000201A
:1043300011000020001801402DE9F041054600263B
:104340000024002759E00020FFF7C2FE0646002E99
:104350003DD0012E04D0022E0CD0052E35D113E015
:10436000601CC4B22748006800F06AFD6420FCF7B6
:104370006FFB00BF601EC4B22248006800F060FD01
:104380006420FCF765FB00BF1E48006800F058FD84
:10439000E86910B11C49E869086006E01A4800683D
:1043A000006919490860601EC4B224B1164800684B
:1043B00000690028F2D114480068124908600846D4
:1043C000006800F03DFD012700E000BF13E00A2077
:1043D000FCF73EFB0D480078401CC0B20B4908704A
:1043E000322808DB00BF20210948FCF737FD00BF59
:1043F00000200649087007B100E0A4E700BFBDE84F
:10440000F0810000580000205C00002060000020C7
:104410000018014000B50F4909684A000E49886834
:10442000002100F0A9F90D490A680B49086800212C
:1044300000F0A2F9074949684A000749C868002105
:1044400000F09AF905494A6803494868002100F0DC
:1044500093F900BD64510008000000206C51000871
:1044600001200A4981F82C000220094981F82C001A
:104470000320084981F82C000420074981F82C000A
:104480000520064981F82C007047000024AE00206A
:1044900054AE002084AE0020B4AE0020E4AE002074
:1044A00090F82D1019B9416A491C416202E0416A35
:1044B000491E41627047000070B5044614F82A0F87
:1044C000401C207014F82A0902287AD1002084F8B0
:1044D0002A0094F82B0048B194F82B00042805D04A
:1044E0002046FFF7DDFF206A401C206294F82B0075
:1044F000052864D2DFE800F062033D2050006069C7
:104500000168324800F0FEFC06464FF0804100F0A2
:10451000F9FC054600F0B8FD20856069001D60616A
:104520006168206A884206DB0120E16800F0F6F845
:10453000022084F82B0043E060690168234800F002
:10454000E1FC06464FF0804100F0DCFC054600F03F
:104550009BFD20856069001D6061D4E907108842D9
:1045600006DB0120216900F0D9F8042084F82B0033
:1045700026E0174A216892FBF1F000EBD071C1F3FD
:104580004F012185A169206A884204DB20696061AE
:10459000032084F82B0013E0204600F025F80120CA
:1045A000FFF74AFC054694F82C102A4609A0FBF7B1
:1045B00065FE002084F82B0002E002E000E000BF6E
:1045C00000BF204600F042F870BD00000024744A8D
:1045D00000093D006D6F746F722564206672656519
:1045E0002025640D0A00000010B5044694F82C0044
:1045F00006281DD2DFE800F01C03080D1217082161
:104600000D48FDF74DFF14E000210C48FDF748FF71
:104610000FE008210A48FDF743FF0AE0042109489A
:10462000FDF73EFF05E004210748FDF739FF00E0F4
:1046300000BF00BF10BD0000E8AA002008AC0020A9
:1046400078AB0020C0AB002030AB002010B50021BB
:10465000002290F82C30062B36D2DFE803F0350329
:104660000D17212B1A4B1B68596A038D0B449AB204
:10467000174B1B68DA6328E0164B1B68596A038DD9
:104680000B449AB2134B1B685A631EE0124B1B6813
:10469000596A038D0B449AB20F4B1B68DA6314E01E
:1046A0000E4B1B68596A038D0B449AB20B4B1B6867
:1046B0009A6300BF0A4B1B68596A038D0B449AB278
:1046C000074B1B689A6300BF00BF00BF10BD00000E
:1046D000E8AA002008AC002078AB0020C0AB002086
:1046E00030AB002070B504464FF47A7094FBF0F5BF
:1046F00094FBF0F100FB114603E0074800F0CAFB11
:104700006D1E002DF9D12EB14FF47A7106FB01F028
:1047100000F0C0FB70BD000040420F00F0B5134B2D
:1047200053F82030CC1A01B9F0BD114B53F82030AA
:10473000A34200D8F8E70F4B53F82030B4FBF3F254
:104740000A4B083353F8203033F81250002309E0A5
:104750000027064E083656F8206002EB030C26F8B8
:104760001C705B1CAB42F3DB00BFDDE700000020E8
:104770006C5100085C51000830B5034601E003F8B5
:10478000011B141EA2F10102F9D130BD70B505461E
:104790000C46FFF721FC7820FFF7E6FBFFF764FCEF
:1047A0002846FFF7E1FBFFF75FFC2046FFF7DCFB45
:1047B000FFF75AFCFFF738FC70BD10B5002000F081
:1047C0003BF810BD2DE9F05F06460F4690461C46AB
:1047D000DDF828A04FF0000BE11704EB5171C91070
:1047E000A4EBC10131B92046E11704EB5171C1F3CB
:1047F000C70506E02046E11704EB5171C910491CBA
:10480000CDB23D4614E02946304600F08DF8B14661
:104810000AE059460BF1010B1AF8010000F015F9F6
:1048200009F1010000F0FF09C145F2DB681CC5B2C7
:10483000A542E8DBBDE8F09F70B50646002415E010
:1048400004F1B001C8B200F0F9F8002000F0F6F869
:10485000102000F0F3F8002504E0304600F0F5F8F1
:10486000681CC5B2802DF8DB601CC4B2082CE7DBE5
:1048700070BD10B56420FCF7EBF8AE2000F0DEF858
:10488000202000F0DBF8102000F0D8F8B02000F075
:10489000D5F8C82000F0D2F8002000F0CFF81020A2
:1048A00000F0CCF8402000F0C9F8812000F0C6F8F4
:1048B000FF2000F0C3F8A12000F0C0F8A62000F00F
:1048C000BDF8A82000F0BAF83F2000F0B7F8A42007
:1048D00000F0B4F8D32000F0B1F8002000F0AEF8FA
:1048E000D52000F0ABF8F02000F0A8F8D92000F0B7
:1048F000A5F8222000F0A2F8DA2000F09FF812209C
:1049000000F09CF8DB2000F099F8202000F096F8E9
:104910008D2000F093F8142000F090F8AF2000F004
:104920008DF8FFF74AFF10BD70B504460D4605F13E
:10493000B001C8B200F082F8102141EA141000F072
:104940007DF804F00F0141F0010000F077F870BD30
:104950002DE9F0470646894617469A464FF000086B
:1049600000240025BAF1010F03D0BAF1020F5ED185
:1049700025E020E0785D203800F0FF087E2E04DD81
:10498000002609F1010000F0FF0949463046FFF713
:10499000CBFF002409E008EB4801264A02EB410165
:1049A000085D00F052F8601CC4B2062CF3DBB01DA9
:1049B000C6B2681CC5B2785D0028DBD137E032E0B2
:1049C000785D203800F0FF08782E04DD002609F11C
:1049D000010000F0FF0949463046FFF7A5FF00241B
:1049E00007E004EB0811144A505C00F02EF8601C3C
:1049F000C4B2082CF5DB09F10100C1B23046FFF763
:104A000093FF002408E004EB081108310A4A505CC7
:104A100000F01BF8601CC4B2082CF4DB06F108009F
:104A2000C6B2681CC5B2785D0028C9D100BF00BFFE
:104A3000BDE8F087505200087854000810B50446CD
:104A400021460020FFF7A2FE10BD10B50446214606
:104A50004020FFF79BFE10BD2DE9FF4F04460D4699
:104A600069B2A1F102084FFA88F8B8F1000107DC39
:104A700001F10C084FFA88F1A4F101081FFA88F43B
:104A80004FF0640994FBF9FA4FEAE47904EB997961
:104A90004FEAA90BA4F1010940F26D1E09FB0EB902
:104AA000A9EB0A094FF4C87A94FBFAFA09EB0A0356
:104AB00040F26F1801FB08F84FF00C0998FBF9F869
:104AC00008F11D06571E03EB0608B844DFF83090C6
:104AD000A8EB090C0CEB4C09DDF80C8008EBC908BD
:104AE000C8EB0819DDF8348008EB8908C8EB081911
:104AF000DDF8388008EB890004B0BDE8F08F0000D5
:104B00003AF90A00FEB50026002400253CA2D2E9AD
:104B100000109268CDE9010200913C480668360415
:104B2000001D006806443A48B6FBF0F43948008896
:104B3000A04239D037490C8040F2B2750EE02846C9
:104B400000F094F830B1B4F5B77F00D209E0A4F5D5
:104B5000B77401E0A4F26D14681C85B2B4F5B67F99
:104B6000EDD800BF2C488580002515E02A498888AB
:104B700000F07CF830B1012D04D11D2C00D20DE0E5
:104B80001D3C07E01DF80500A04200D906E01DF815
:104B90000500241A681C85B21C2CE7D200BF681CD3
:104BA0001D498871601CC8711948B6FBF0F100FB03
:104BB00011644FF46160B4FBF0F0174908704FF4D2
:104BC0006160B4FBF0F100FB11403C21B0FBF1F05F
:104BD000114948704FF46160B4FBF0F100FB1140E3
:104BE0003C21B0FBF1F201FB12000B4988700B462F
:104BF000DA799979988800F011F807490872FEBDB2
:104C00001F1C1F1E1F1E1F1F1E1F1E1F18280040B7
:104C10008051010038000020C8AA002070B503466A
:104C20000020032904DA01F10C04E1B25C1EA3B2F6
:104C30004C1C04EB4404052594FBF5F5541C02269A
:104C400006FB01442C441C4404EBA304642593FBA1
:104C5000F5F5641B4FF4C87593FBF5F52C44072557
:104C600094FBF5F605FB1644E0B270BD0146CA1789
:104C700001EB92729210A1EB82022AB9642291FB9D
:104C8000F2F302FB131232B94FF4C87291FBF2F344
:104C900002FB13120AB9012070470020FCE7000054
:104CA0002DE9FC4705460E4617469846DDE90A9A67
:104CB000002443463A4631462846CDE9009AFFF79C
:104CC000CBFE044600BF1D48C06940F080501B4920
:104CD000C8610846C06900F08050019000BF00BF65
:104CE00000BF0846C06940F00060C8610846C0695E
:104CF00000F00060019000BF00BFFCF797F910487A
:104D0000006840F010000E490860A0B20C4918314C
:104D10000860200C091F08600948006820F0100096
:104D20000749086000BF074800684068C0F34010AA
:104D30000028F8D00020BDE8FC87000000100240E9
:104D400004280040D4AA002070B505460C4616463B
:104D500055200E4948700870082088700320C870DC
:104D6000012008714E71301288710846C5710C72AD
:104D7000201248724FF6FF730A220548FDF795FE90
:104D8000044800EB8500448070BD000010AE002098
:104D900098AC002000AE002070B504460D461646C3
:104DA00024B1012C16D0022C1AD10DE0324629462E
:104DB0000020FFF7C9FF40F6B830401B81B23246F1
:104DC0000120FFF7C1FF0BE0324629460220FFF722
:104DD000BBFF05E0324629460320FFF7B5FF00BFC1
:104DE00000BF70BD10B51448FEF795FB00200AE027
:104DF000124901F8200040F2DC51104A02EB800217
:104E00005180411CC8B20428F2DB41F288324FF4D1
:104E100096610020FFF7C0FF41F288324FF4117114
:104E20000220FFF7B9FF41F288324FF4A56101205B
:104E3000FFF7B2FF10BD0000F4AD002000AE00206F
:104E400070B50446FFF7B9FC0A20FBF701FE012309
:104E5000224600210846FFF77BFD0125E069A8B145
:104E60000B49E069086000BF012309482946026830
:104E70000020FFF76DFD681CC5B205480068006999
:104E800003490860084600680028EDD170BD0000A5
:104E90005C00002071B50098B0F5617F13D9002443
:104EA00004E04FF46170FFF7F5FF641C4FF461718B
:104EB0000098B0FBF1F0A042F3D80098B0FBF1F2FB
:104EC00001FB120000904FF0E02084694821009817
:104ED00001FB1046002E08DB00BF4FF0E020856983
:104EE000A5420CDAB542F8DA09E00548064400BFED
:104EF0004FF0E0208569A542FADDB542F8DC78BDC7
:104F0000401901004FF47F0C1CEAD0121EBF1CEAAE
:104F1000D11392EA0C0F93EA0C0F00F0858090EA0F
:104F2000010F48BF42F4807240F4000C41F40000CD
:104F30002CF07F4120F07F4000B58142A2EB0302BC
:104F40000FF2081CACEB504EC0F100009EF800E0E0
:104F50004FEA4E0E00FB0EFC38BF49004FEA2C1CF6
:104F600002F5FA020CFB0EF34FEACE1E4FEA112CAB
:104F70004FEAC1210EEB635E42EB22420EFB0CFCBA
:104F80004FEA1C5300FB03114FEA112C4FEA013189
:104F90000EFB0CFC4FEADC4C00FB0C11C14228BF9D
:104FA00009184CEB03335DF804EB10EB410143EBC4
:104FB000C250B2F57C0F38BF704729D512F0F00F00
:104FC0001CBF00F1C04000F00040704700818283A8
:104FD0008485868788898B8C8D8E8F919293959608
:104FE00097999A9C9D9FA0A2A3A5A7A8AAACAEB092
:104FF000B2B3B5B7B9BCBEC0C2C5C7C9CCCED1D497
:10500000D7D9DCDFE2E6E9ECF0F3F7FAFE000000C6
:105010004FEA400C0CF1807CBCF17E4F28BF7047FA
:10502000B0F1C04000F095B890EA010F0CEAD1133E
:1050300048BF42F48072624538BF634507D213F41B
:105040007F0F16D080EA010000F00040704710B5D5
:1050500000F039F8097EFC3E00F005B880EA010056
:1050600000F00040704780EA010000F0004000F0CE
:1050700070B812F47F0F04BF0248704780EA010045
:1050800000F067B80000C07FC10DD1F19E0206DBC1
:105090004FEA002343F0004323FA02F07047004236
:1050A00007D54FEA4001B1F1FE4F02D24FF00000A8
:1050B000704710B500F007F849922480002070472F
:1050C0006FEA200070470EF1020E2EF0030E5EF81C
:1050D000044B244204D44FEA4102B2F17F4F11D86D
:1050E0004FEA4003B3F17F4F0CD80ED14FEAD07C8A
:1050F000B2F17F4F0CEB4C0C0CF1020C08BF4CEBE7
:10510000D17C04E04FF0080C01E04FEAD17C0CEBBD
:105110004C0324FA03F404F00704B4F1040C06D29F
:105120000EEB840CBDE810404CF0010C6047DFE84A
:105130000CF0070802024FF00040A0F5800010BDFF
:105140000846420018BFD2F1807288BF00F00040CC
:1051500010BDFF2141EAD050C0057047200000007B
:105160002000000000050000601D000000A00000FD
:1051700000AC030002030405060708090A0B0C0D26
:105180000E0F1010010202030405060708090A0B9E
:105190000C0D0E0F101001020000000000000000B6
:1051A00001020304060708090000000001020304CD
:1051B000000202FAFAAAAAFFFFAAAAFAFA02020059
:1051C000004272723A7A424B5B5262621377660017
:1051D000203C1CFFFFB0B424243F3FE4E4242420FF
:1051E000020203FFFF0001051D59C1FF7F010101FC
:1051F000000000F8F8484C4F4B4A4848F8F80000C7
:10520000000000FFFF44444444444444FFFF0000C6
:10521000202424E4E42424243010FFFF10F0F000C4
:10522000081C1F0B0C0D4F6E341C0F23607F3F00BA
:1052300080C060F8FF070200FFFFE0703C1C080020
:105240000000007F7F0406033F7F404040787800E5
:105250000000000000000000002F00000000070018
:10526000070000147F147F1400242A7F2A12006292
:10527000640813230036495522500000050300003E
:1052800000001C224100000041221C000014083EC6
:1052900008140008083E0808000000A0600000088C
:1052A00008080808000060600000002010080402E0
:1052B000003E5149453E0000427F4000004261519E
:1052C0004946002141454B31001814127F10002738
:1052D00045454539003C4A494930000171090503FB
:1052E00000364949493600064949291E000036362C
:1052F000000000005636000000081422410000148F
:10530000141414140000412214080002015109066B
:1053100000324959513E007C1211127C007F4949EC
:105320004936003E41414122007F4141221C007F1D
:1053300049494941007F09090901003E4149497A2B
:10534000007F0808087F0000417F410000204041A5
:105350003F01007F08142241007F40404040007F11
:10536000020C027F007F0408107F003E4141413E55
:10537000007F09090906003E4151215E007F09199D
:1053800029460046494949310001017F0101003F9A
:105390004040403F001F2040201F003F4038403F1A
:1053A000006314081463000708700807006151497E
:1053B000454300007F41410000552A552A55000011
:1053C00041417F000004020102040040404040408F
:1053D000000001020400002054545478007F484427
:1053E000443800384444442000384444487F00385E
:1053F0005454541800087E0901020018A4A4A47C87
:10540000007F080404780000447D40000040808450
:105410007D00007F102844000000417F4000007C98
:1054200004180478007C08040478003844444438A4
:1054300000FC242424180018242418FC007C0804F0
:10544000040800485454542000043F444020003CC9
:105450004040207C001C2040201C003C4030403C50
:10546000004428102844001CA0A0A07C00446454E0
:105470004C44141414141414000000000000000024
:105480000000000000000000000000F80000000024
:10549000000000333000000000100C06100C060065
:1054A000000000000000000040C07840C0784000CC
:1054B000043F04043F040400007088FC083000002E
:1054C000001820FF211E0000F008F000E018000086
:1054D00000211C031E211E0000F00888700000003F
:1054E0001E2123241927211010160E000000000091
:1054F0000000000000000000000000E018040200AE
:10550000000000071820400000020418E00000001E
:105510000040201807000000404080F0804040001C
:105520000202010F01020200000000F00000000072
:105530000101011F01010100000000000000000046
:1055400080B07000000000000000000000000000BB
:105550000001010101010101000000000000000044
:1055600000303000000000000000000080601804DF
:10557000006018060100000000E010080810E000BC
:10558000000F102020100F00001010F80000000085
:105590000020203F202000000070080808887000CC
:1055A000003028242221300000300888884830004C
:1055B0000018202020110E000000C02010F800006C
:1055C00000070424243F240000F808888808080005
:1055D0000019212020110E0000E01088881800001A
:1055E000000F112020110E0000380808C8380800EC
:1055F0000000003F0000000000708808088870006C
:10560000001C222121221C0000E010080810E000EC
:105610000000312222110F00000000C0C000000075
:10562000000000303000000000000080000000009A
:105630000000806000000000000080402010080092
:10564000000102040810200040404040404040005B
:105650000404040404040400000810204080000036
:105660000020100804020100007048080808F0003B
:105670000000003036010000C030C828E810E0000B
:105680000718272423140B000000C038E000000096
:10569000203C23020227382008F888888870000000
:1056A000203F202020110E00C030080808083800D4
:1056B000071820202010080008F808080810E0004B
:1056C000203F202020100F0008F88888E8081000EC
:1056D000203F20202320180008F88888E8081000C0
:1056E000203F200003000000C030080808380000F8
:1056F00007182020221E020008F808000008F808F9
:10570000203F210101213F20000808F8080800007F
:105710000020203F2020000000000808F8080800B2
:10572000C08080807F00000008F888C0281808002A
:10573000203F20012638200008F808000000000063
:10574000203F20202020300008F8F800F8F808005A
:10575000203F003F003F200008F830C00008F80854
:10576000203F200007183F00E01008080810E00064
:105770000F10202020100F0008F808080808F0007B
:10578000203F210101010000E01008080810E0009E
:105790000F18242438504F0008F888888888700033
:1057A000203F2000030C30200070880808083800D3
:1057B0000038202121221C00180808F808081800C9
:1057C0000000203F2000000008F808000008F8084A
:1057D000001F202020201F000878880000C83808FB
:1057E000000007380E010000F80800F80008F80073
:1057F000033C0700073C030008186880806818080D
:1058000020302C03032C30200838C800C83808008A
:105810000000203F2000000010080808C8380800D9
:105820002038262120201800000000FE020202007D
:105830000000007F40404000000C30C0000000002D
:10584000000000010638C00000020202FE00000055
:10585000004040407F0000000000040202020400FB
:105860000000000000000000000000000000000038
:105870008080808080808080000202040000000020
:105880000000000000000000000080808080000018
:105890000019242222223F2008F800808000000006
:1058A000003F112020110E000000008080800000C9
:1058B000000E112020201100000000808088F800D8
:1058C000000E112020103F2000008080808000000A
:1058D000001F222222221300008080F0888888186E
:1058E0000020203F20200000000080808080800079
:1058F000006B94949493600008F80080808000000E
:10590000203F210000203F200080989800000000E8
:105910000020203F20200000000000809898000018
:1059200000C08080807F000008F800008080800038
:10593000203F24022D302000000808F8000000005D
:105940000020203F20200000808080808080800018
:10595000203F20003F20003F8080008080800000AA
:10596000203F210000203F20000080808080000038
:10597000001F202020201F00808000808000000069
:1059800080FFA12020110E00000000808080800098
:10599000000E112020A0FF80808080008080800089
:1059A00020203F21200001000000808080808000B6
:1059B0000033242424241900008080E0808000002B
:1059C0000000001F20200000808000000080800078
:1059D000001F202020103F208080800000808080D9
:1059E00000010E3008060100808000800080808069
:1059F0000F300C030C300F0000808000808080008E
:105A00000020312E0E3120008080800000808080B8
:105A100080818E7018060100008080808080800068
:105A20000021302C2221300000000000807C020286
:105A300000000000003F404000000000FF000000A8
:105A400000000000FF0000000002027C8000000057
:105A50000040403F00000000000601010202040473
:105A60000000000000000000000000000000000036
:105A70000000000000000000000000000000000026
:105A80000000000000000000000000000000000016
:105A900000000000000000000080C0E0E0E0E0E066
:105AA000E0E0E0E0C08080000000000000000000B6
:105AB0000000000000000000008080808080808066
:105AC00080800000000000000000000000000000D6
:105AD00000000000000000000000000000000000C6
