:020000040800F2
:10000000F0B50020DD010008493900087D31000805
:1000100045390008470700088D450008000000002A
:10002000000000000000000000000000E53B0008A8
:100030008907000800000000B1390008013C0008F1
:10004000F7010008F7010008F7010008693A000805
:10005000F7010008F7010008F7010008F7010008A0
:10006000F7010008F7010008F7010008F701000890
:10007000F70100084D070008F7010008F701000824
:10008000F7010008F7010008F7010008F701000870
:10009000F7010008F7010008F7010008F701000860
:1000A000F7010008F7010008F7010008913C00087B
:1000B000A13C0008B13C0008C13C0008F701000861
:1000C000F7010008F7010008F7010008F701000830
:1000D000F7010008FD4400080D4500081D45000813
:1000E000F7010008F7010008F7010008F701000810
:1000F000F7010008F7010008D13C0008F7010008EB
:10010000F7010008F7010008F7010008F7010008EF
:10011000F7010008F7010008F7010008F7010008DF
:10012000F7010008F7010008F7010008F7010008CF
:1001300000F002F800F043F80AA090E8000C8244B6
:100140008344AAF10107DA4501D100F038F8AFF293
:10015000090EBAE80F0013F0010F18BFFB1A43F0A5
:1001600001031847D4660000F4660000103A24BF6B
:1001700078C878C1FAD8520724BF30C830C144BF0C
:1001800004680C607047000000230024002500264E
:10019000103A28BF78C1FBD8520728BF30C148BFEA
:1001A0000B607047642900F0A980002070471FB5DC
:1001B0009DE8030000F04AF91FBD10B510BD00F026
:1001C0004EFA1146FFF7F3FF04F084FC00F06CFADE
:1001D00003B4FFF7F2FF03BC04F0F6F909488047C7
:1001E00009480047FEE7FEE7FEE7FEE7FEE7FEE719
:1001F000FEE7FEE7FEE7FEE704480549054A064B31
:10020000704700008F3C000831010008F0AF00206B
:10021000F0B50020F0B10020F0B10020704770B5BB
:10022000064600F0F7F8056806F10B0020F0070419
:10023000B4429CBF002070BD2B466A68BAB11068FA
:10024000A04210D304F1080188423CBF50685860B6
:1002500007D35168101941601168091B016058608B
:100260001460101D70BD13465268002AE7D1214664
:10027000284600F0D7F80028DED170BD0FB404493D
:1002800010B503AA029800F097F910BC5DF814FBB2
:10029000500000202DE9F0410E4604460020206267
:1002A0002046E168884730B3252805D0D4E90121EC
:1002B0009047206A401CF2E7E16820460027884703
:1002C000050018D0A5F14100192802D820354FF4B7
:1002D00000673246294620462760FFF763FF40B19A
:1002E000012804D0F61D26F007060836D8E7361D8B
:1002F000D6E72846DAE7206ABDE8F0812DE9F0412B
:100300000646002410687529314616A510D0AFF3B3
:100310000080002802DA404213A507E031688A070E
:1003200001D512A502E0490704D511A5012401E079
:10033000AFF3008000210A2206F1240709E0B0FB98
:10034000F2FCB0FBF2F302FB1C003030785418468C
:10035000491C0028F3D123462A463046BDE8F04127
:1003600000F0D1B8000000002D0000002B000000BC
:100370002000000040EA0103024630B59B0710D17F
:100380004FF0013400E008C208C91D1B9D4315EA67
:10039000C41FF8D013F0FF0102F8011B0DD01B0A97
:1003A000F8E711F8013B002B02F8013B05D011F8EA
:1003B000013B002B02F8013BF3D130BD4FF00002AE
:1003C00000B5134694469646203922BFA0E80C504B
:1003D000A0E80C50B1F12001BFF4F7AF090728BF26
:1003E000A0E80C5048BF0CC05DF804EB890028BFA2
:1003F00040F8042B08BF704748BF20F8022B11F0CB
:10040000804F18BF00F8012B704770477047704746
:10041000704700000048704798AF00207047704751
:100420007047704738B504460A4600206946AFF366
:100430000080002808BF38BD02460099204600F021
:10044000D1F8012038BD012000F002B9F8B5AFF3B2
:100450000080054600200C46102000BF0646A81963
:10046000A0420DD9324669460020AFF30080070054
:1004700008BF00F0EDF80098A04218BF0546C41967
:10048000FFF7C8FF05600746F01D20F0070046197A
:10049000284600F00AF8B44208BFF8BDA21B314656
:1004A0003868BDE8F84000F09DB800210160C0E95F
:1004B000011070471020704770B50446051FFFF704
:1004C000A9FF0068002C14BF446870BD002C18BF41
:1004D000AC423CBF20466468F8D301680A18AA42BF
:1004E00018BF456003D12A68054611440160286899
:1004F0004119A1421CBF6C6070BD616869602168D0
:100500000844286070BD2DE9F0470D469946924693
:10051000044600F124080168880604D5E06921F04A
:100520001001216000E00120A84201DD471B00E02E
:100530000027A1697A1902EB0900081AA061207846
:10054000C00602D42046AFF30080002608E0D4E9BC
:1005500001211AF806009047206A401C761C206290
:100560004E45F4DB2078C0060AD52046AFF3008064
:1005700006E0D4E9012130209047206A401C206227
:10058000381EA7F10107F4DC07E0D4E9012118F8CF
:1005900005009047206A401C2062281EA5F1010535
:1005A000F3DC2046AFF300802078000602D502205D
:1005B000BDE8F0870120FBE7074B70B50D467B4493
:1005C00000F02FF80446284600F03EF810B14FF036
:1005D000FF3070BD204670BDA34100000048704749
:1005E00090AF0020034640688C46002818BF884220
:1005F0003CBF03464068F8D318681844884207D0C7
:100600000CF1030020F00700001D411A521A0146A8
:10061000081D0A60FFF750BF01694A1C0261087893
:10062000704700B58FB0CDE9013100210591054932
:100630007944CDE9031011466846FFF72BFE0FB051
:1006400000BD0000E5FFFFFF007B00F08000704769
:1006500010B500F037F8BDE8104000F02EB8754630
:10066000FFF7BCFFAE4605006946534620F0070081
:10067000854618B020B5FFF7BFFDBDE820404FF01C
:1006800000064FF000074FF000084FF0000B21F07C
:100690000701AC46ACE8C009ACE8C009ACE8C00949
:1006A000ACE8C0098D46704710B50446AFF3008032
:1006B0002046BDE81040FFF78BBD002801D003F0B5
:1006C00083BF704710B5012805D0002103A000F0BA
:1006D00021F8012010BD09A1F8E700005349475255
:1006E000544D454D3A204F7574206F662068656102
:1006F00070206D656D6F7279000000003A204865CA
:100700006170206D656D6F727920636F72727570A4
:100710007465640070B505460C460A2000E06D1C47
:1007200003F054FF35B128780028F8D102E0641CAA
:1007300003F04CFF14B120780028F8D1BDE87040D8
:100740000A2003F043BF00BFFEE7000010B50248D7
:1007500000F0B4F910BD000028AD002030B590F8CD
:1007600040500124AC40C56B6C6004686360446811
:10077000102C04D10468A2600468E16003E00468FE
:10078000A1600468E26030BD704772B600BFFEE74A
:1007900070B50446B3F5804F13D1D1E9000540EAA6
:1007A00005108D6840EA05208D6928438D8940EA4F
:1007B000054054F82250064E3540284344F82200A4
:1007C00003E06FF0704044F82200002070BD00008C
:1007D0000000F0CF70B50246086852F8200020F003
:1007E00001000E6842F826008868082801D14023DD
:1007F00000E00023486818438E683043CE683043D9
:100800000E6930434E693043CE6930430E6A30433F
:100810004E6A30438E6A3043CE6A30430E6B40EAF4
:10082000060488690443486B0443074D45F480651A
:1008300045F4E025086852F82000A84320430E68DC
:1008400042F82600002070BD7FFB080010B503466B
:10085000D1E9000440EA04108C6840EA04208C8945
:1008600040EA0444088A401E44EA0054087D801E81
:1008700044EA00608C692043541C53F8244004F07F
:1008800040442043541C43F82400002010BD0021A4
:1008900005E0002300F1180253544A1CD1B2142978
:1008A000F7DB552181701222C27001710021417164
:1008B00081718160C1600161416170470146002220
:1008C00091F82100022808D00420886300BF00208E
:1008D00081F8200000BF012070470868006820F000
:1008E0000E000B6818600868006820F001000B68B3
:1008F000186091F8403001209840CB6B586001207F
:1009000081F8210000BF002081F8200000BF1046C0
:10091000E2E7000070B50446002594F821000228A3
:1009200003D00420A0630125C1E02068006820F006
:100930000E00216808602068006820F0010021682E
:1009400008605C492068884252D95A497839206841
:10095000884201D1012047E0564964392068884225
:1009600001D1102040E0534950392068884201D11C
:10097000801539E04F493C392068884201D1801404
:1009800032E04C4928392068884202D14FF4803047
:100990002AE0484914392068884202D14FF4801077
:1009A00022E044492068884201D140041CE04249C9
:1009B0002068884201D1012016E03F4914312068A7
:1009C000884201D110200FE03B492831206888423D
:1009D00001D1801508E038493C312068884201D1B6
:1009E000801401E04FF480303349091F086051E062
:1009F000304978392068884201D1012047E02D49EB
:100A000064392068884201D1102040E029495039DA
:100A10002068884201D1801539E026493C39206898
:100A2000884201D1801432E0224928392068884266
:100A300002D14FF480302AE01E49143920688842E0
:100A400002D14FF4801022E01A492068884201D177
:100A500040041CE018492068884201D1012016E0BA
:100A6000154914312068884201D110200FE0124945
:100A700028312068884201D1801508E00E493C31B8
:100A80002068884201D1801401E04FF48030094988
:100A900080394860012084F8210000BF002084F8DC
:100AA000200000BF606B10B12046616B884728466C
:100AB00070BD0000800002400804024070B504468A
:100AC000E06B05682068066894F8401004208840B0
:100AD0002840002875D006F004000028FAD02068CD
:100AE000006800F0200028B92068006820F00400A9
:100AF00021680860D5492068884254D9D34978399B
:100B00002068884201D1042049E0D0496439206836
:100B1000884201D1402042E0CC49503920688842C7
:100B200001D100153BE0C9493C392068884202D117
:100B30004FF4804033E0C54928392068884202D10B
:100B40004FF480202BE0C14914392068884202D13B
:100B50004FF4800023E0BD492068884201D1C004E1
:100B60001DE0BB492068884201D1042017E0B84944
:100B700014312068884201D1402010E0B449283166
:100B80002068884201D1001509E0B1493C31206854
:100B9000884202D14FF4804001E04FF48020AC49FC
:100BA000091F086054E0A94978392068884201D1BA
:100BB00004204AE0A54964392068884202D14020D7
:100BC00043E04CE0A14950392068884201D100152A
:100BD0003BE09E493C392068884202D14FF4804076
:100BE00033E09A4928392068884202D14FF48020A6
:100BF0002BE0964914392068884202D14FF48000D6
:100C000023E092492068884201D1C0041DE0904948
:100C10002068884201D1042017E08D4914312068F2
:100C2000884201D1402010E089492831206888425B
:100C300001D1001509E086493C312068884202D183
:100C40004FF4804001E04FF48020804980394860B3
:100C5000E06A002802D02046E16A8847F4E094F870
:100C60004010022088402840002871D006F0020081
:100C70000028FAD02068006800F0200040B9206801
:100C8000006820F00A0021680860012084F8210033
:100C90006E492068884254D96C4978392068884266
:100CA00001D1022049E0694964392068884201D1B4
:100CB000202042E0654950392068884201D1401522
:100CC0003BE062493C392068884202D14FF4005031
:100CD00033E05E4928392068884202D14FF4003061
:100CE0002BE05A4914392068884202D14FF4001091
:100CF00023E056492068884201D180041DE0544910
:100D00002068884201D1022017E05149143120683F
:100D1000884201D1202010E04D49283120688842C6
:100D200001D1401509E04A493C312068884202D18E
:100D30004FF4005001E04FF400304549091F0860AE
:100D400054E0424978392068884202D102204AE0C2
:100D500057E03E4964392068884201D1202042E0B2
:100D60003A4950392068884201D140153BE0374963
:100D70003C392068884202D14FF4005033E03349B7
:100D800028392068884202D14FF400302BE02F49E7
:100D900014392068884202D14FF4001023E02B4917
:100DA0002068884201D180041DE0294920688842DA
:100DB00001D1022017E0264914312068884201D170
:100DC000202010E0224928312068884201D14015B6
:100DD00009E01F493C312068884202D14FF400509D
:100DE00001E04FF4003019498039486000BF00200D
:100DF00084F8200000BFA06A30B32046A16A88476B
:100E000022E094F84010082088402840E0B106F025
:100E10000800C8B12068006820F00E002168086052
:100E200094F8401001208840E16B48600120A063E5
:100E300084F8210000BF002084F8200000BF206B50
:100E400010B12046216B884770BD00008000024031
:100E5000080402400146002209B9012070471E4BD8
:100E6000086898420BD21D4B0868C01A1423B0FBC7
:100E7000F3F08000086419480838C8630AE0164B8C
:100E80000868C01A1423B0FBF3F08000086412480D
:100E90000838C863022081F821000868026843F618
:100EA000F0708243D1E901031843CB6818430B6902
:100EB00018434B6918438B691843CB6918430243A5
:100EC0000868026000208863012081F8210000206A
:100ED00081F8200000BFC1E708040240080002407A
:100EE0002DE9F04104460D4616461F464FF0000816
:100EF00000BF94F82000012802D10220BDE8F08153
:100F0000012084F8200000BF94F8210001282CD192
:100F1000022084F821000020A0632068006820F0EF
:100F20000100216808603B46324629462046FFF70B
:100F300015FCE06A30B12068006840F00E002168BE
:100F400008600BE02068006820F004002168086059
:100F50002068006840F00A00216808602068006886
:100F600040F001002168086006E000BF002084F81E
:100F7000200000BF4FF002084046BFE710B504460E
:100F8000A0B204F075F810BD00B585B00020019046
:100F90000290039004902248006808B105B000BD9B
:100FA00001201F49086000BF1E48406940F480705E
:100FB0001C4948610846406900F48070009000BFF9
:100FC00000BF4FF23F0001900220029003200490E6
:100FD00001A9154800F030F841F23F0001900220CD
:100FE00002900320049001A9104800F025F84FF664
:100FF00083700190022002900320049001A90C4804
:1010000000F01AF84DF63370019002200290032090
:10101000049001A9074800F00FF800BFBEE70000E8
:101020001400002000100240001C0140002001407C
:1010300000180140001401402DE9F8470246002342
:101040009C467BE14FF0010808FA03F4D1F80080D8
:1010500008EA0400A0427DD1DFF8F4A2D1F80480B0
:10106000A8EB0A09D0453AD014DCB8F1030F50D0F0
:1010700009DCB8F1000F31D0B8F1010F1CD0B8F184
:10108000020F49D120E0B8F1110F18D0B8F1120FBA
:1010900042D11EE0B9F5881F25D006DCB9F5803FA6
:1010A00020D0B9F5801F37D11AE0B9F5001F18D04C
:1010B000B9F5041F30D117E0D1F80CC02DE0D1F8FC
:1010C0000C8008F1040C28E0D1F80C8008F1080C21
:1010D00023E0D1F80C8008F10C0C1EE000BF00BF2B
:1010E00000BF00BF00BF00BFD1F80880B8F1000FFB
:1010F00002D14FF0040C0BE0D1F80880B8F1010FD9
:1011000003D14FF0080C146102E04FF0080C546159
:1011100003E04FF0000C00E000BF00BFFF2801D843
:10112000904601E002F104084646FF2802D84FEA43
:10113000830803E0A3F108084FEA88084746D6F879
:1011400000804FF00F0909FA07F928EA09080CFA9C
:1011500007F900E07AE048EA0908C6F80080D1F80B
:10116000048008F08058B8F1805F6FD100BFDFF8CD
:10117000E481D8F8188048F00108DFF8D891C9F860
:101180001880C846D8F8188008F00108CDF800800B
:1011900000BF00BF4FEAB9384FEA930958F8295009
:1011A0004FEA83784FEA18794FF00F0808FA09F8E8
:1011B00025EA0805DFF8A081424502D14FF000087A
:1011C00024E0DFF89881424502D14FF001081DE08C
:1011D000DFF88C81424502D14FF0020816E0DFF8BB
:1011E0008481424502D14FF003080FE0DFF8788197
:1011F000424502D14FF0040808E0DFF87081424513
:1012000002D14FF0050801E04FF006084FEA83795C
:101210004FEA197908FA09F848EA0505DFF850811C
:101220004FEA930948F82950D1F8048008F480184F
:10123000B8F5801F0BD1DFF83C81D8F8008048EA70
:101240000008DFF83091C9F800800AE075E0DFF8A7
:101250002481D8F8008028EA0008DFF81891C9F83E
:101260000080D1F8048008F40018B8F5001F0ED1F2
:10127000DFF8008108F10408D8F8008048EA000887
:10128000DFF8F09009F10409C9F800800DE0DFF8FB
:10129000E48008F10408D8F8008028EA0008DFF8A4
:1012A000D49009F10409C9F80080D1F8048008F449
:1012B0000038B8F5003F0ED1DFF8B880A8F1040877
:1012C000D8F8008048EA0008DFF8A890A9F10409DE
:1012D000C9F800800DE0DFF89C80A8F10408D8F878
:1012E000008028EA0008DFF88C90A9F10409C9F809
:1012F0000080D1F8048008F48038B8F5803F0ED122
:10130000DFF87080A8F10808D8F8008048EA0008E3
:10131000DFF86090A9F10809C9F800800DE0DFF856
:101320005480A8F10808D8F8008028EA0008DFF8FF
:101330004490A9F10809C9F800805B1CD1F800802D
:1013400028FA03F8B8F1000F7FF47CAEBDE8F88707
:10135000000011100010024000080140000C014084
:10136000001001400014014000180140001C014021
:101370000800014008040140024693680B400BB18D
:10138000012000E00020704710B5C26821EA020386
:1013900002EA010443EA0443036110BD0AB101619A
:1013A00001E00B04036170470148006870470000CA
:1013B0003C000020034800680349097808440149BB
:1013C000086070473C0000204400002010B5084829
:1013D000006840F0100006490860032000F0A8F8FB
:1013E0000F2000F007F800F02BF8002010BD0000DF
:1013F0000020024070B504460E4800784FF47A7120
:10140000B1FBF0F00C490968B1FBF0F5284600F09B
:1014100039FF08B1012070BD102C07D200222146EF
:10142000501E00F047F80548046001E00120F2E793
:101430000020F0E744000020480000204000002089
:1014400008B500BF1148806940F001000F4988616C
:101450000846806900F00100009000BF00BF00BF97
:101460000846C06940F08050C8610846C06900F075
:101470008050009000BF00BF00BF0549486820F0C1
:10148000E06040F00070486000BF08BD00100240FE
:101490000000014001460846002809DB00F01F0358
:1014A00001229A4043099B0003F1E023C3F8002185
:1014B00000BF70472DE9F05F80460D4616460027B5
:1014C00003F066F8074639462A46334601F007001E
:1014D000C0F1070ABAF1040F02D94FF0040A01E083
:1014E000C0F1070AD14600F1040ABAF1070F02D28F
:1014F0004FF0000A01E0A0F1030AD4464FF0010AC0
:101500000AFA09FAAAF1010A0AEA020A0AFA0CFA24
:101510004FF0010B0BFA0CFBABF1010B0BEA030BC9
:101520004AEA0B042146404603F03AF8BDE8F09F32
:1015300000BF00F00702064B19684FF6FF03194081
:10154000044B0B4343EA0221014B196000BF704773
:101550000CED00E00000FA05012001490862704727
:1015600000000E422DE9F04706464FF00008002526
:1015700000270024A146042E37D004DC012E3CD0E5
:10158000022E6CD160E0082E33D0102E67D1364881
:101590004468006800F0807008B33448C4F38341A5
:1015A000475C04F4803078B12F484068C0F3404075
:1015B0002F4911F8008004F4803040B12D48B0FB71
:1015C000F8F000FB07F502E02B4807FB00F5264882
:1015D000406800F48000B0F5800F01D1A94603E017
:1015E00068000321B0FBF1F93AE000F0CBF9814645
:1015F00036E000F0C7F9814632E01B48046A04F483
:101600004070B0F5807F05D104F0020010B14FF4B6
:10161000004918E004F44070B0F5007F07D112488B
:10162000406A00F0020010B149F640490BE004F4B2
:101630004070B0F5407F06D10B48006800F40030E0
:1016400008B14FF224490BE000F08CF906494968D3
:10165000C1F38131491C4900B0FBF1F900E000BF42
:1016600000BF4846BDE8F08700100240125B00084A
:10167000225B000800127A0000093D00F8B504461C
:1016800000260025207800F0010000286BD00027FC
:101690004348C06900F0805070B900BF4048C0693D
:1016A00040F080503E49C8610846C06900F0805053
:1016B000009000BF00BF01273A48006800F4807026
:1016C000B0B93848006840F4807036490860FFF7C8
:1016D0006BFE064606E0FFF767FE801B642801D913
:1016E0000320F8BD2F48006800F480700028F2D075
:1016F0002B48006A00F440752DB3A08800F44070B8
:10170000A84220D02648006A20F4407501202649CE
:101710000860002008602248056205F0010090B1D1
:10172000FFF742FE064608E0FFF73EFE801B41F24F
:101730008831884201D90320D3E71948006A00F0B4
:1017400002000028F0D01648006A20F4407061685A
:10175000084313490862012F04D10846C06920F0EC
:101760008050C86100BF207800F00200022807D135
:101770000B48406820F44040A1680843084948608D
:10178000207800F01000102807D10548406820F4A8
:10179000800061690843024948600020A1E7000019
:1017A00000100240007000404004424270B5044600
:1017B0000D460CB9012070BD5A48006800F00700C2
:1017C000A8420ED25748006820F007002843554928
:1017D00008600846006800F00700A84201D0012018
:1017E000E9E7207800F0020002281DD1207800F0FF
:1017F0000400042805D14C48406840F4E0604A49A0
:101800004860207800F00800082805D14648406864
:1018100040F46050444948604348406820F0F0007C
:10182000A168084340494860207800F0010078B37F
:101830006068012806D13C48006800F4003090B987
:101840000120B8E76068022806D13748006800F038
:10185000007040B90120AEE73348006800F0020094
:1018600008B90120A7E73048406820F0030061680C
:1018700008432D494860FFF797FD064609E0FFF74A
:1018800093FD801B41F28831884202D9032092E700
:1018900007E02548406800F00C006168B0EB810F5C
:1018A000EDD12048006800F00700A8420ED91D487D
:1018B000006820F0070028431A49086008460068BD
:1018C00000F00700A84201D0012074E7207800F062
:1018D0000400042807D11448406820F4E060E1685F
:1018E000084311494860207800F00800082808D112
:1018F0000D48406820F46050216940EAC1000A495F
:10190000486000F03FF808494968C1F30311074AED
:10191000515CC8400649086006480068FFF76AFD48
:10192000002048E70020024000100240245B00082D
:101930004800002040000020014800687047000077
:101940004800002000B5FFF7F7FF04494968C1F3DC
:101950000221034A515CC84000BD00000010024053
:10196000345B000800B5FFF7E7FF04494968C1F39D
:10197000C221034A515CC84000BD00000010024073
:10198000345B000870B500210022002400230020F1
:10199000134D696801F00C05F5B1042D02D0082D36
:1019A00019D101E00F4819E00F4DC1F38346AB5D3B
:1019B00001F4803555B10A4D6D68C5F340450B4EB5
:1019C000725D084D5D43B5FBF2F402E0084D03FB88
:1019D00005F4204602E000BF024800BF00BF70BD12
:1019E0000010024000127A00005B0008105B000843
:1019F00000093D00F8B504460CB90120F8BD207877
:101A000000F00100002878D0F848406800F00C0091
:101A100004280CD0F548406800F00C00082811D1CB
:101A2000F248406800F48030B0F5803F0AD1EF48BA
:101A3000006800F4003000285FD0606800285CD1A6
:101A40000120DBE700BF6068B0F5803F06D1E748C2
:101A5000006840F48030E549086028E0606858B9C3
:101A6000E248006820F48030E049086008460068D9
:101A700020F4802008601AE06068B0F5A02F0BD138
:101A8000DA48006840F48020D849086008460068B9
:101A900040F4803008600AE0D448006820F48030C8
:101AA000D24908600846006820F48020086000BF22
:101AB000606888B1FFF778FC054606E0FFF774FC24
:101AC000401B642801D9032098E7C848006800F447
:101AD00000300028F2D010E0FFF766FC054606E073
:101AE000FFF762FC401B642801D9032086E7BF484A
:101AF000006800F400300028F2D1207800F00200E5
:101B0000022857D1B948406800F00C0050B1B748DE
:101B1000406800F00C00082818D1B448406800F470
:101B2000803098B9B148006800F0020020B1206907
:101B3000012801D0012061E7AC48006820F0F800DE
:101B4000616940EAC100A949086033E02069E8B151
:101B50000120A7490860FFF727FC054606E0FFF7CC
:101B600023FC401B022801D9032047E79F48006857
:101B700000F002000028F2D09C48006820F0F80035
:101B8000616940EAC1009949086013E00020984962
:101B90000860FFF709FC054606E0FFF705FC401B5F
:101BA000022801D9032029E79048006800F00200CC
:101BB0000028F2D1207800F0080008282DD1A06973
:101BC000B8B101208B490860FFF7EEFB054606E03F
:101BD000FFF7EAFB401B022801D903200EE78348E8
:101BE000406A00F002000028F2D0012001F0E2FE7D
:101BF00013E000207F490860FFF7D6FB054606E0AA
:101C0000FFF7D2FB401B022801D90320F6E67748F4
:101C1000406A00F002000028F2D1207800F00400B1
:101C2000042873D100277148C06900F0805070B952
:101C300000BF6E48C06940F080506C49C8610846DA
:101C4000C06900F08050009000BF00BF01276A48C3
:101C5000006800F48070B0B96748006840F4807094
:101C600065490860FFF7A0FB054606E0FFF79CFB0F
:101C7000401B642801D90320C0E65F48006800F4D7
:101C800080700028F2D000BFE068012806D15748D4
:101C9000006A40F001005549086227E0E06858B941
:101CA0005248006A20F00100504908620846006A64
:101CB00020F00400086219E0E06805280BD14B48C9
:101CC000006A40F00400494908620846006A40F092
:101CD000010008620AE04548006A20F0010043491B
:101CE00008620846006A20F00400086200BFE0684D
:101CF000A0B1FFF759FB054609E0FFF755FB401B74
:101D000041F28831884202D9032077E622E0374841
:101D1000006A00F002000028EFD012E0FFF744FB59
:101D2000054608E0FFF740FB401B41F2883188423E
:101D300001D9032062E62D48006A00F00200002865
:101D4000F0D1012F05D12948C06920F080502749E2
:101D5000C86100BFE069C8B32448406800F00C00C7
:101D6000082860D0E069022848D100202049086690
:101D7000FFF71AFB054606E0FFF716FB401B02289B
:101D800001D903203AE61948006800F000700028E5
:101D9000F2D1206AB0F5803F07D11448406820F4A2
:101DA0000030A168084311494860D4E9080108439C
:101DB0000E49496821F4741108430C494860012018
:101DC0000B490866FFF7F0FA054607E03DE0FFF72C
:101DD000EBFA401B022801D903200FE603480068F4
:101DE00000F000700028F2D02FE000000010024048
:101DF000000042428004424200700040002014492A
:101E00000866FFF7D1FA054606E0FFF7CDFA401B5A
:101E1000022801D90320F1E50E48006800F00070A7
:101E20000028F2D111E0E069012800D1E6E5094877
:101E3000466806F48031206A814204D106F47011AC
:101E4000606A814201D00120D8E50020D6E500007B
:101E5000000042420010024010B50346002200205C
:101E6000024A02EB81021468A0B210BD006C00406F
:101E700010B503460020034800EB810094B20460D3
:101E800010BD0000006C00407047704710B504465C
:101E90002068006800F00100F0B12068406800F0A0
:101EA0000100C8B120684068C0F3800048B12046F6
:101EB000FFF7EBFF6FF004002168486004206074B6
:101EC00004E02046FFF7E0FF0120607420684068CE
:101ED00020F001002168486010BD000070B5044684
:101EE00000250CB9012070BD607C20B90020207451
:101EF000204600F053F802206074204600F06AF992
:101F000018B1042060740120EDE7204601F071FD56
:101F100018B1042060740120E5E72068406820F0D3
:101F2000070021684860A06828B11B48006820F0BD
:101F30000100194908601848001F006820F460700B
:101F4000A16808431449091F08606068401C08B173
:101F5000656809E00120FFF705FB05461DB904206F
:101F600060740120BFE76D1EC5F3034021688860DF
:101F7000A8B22168C860204601F058FD18B10420BD
:101F800060740120AFE70021E17301216173A17347
:101F9000012060740020A6E7306C004038B504468C
:101FA00013492068884222D1FFF7D6FA00BF1148B2
:101FB000C06940F000600F49C8610846C06900F080
:101FC0000060009000BF00BF01200B4908600022A4
:101FD00002210320FFF76EFA0320FFF75BFA03F0FC
:101FE00057FA45F2500201210448FFF741FF38BD7E
:101FF00000280040001002403C044242D4AA0020C5
:102000002DE9F04704460D46904600260027B146CC
:1020100004B115B90120BDE8F08700BF207C01287C
:1020200001D10220F7E70120207400BF0220607474
:10203000B8F1000F06D1E978E17369786173A97886
:10204000A1730BE0E87801F0C9FCE073687801F057
:10205000C5FC6073A87801F0C1FCA073A27B617B12
:10206000E07B01F04FFD2073207B2870204601F0BB
:102070002FFD06464FF46160B6FBF0F9B9F1180F79
:102080002FD91820B9FBF0F000EB4000C000C0EBE6
:102090004011C1EB0020A6EB00163146204601F0AE
:1020A0008AFD38B10420607400BF0020207400BF96
:1020B0000120B0E7204601F0FFFC0746781C80B104
:1020C000B7420ED20B4807443946204601F05CFD6A
:1020D00038B10420607400BF0020207400BF0120CC
:1020E00099E70120607400BF0020207400BF00BF8A
:1020F00091E70000805101002DE9F04704460D46AC
:1021000090460026002704B115B90120BDE8F087EC
:1021100000BF207C012801D10220F7E701202074B4
:1021200000BF02206074B8F1000F0BD128784FF483
:10213000616148436978C1EB011100EB8100A97826
:10214000461812E0287801F049FC4FF4616100FB69
:1021500001F9687801F042FCC0EB001009EB80093E
:10216000A87801F03BFC09EB00063146204601F05F
:1021700022FD38B10420607400BF0020207400BF2D
:102180000120C3E72068406820F00500216848600E
:10219000204601F091FC0746781C80B1B7420ED270
:1021A0000B4807443946204601F0EEFC38B10420C4
:1021B000607400BF0020207400BF0120A6E701204A
:1021C000607400BF0020207400BF00BF9EE70000C5
:1021D0008051010070B5044600250CB9012070BD86
:1021E0002068406820F0080021684860FFF7DCF8AC
:1021F000054607E0FFF7D8F8401BB0F57A7F01D914
:102200000320ECE72068406800F008000028F1D0C7
:102210000020E4E770B504460E4615461CB1A069DF
:10222000B0F5807F01D1012070BD94F8410028B93C
:10223000002084F84000204600F01FF804F1080157
:102240002068FEF7C7FA3146A2682068FEF7FEFA5A
:102250002946236BD4E90102FEF79AFAA1682068A7
:1022600050F8210040F00100A268216841F82200E6
:10227000012084F841000020D6E710B50446FEF79F
:1022800083FE10BD70B504462546681EB0F1807F00
:1022900001D301200FE0681E4FF0E02148610F21BB
:1022A0004FF0FF3002F07CF900204FF0E021886110
:1022B00007200861002070BD7047704710B50346C5
:1022C000002200BF93F83C00012801D1022010BD7C
:1022D000012083F83C0000BF22F0FF00CC6840EAF8
:1022E000040222F440708C6840EA040222F4806008
:1022F0004C6840EA040222F400600C6840EA0402E0
:1023000022F480500C6940EA040222F400504C6927
:1023100040EA040222F48040CC6940EA04021868D2
:10232000426400BF002083F83C0000BF00BFCEE73E
:1023300030B502460B4600BF92F83C00012801D19F
:10234000022030BD012082F83C0000BF022082F84C
:102350003D00106844681068816824F070041868B3
:10236000044310684460144D1068A84213D0134D04
:102370001068A8420FD01068B0F1804F0BD0104DFC
:102380001068A84207D00F4D1068A84203D00E4D28
:102390001068A84205D121F08001586801431068F7
:1023A0008160012082F83D0000BF002082F83C00DF
:1023B00000BF00BFC5E70000002C01400034014011
:1023C0000004004000080040000C0040014691F865
:1023D0003D00012801D001207047022081F83D0016
:1023E000164B0868984213D0154B086898420FD0D6
:1023F0000868B0F1804F0BD0124B0868984207D0A4
:10240000114B0868984203D0104B086898420CD1D1
:102410000868806800F00702062A0CD00868006887
:1024200040F001000B68186005E00868006840F0A3
:1024300001000B6818600020CEE70000002C01406E
:10244000003401400004004000080040000C00403F
:10245000704710B5044620680069C0F34000D8B149
:102460002068C068C0F34000B0B16FF0020021687E
:102470000861012020772068806900F0030018B10E
:102480002046FFF7E5FF05E0204600F09BF92046D7
:1024900000F01AFB0020207720680069C0F380005C
:1024A000D8B12068C068C0F38000B0B16FF00400FC
:1024B00021680861022020772068806900F440705C
:1024C00018B12046FFF7C4FF05E0204600F07AF976
:1024D000204600F0F9FA0020207720680069C0F358
:1024E000C000D8B12068C068C0F3C000B0B16FF0C0
:1024F000080021680861042020772068C06900F086
:10250000030018B12046FFF7A3FF05E0204600F0C6
:1025100059F9204600F0D8FA002020772068006999
:10252000C0F30010D8B12068C068C0F30010B0B18B
:102530006FF0100021680861082020772068C069CA
:1025400000F4407018B12046FFF782FF05E02046F6
:1025500000F038F9204600F0B7FA00202077206814
:10256000006900F0010058B12068C06800F0010067
:1025700030B16FF0010021680861204600F0A5FA33
:1025800020680069C0F3C01058B12068C068C0F36B
:10259000C01030B16FF08000216808612046FFF75D
:1025A0008BFE20680069C0F3801058B12068C068B5
:1025B000C0F3801030B16FF0400021680861204600
:1025C00000F084FA20680069C0F3401058B1206818
:1025D000C068C0F3401030B16FF02000216808617E
:1025E0002046FFF76AFE10BD10B586B004460020F5
:1025F00002900390049005904C492068884218D1BD
:1026000000BF4B48806940F0040049498861084692
:10261000806900F00400019000BF00BF081502901F
:10262000022003900320059002A94248FEF704FD12
:102630007AE02068B0F1804F17D100BF3C48806934
:1026400040F004003A4988610846806900F00400BF
:10265000019000BF00BF022002900390032005906C
:1026600002A93448FEF7E8FC5EE03349206888425E
:1026700018D100BF2E48806940F008002C498861BD
:102680000846806900F00800019000BF00BF0120EB
:102690000290022003900320059002A92748FEF72C
:1026A000CBFC41E026492068884221D100BF204868
:1026B000806940F020001E4988610846806900F06A
:1026C0002000019000BF00BF4FF400500290022094
:1026D00003900320059002A91A48FEF7ADFC00BF45
:1026E0001949486840F0E06040F4805048601BE0C1
:1026F00016492068884217D100BF0D48806940F014
:1027000010000B4988610846806900F010000190B4
:1027100000BF00BF402002900220039003200590DC
:1027200002A90B48FEF788FC06B010BD002C014042
:10273000001002400008014000040040000C01406D
:102740000008004000140140000001400034014036
:10275000001001402DE9F04104460E4615460027C1
:1027600000BF94F83C00012802D10220BDE8F081AE
:10277000012084F83C0000BF35B1042D09D0082D9C
:102780000CD00C2D14D10EE03146206801F008FB6E
:1027900010E03146206801F03BFB0BE03146206839
:1027A00001F074FB06E03146206801F0ABFB01E06C
:1027B000012700BF00BF00BF002084F83C0000BF1D
:1027C0003846D3E710B5044613492068884203D140
:1027D000124802F037FB1EE011492068884203D1FD
:1027E000104802F02FFB16E00F492068884203D101
:1027F0000E4802F027FB0EE00D492068884203D105
:102800000C4802F01FFB06E02068B0F1804F02D1B7
:10281000094802F017FB10BD002C014068AE0020F3
:102820000034014098AE002000040040C8AE0020F3
:1028300000080040F8AE002028AF002010B5044684
:102840000CB9012010BD94F83D0028B9002084F88F
:102850003C00204600F026F8022084F83D00211DAF
:10286000206801F03DFA012084F8460000BF84F89A
:102870003E0001213F2001554020015541200155D6
:1028800000BF00BF012084F84200432001554420CE
:1028900001554520015500BF012084F83D0000206E
:1028A000D0E7000038B5044643492068884216D175
:1028B00000BF4248806940F4006040498861084692
:1028C000806900F40060009000BF00BF0022022178
:1028D0001B20FEF7EFFD1B20FEF7DCFD6AE0206801
:1028E000B0F1804F16D100BF3448C06940F00100FC
:1028F0003249C8610846C06900F00100009000BF7D
:1029000000BF002202211C20FEF7D4FD1C20FEF790
:10291000C1FD4FE02A492068884216D100BF2748F0
:10292000C06940F002002549C8610846C06900F04E
:102930000200009000BF00BF002202211D20FEF710
:10294000B9FD1D20FEF7A6FD34E01E49206888422F
:1029500016D100BF1948C06940F004001749C8618A
:102960000846C06900F00400009000BF00BF0022CC
:1029700002211E20FEF79EFD1E20FEF78BFD19E0B2
:1029800011492068884215D100BF0C48806940F485
:1029900000500A4988610846806900F400500090A0
:1029A00000BF00BF002202212E20FEF783FD2E2053
:1029B000FEF770FD38BD0000002C01400010024001
:1029C00000040040000800400034014070B5044697
:1029D0000D46002635B1042D0BD0082D10D00C2D3E
:1029E0001CD114E02068C06820F002002168C86093
:1029F00016E02068C06820F004002168C8600FE07D
:102A00002068C06820F008002168C86008E02068DD
:102A1000C06820F010002168C86001E0012600BFF6
:102A200000BF002E4AD100222946206801F0A6F9F5
:102A300023492068884203D022492068884201D176
:102A4000012000E0002090B100BF2068006A41F240
:102A50001111084050B92068006A8910084028B94F
:102A60002068406C20F400402168486400BF00BF2B
:102A70002068006A41F21111084050B92068006ACC
:102A80008910084028B92068006820F001002168FA
:102A9000086000BF1DB9012084F83E000EE0042D3F
:102AA00003D101213F20015508E0082D03D1012168
:102AB0004020015502E0012141200155304670BD02
:102AC000002C014000340140704770477047704748
:102AD00070B50446002520684069C0F3C01594F81D
:102AE0004100212817D1B5B100BF00BF21681431C2
:102AF00051E8001F21F080002168143141E80002F4
:102B0000002AF3D100BFA06B10B1A06BFDF7D6FE79
:102B1000204601F005FB20684069C0F3801594F859
:102B20004200222817D1B5B100BF00BF216814317F
:102B300051E8001F21F040002168143141E80002F3
:102B4000002AF3D100BFE06B10B1E06BFDF7B6FED9
:102B5000204601F09FFA002070BD70472DE9F84F24
:102B60000446206805682068C668206847694FF0F9
:102B70000009CA4605F00F09B9F1000F0AD105F0A6
:102B8000200038B106F0200020B1204601F0DBFA29
:102B9000BDE8F88FB9F1000F7BD007F0010018B93C
:102BA00006F49070002874D005F0010030B106F4EE
:102BB000807018B1606C40F00100606405F00400A2
:102BC00030B107F0010018B1606C40F002006064A1
:102BD00005F0020030B107F0010018B1606C40F060
:102BE0000400606405F0080048B106F0200010B948
:102BF00007F0010018B1606C40F008006064606C80
:102C0000002845D005F0200028B106F0200010B1C2
:102C1000204601F098FA20684069C0F3801A606C81
:102C200000F0080010B9BAF1000F2CD0204601F0D6
:102C300031FA2068406900F0400000B300BF00BFD7
:102C40002168143151E8001F21F04000216814313F
:102C500041E80002002AF3D100BFE06B50B1774891
:102C6000E16B4863E06BFDF755FE88B1E06B416BAB
:102C700088470DE02046FFF770FF09E009E0204695
:102C8000FFF76BFF04E02046FFF767FF002060645A
:102C90007EE7206B012877D105F01000002873D063
:102CA00006F010000028FAD000BF00200090206835
:102CB0000068009020684068009000BF00BF206856
:102CC000406900F0400000285FD0E06B0068406879
:102CD0001FFA80F8B8F1000F55D0A08D404552DDA5
:102CE000A4F82E80E06B8069202843D000BF00BF8D
:102CF00021680C3151E8001F21F4807021680C31EB
:102D000041E80002002AF3D100BF00BF00BF2168E4
:102D1000143151E8001F21F001002168143141E80D
:102D20000002002AF3D100BF00BF00BF21681431A8
:102D300051E8001F21F040002168143141E80002F1
:102D4000002AF3D100BF202084F842000020206335
:102D500000BF00BF21680C3151E8001F21F01000B6
:102D600021680C3141E80002002AF3D100BFE06B7A
:102D7000FDF7A4FD02206063A08DE28D801A81B270
:102D80002046FFF7A4FE03E742E0A08DE18D401A44
:102D90001FFA80F8E08DD0B3B8F1000F37D000BF34
:102DA00000BF21680C3151E8001F21F490702168A8
:102DB0000C3141E80002002AF3D100BF00BF00BF80
:102DC0002168143151E8001F21F0010021681431FD
:102DD00041E80002002AF3D100BF202084F842001D
:102DE0000020206300BF00BF21680C3151E8001FA4
:102DF00021F0100021680C3141E80002002AF3D1D3
:102E000000BF0220606341462046FFF760FEBFE638
:102E100005F0800030B106F0800018B1204601F0C6
:102E2000F3FAB5E605F0400030B106F0400018B105
:102E3000204601F065F9ABE600BFA9E6593F00085E
:102E400010B504460CB9012010BDA06900B100E026
:102E500000BF94F8410028B9002084F840002046C3
:102E600000F02AF8242084F841002068C06820F48B
:102E700000502168C860204601F0E4F9206800692C
:102E800020F49040216808612068406920F02A0001
:102E9000216848612068C06840F400502168C8601B
:102EA00000206064202084F8410084F84200002063
:102EB000606300BFC8E7000010B586B0044600207C
:102EC00002900390049005906A49206888423FD19F
:102ED00000BF6948806940F48040674988610846BE
:102EE000806900F48040019000BF00BF00BF084629
:102EF000806940F0080088610846806900F0080099
:102F0000019000BF00BF40200290022003900320E8
:102F1000059002A95948FEF78FF880200290002002
:102F20000390049002A95548FEF786F800BF544963
:102F3000486840F0E06040F00400486000BF0022B4
:102F400002212520FEF7B6FA2520FEF7A3FA8EE02F
:102F50004C492068884236D100BF4748C06940F4D8
:102F600000304549C8610846C06900F4003001904E
:102F700000BF00BF00BF0846806940F004008861C0
:102F80000846806900F00400019000BF00BF0420E3
:102F90000290022003900320059002A93A48FEF710
:102FA0004BF80820029000200390049002A93648B4
:102FB000FEF742F8002211462620FEF77BFA262073
:102FC000FEF768FA53E03149206888424FD100BFCC
:102FD0002948C06940F480202749C8610846C06973
:102FE00000F48020019000BF00BF00BF0846806948
:102FF00040F0080088610846806900F008000190F0
:1030000000BF00BF08150290022003900320059026
:1030100002A91A48FEF710F84FF400600290002051
:103020000390049002A91548FEF706F818481949BC
:103030000860002048600021164881608021C1603E
:103040000021016141618161C161FDF703FF08B1A8
:10305000FDF79BFB00BF0F48E063446200BF002206
:1030600011462720FEF726FA2720FEF713FA06B0AE
:1030700010BD00000038014000100240000C01406B
:1030800000000140004400400008014000480040AA
:103090003000024028AD002070B504460D461646AB
:1030A00094F8420020280BD105B10EB9012070BD63
:1030B0000020206332462946204601F041F9F6E718
:1030C0000220F4E7704770472DE9F84F04460E469A
:1030D000174699464FF0000A94F8410020284AD13B
:1030E00006B117B90120BDE8F88F002060642120E7
:1030F00084F84100FEF758F98246A784E784A06867
:10310000B0F5805F04D1206910B90025B04602E017
:1031100035464FF000081BE0534600228021204630
:10312000CDF8009001F0A0F908B10320DBE745B924
:10313000B8F80000C0F308002168486008F10208F0
:1031400003E02878216848606D1CE08C401EE08414
:10315000E08C0028E0D15346002240212046CDF8E3
:10316000009001F081F908B10320BCE7202084F829
:1031700041000020B7E70220B5E7704700BFFEE737
:1031800008B500BF0A48406940F00100084948619D
:103190000846406900F00100009000BF00BF002217
:1031A00011460D20FEF786F90D20FEF773F908BDD4
:1031B0000010024000B587B01C216846FDF7FEF8FC
:1031C0004FF020401B4908601B484860062088607B
:1031D00000211848C1600161102141610021816115
:1031E000C161016241624FF4805181620021C1627C
:1031F000016341638163002000900F200190032050
:1032000002900020039010200490112005900020CF
:103210000690002269460748FEF7FCFF08B1FDF75B
:10322000B4FA0648C06940F480600449C86107B038
:1032300000BD000080AA0020040100A000000140A1
:1032400000B585B00020019002900390049000BF6B
:103250008E48806940F040008C498861084680694A
:1032600000F04000009000BF00BF00BF084680692A
:1032700040F0100088610846806900F0100000905E
:1032800000BF00BF00BF0846806940F08000886131
:103290000846806900F08000009000BF00BF00BFBA
:1032A0000846806940F0040088610846806900F0A3
:1032B0000400009000BF00BF00BF0846806940F0D6
:1032C000080088610846806900F00800009000BF8F
:1032D00000BF00BF0846806940F4807088610846DE
:1032E000806900F48070009000BF00BF00BF0846F6
:1032F000806940F0200088610846806900F0200065
:10330000009000BF00BF002204216148FEF746F88C
:10331000012220215E48FEF741F801220F215D487D
:10332000FEF73CF8002230215A48FEF737F8002219
:103330004FF400615848FEF731F8002244F2C01102
:103340005648FEF72BF80122D1035448FEF726F821
:1033500000224FF480715248FEF720F801225102FA
:103360004F48FEF71BF80420019001200290022034
:103370000390049001A94648FDF75EFE18200190D5
:10338000002002900220039001A94148FDF754FE5D
:10339000202001900120029003900220049001A9B6
:1033A0003B48FDF749FE4020019000200290039029
:1033B00001A93748FDF740FE4FF4F8600190002066
:1033C0000290039001A93448FDF736FE3F2001909A
:1033D00001200290002003900220049001A92D48B2
:1033E000FDF72AFE012001900020029002200390A8
:1033F00001A92C48FDF720FE102001900220029028
:103400000320049001A92748FDF716FE4FF4006041
:10341000019001200290002003900220049001A955
:103420001D48FDF709FE4FF48050019002200290E4
:103430000320049001A91A48FDF7FEFD4CF2C010CC
:10344000019001200290002003900220049001A925
:103450001248FDF7F1FD4FF48070019001200290B9
:1034600003900320049001A90D48FDF7E5FD4FF4FA
:10347000007001901120029000200390032004901E
:1034800001A90748FDF7D8FD05B000BD00100240B6
:103490000018014000100140001C014000200140C4
:1034A000000C0140000801401FB5002400200390DB
:1034B000029000BF3548C06940F000603349C861E0
:1034C0000846C06900F00060019000BF00BF00BF67
:1034D0000846C06940F08050C8610846C06900F0E5
:1034E0008050019000BF00BFFEF736F80121284848
:1034F000FEF7B2FC84B22748254908604FF0FF3040
:103500004860002122488160FEF7E8FC08B1FDF721
:103510003CF916208DF80C0010208DF80D000020CD
:103520008DF80E00012203A91948FEF7E5FD08B148
:10353000FDF72BF906208DF8080003208DF809000F
:1035400023208DF80A0000208DF80B00012202A92B
:103550000F48FEF755FD08B1FDF717F945F2500089
:1035600084420AD00020202111231722CDE9001027
:1035700003214FF4FD6002F059F805480068006827
:1035800040F001000249096808601FBD00100240B8
:10359000D4AA00200028004000B591B000200F9070
:1035A00010901C2108A8FCF709FF20216846FCF7B1
:1035B00005FF244824490860112048600021224862
:1035C00081604FF6FE71C16000210161416181613E
:1035D000FFF734F908B1FDF7D8F800200F901090EC
:1035E0000FA91948FEF7A4FE08B1FDF7CEF8302068
:1035F0000890002009900A900B900C900D900E906E
:10360000082208A91048FFF7A5F808B1FDF7BDF892
:103610000020009001900290039004904FF400501D
:1036200005900020079069460748FEF747FE08B15D
:10363000FDF7ABF80448FEF7C9FE0348FEF7D4FFD8
:1036400011B000BD002C0140E8AA002000B589B0EF
:103650000020079008901C216846FCF7AFFE4FF051
:103660008040194908601120486000211648816097
:103670004FF6FE71C160002101618161FFF7DEF844
:1036800008B1FDF782F800200790089007A90E48BE
:10369000FEF74EFE08B1FDF778F8302000900020CC
:1036A000019002900490042269460748FFF752F8FF
:1036B00008B1FDF76AF80448FEF788FE0248FEF7F5
:1036C00093FF09B000BD000030AB002000B589B009
:1036D0000020079008901C216846FCF76FFE1948EF
:1036E00019490860112048600021174881604FF691
:1036F000FE71C160002101618161FFF79FF808B18F
:10370000FDF743F800200790089007A90E48FEF740
:103710000FFE08B1FDF739F830200090002001902D
:1037200002900490082269460748FFF713F808B191
:10373000FDF72BF80448FEF749FE0348FEF754FF57
:1037400009B000BD0004004078AB002000B589B08E
:103750000020079008901C216846FCF72FFE1948AE
:1037600019490860112048600021174881604FF610
:10377000FE71C160002101618161FFF75FF808B14E
:10378000FDF703F800200790089007A90E48FEF700
:10379000CFFD08B1FCF7F9FF302000900020019028
:1037A00002900490042269460748FEF7D3FF08B14F
:1037B000FCF7EBFF0448FEF709FE0348FEF714FF91
:1037C00009B000BD00080040C0AB002000B591B0BA
:1037D00000200F9010901C2108A8FCF7EFFD20217D
:1037E0006846FCF7EBFD2448244908601120486036
:1037F0000021224881604FF6FE71C1600021016105
:1038000041618161FFF71AF808B1FCF7BEFF0020A3
:103810000F9010900FA91948FEF78AFD08B1FCF728
:10382000B4FF30200890002009900A900B900C9073
:103830000D900E90002208A91048FEF78BFF08B1EA
:10384000FCF7A3FF002000900190029003900490E9
:103850004FF4005005900020079069460748FEF796
:103860002DFD08B1FCF791FF0448FEF7AFFD0348BA
:10387000FEF7BAFE11B000BD0034014008AC0020D4
:1038800010B50B480B4908604FF4E1304860002147
:1038900008488160C16001610C21416100218161A2
:1038A000C161FFF7CDFA08B1FCF76FFF10BD000052
:1038B0000038014050AC002010B50B480B4908609F
:1038C0004FF4E1304860002108488160C160016127
:1038D0000C21416100218161C161FFF7B1FA08B19A
:1038E000FCF753FF10BD00000044004098AC0020DE
:1038F00010B51148114908604FF4E13048600021CB
:103900000E488160C16001610C214161002181612B
:10391000C161FFF795FA08B1FCF737FF0748006867
:10392000C06840F0100005490968C8601E220449BB
:103930000248FFF7B1FB10BD00480040E0AC00209A
:1039400070AF002000BFFEE700BFFEE710B50446E1
:10395000207E16498978884200D010BD617E1348C8
:10396000C078814200D0F8E72C20005D0F4909792A
:10397000884200D0F1E7A07E6071E07EA07104F182
:103980001C0000F0FDFEA06004F1200000F0F8FE35
:10399000E06004F1240000F0F3FE206104F128004F
:1039A00000F0EEFE606100BFD7E7000058AF0020D6
:1039B0007047000008B508490968C9084FF47A72D1
:1039C000B1FBF2F14143009100BF00BF00994A1ED4
:1039D00000920029F9D108BD48000020014600BF2F
:1039E000080900EB8000420001F00F001044C0B253
:1039F000704770B504460025FDF7D6FC054607E084
:103A0000FDF7D2FC401BB0F57A7F01D9032070BDD1
:103A10002068406800F020000028F1D0206840684D
:103A200040F01000216848600020F0E770B50446BF
:103A300000252068406820F0100021684860FDF7EC
:103A4000B3FC054607E0FDF7AFFC401BB0F57A7FFD
:103A500001D9032070BD2068406800F020000028D4
:103A6000F1D00020F6E7000010B51248FEF70EFA7C
:103A700010480068406800F0010048B101F008FDFE
:103A80000C480068406820F001000A490968486055
:103A900008480068406820F004000649096848604A
:103AA00000BF044800684068C0F340100028F8D008
:103AB00010BD0000D4AA002001460022002308689F
:103AC000006A82B20868406A83B243EA02407047E3
:103AD00030B5014600220023002400200D68AD69A6
:103AE000AAB20D68ED69ACB20D68AD69ABB29A428D
:103AF00005D00D68ED6963F31F45284601E044EAEF
:103B0000024030BDF0B504460B460021002504F507
:103B1000FA61032B1BD2C3EBC30000EB0310092691
:103B2000B0FBF6F01044001D4618481E06EB900648
:103B30006427B0FBF7F0361A481EBF00B0FBF7F061
:103B400030440726B0FBF6F706FB17051AE0C3EB77
:103B5000C30000EB03100926B0FBF6F01044001D73
:103B6000084400EB91006426B1FBF6F6801B4FF48D
:103B7000C876B1FBF6F63044801E0726B0FBF6F798
:103B800006FB1705E8B2F0BD70B504460D460026E9
:103B90002046FFF72EFF08B101260AE0280C216815
:103BA0000862A8B2216848622046FFF73FFF00B1D3
:103BB0000126304670BD70B504460D4600262046ED
:103BC000FFF717FF08B101260AE0280C2168886179
:103BD000A8B22168C8612046FFF728FF00B101267E
:103BE000304670BD7047002104E00023821C53540E
:103BF0004A1CD1B20A29F8DB0021017041707047DC
:103C000010B5FDF7D7FB10BD00B595B028210BA866
:103C1000FCF7D4FB142106A8FCF7D0FB182168465A
:103C2000FCF7CCFB05200B904FF480300C9000206B
:103C30000D9001200E900F9002201290C10313915D
:103C40004FF4E01114910BA8FDF7D4FE08B1FCF776
:103C50009CFD0F20069002200790002008904FF452
:103C60008060099000200A90022106A8FDF79EFDC1
:103C700008B1FCF78AFD012000900002019068461F
:103C8000FDF7FCFC08B1FCF780FD15B000BD7047E6
:103C900010B50248FEF7DDFB10BD0000E8AA0020C9
:103CA00010B50248FEF7D5FB10BD000030AB002078
:103CB00010B50248FEF7CDFB10BD000078AB002028
:103CC00010B50248FEF7C5FB10BD0000C0AB0020D8
:103CD00010B50248FEF7BDFB10BD000008AC002087
:103CE00010B50268204B98420ED0204B98420BD062
:103CF000B0F1804F08D01E4B984205D01D4B984222
:103D000002D01D4B984203D122F070024B681A4337
:103D1000154B98420ED0154B98420BD0B0F1804F06
:103D200008D0134B984205D0124B984202D0124B48
:103D3000984203D122F44072CB681A4322F08003E8
:103D40004C6943EA040202608B68C3620B688362B9
:103D5000054B984202D0054B984201D10B69036391
:103D60000123436110BD0000002C014000340140DC
:103D70000004004000080040000C004030B501F095
:103D80001F05012404FA05F3046A9C430462046AD3
:103D900001F01F0502FA05F52C43046230BD000056
:103DA00030B5026A056A25F0010505624368846939
:103DB00024F0700424F003040D682C4322F0020266
:103DC0008D682A43104DA84200D103E00F4DA84250
:103DD00006D100BF22F00802CD682A4322F0040277
:103DE000094DA84202D0094DA84207D123F480739F
:103DF00023F400734D692B438D692B434360846129
:103E00004D684563026230BD002C01400034014022
:103E100030B5026A056A25F01005056243688469B9
:103E200024F4E04424F440740D6844EA052422F0AC
:103E300020028D6842EA0512124DA84200D103E02B
:103E4000114DA84207D100BF22F08002CD6842EA9E
:103E5000051222F040020B4DA84202D00A4DA842A2
:103E600009D123F4806323F400634D6943EA850399
:103E70008D6943EA8503436084614D68856302620E
:103E800030BD0000002C01400034014030B5026A12
:103E9000056A25F4807505624368C46924F07004DE
:103EA00024F003040D682C4322F400728D6842EA6A
:103EB0000522124DA84200D103E0114DA84207D1BE
:103EC00000BF22F40062CD6842EA052222F480623B
:103ED0000A4DA84202D00A4DA84209D123F48053CA
:103EE00023F400534D6943EA05138D6943EA051332
:103EF0004360C4614D68C563026230BD002C01405F
:103F00000034014030B5036A056A25F48055056226
:103F10004468C26922F4E04222F440720D6842EA29
:103F2000052223F400538D6843EA0533084DA84267
:103F300002D0084DA84204D124F480444D6944EADB
:103F400085144460C2614D680564036230BD0000A1
:103F5000002C01400034014070B505466C6A002019
:103F6000E085E0842046FEF7F8FD70BD70B506469A
:103F70000025746A20684069C0F3C01594F84100B8
:103F8000212805D125B10020E084204600F0C8F8A2
:103F900020684069C0F3801594F84200222805D1BA
:103FA00025B10020E085204600F074F8606C40F0F8
:103FB000100060642046FEF7D0FD70BD70B5054668
:103FC0006C6A2868006800F02000002842D1E08573
:103FD00000BF00BF21680C3151E8001F21F4807040
:103FE00021680C3141E80002002AF3D100BF00BF74
:103FF00000BF2168143151E8001F21F00100216841
:10400000143141E80002002AF3D100BF00BF00BF15
:104010002168143151E8001F21F04000216814315B
:1040200041E80002002AF3D100BF202084F84200BA
:10403000206B01280ED100BF00BF21680C3151E870
:10404000001F21F0100021680C3141E80002002A15
:10405000F3D100BF00206063206B012804D1A18D43
:104060002046FEF734FD02E02046FFF72BF870BD36
:1040700070B505466C6A01206063206B012805D18C
:10408000A08D41082046FEF722FD02E02046FFF702
:104090001AF870BD00BF00BF02680C3252E8002F52
:1040A00022F4907102680C3242E80013002BF3D125
:1040B00000BF00BF00BF0268143252E8002F22F098
:1040C00001010268143242E80013002BF3D100BF53
:1040D000016B01290ED100BF00BF02680C3252E80B
:1040E000002F22F0100102680C3242E80013002B6E
:1040F000F3D100BF202180F84210002101637047F6
:1041000010B504462068C06820F040002168C860EF
:10411000202084F841002046FFF72FF8002010BD32
:1041200000BF00BF02680C3252E8002F22F0C0012D
:1041300002680C3242E80013002BF3D100BF2021AB
:1041400080F841107047F8B5044694F842002228E0
:1041500075D1A068B0F5805F0CD1206950B90025F9
:10416000A66A20684068C0F308003080A06A801CFE
:10417000A06215E0A56A0026A068B0F5805F03D0B4
:10418000A06828B9206918B920684068287004E040
:104190002068406800F07F002870A06A401CA06280
:1041A000E08D401E80B2E085002846D12068C068BE
:1041B00020F020002168C8602068C06820F480706A
:1041C0002168C8602068406920F0010021684861CA
:1041D000202084F8420000206063206B012826D153
:1041E0000020206300BF00BF21680C3151E8001F90
:1041F00021F0100021680C3141E80002002AF3D1BF
:1042000000BF2068006800F0100010280AD100BF2D
:1042100000200090206800680090206840680090AE
:1042200000BF00BFA18D2046FEF751FC02E02046F2
:10423000FEF748FF0020F8BD01E00020FBE7022068
:10424000F9E7000070B504462168096921F440517E
:10425000E2681143226811612269A1681143626911
:1042600041EA02052168C96841F20C629143294381
:104270002268D1602168496921F44071A269114323
:10428000226851612D4A2168914202D1FDF76AFBF3
:1042900001E0FDF757FB00EBC00101EB0011626884
:1042A0009200B1FBF2F100EBC00202EB0012636876
:1042B0009B00B2FBF3F26423B2FBF3F202EBC20306
:1042C00003EB0212A1EB8201322202EB0111642204
:1042D000B1FBF2F101F0F00100EBC00202EB0012C1
:1042E00063689B00B2FBF3F26423B2FBF3F201EBD1
:1042F000021200EBC00101EB001163689B00B1FBEF
:10430000F3F100EBC00303EB00136668B600B3FBE8
:10431000F6F36426B3FBF6F303EBC30606EB0313D5
:10432000A1EB8301322303EB01116423B1FBF3F111
:1043300001F00F0111442268916070BD0038014006
:1043400077B581B0044615460298A062A585002085
:104350006064222084F842002848E16B8862284883
:10436000E16BC8622748E16B08630020E16B48639A
:1043700002AE32682368191D2B46E06BFCF7B0FDD6
:1043800000BF00200090206800680090206840680E
:10439000009000BF00BF206970B100BF00BF21685E
:1043A0000C3151E8001F41F4807021680C3141E864
:1043B0000002002AF3D100BF00BF00BF2168143102
:1043C00051E8001F41F001002168143141E800026A
:1043D000002AF3D100BF00BF00BF2168143151E8AB
:1043E000001F41F040002168143141E80002002A1A
:1043F000F3D100BF002004B070BD0000BD3F000835
:10440000714000086D3F0008014691F841002128E5
:1044100028D18868B0F5805F0BD1086948B90A6A6D
:104420001088C0F308000B685860086A801C086296
:1044300005E00B6A581C086218780B685860C88C35
:10444000401E80B2C88458B90868C06820F0800057
:104450000B68D8600868C06840F040000B68D860FE
:10446000002070470220FCE72DE9F04104460D468C
:1044700017469846069E34E0701C88B32EB1FCF7B0
:1044800093FFA0EB0800B0422BD900BF00BF21680A
:104490000C3151E8001F21F4D07021680C3141E843
:1044A0000002002AF3D100BF00BF00BF2168143111
:1044B00051E8001F21F001002168143141E8000299
:1044C000002AF3D100BF202084F8410084F8420084
:1044D00000BF002084F8400000BF0320BDE8F08149
:1044E000FFE7206800682840A84201D1012000E0D1
:1044F0000020B842C0D00020F0E7000010B502480C
:10450000FEF72CFB10BD000050AC002010B5024897
:10451000FEF724FB10BD000098AC002038B5002445
:104520001748FEF71BFB164800680068C0F300142C
:10453000FCB100BF002000901148006800680090A6
:104540000F4800684068009000BF00BF0C4800683A
:1045500005680B48006845680948FEF7B9FA09483C
:1045600000684568C5F11E00074948700846FFF716
:10457000EDF91E22044918310148FEF78DFD38BDC2
:10458000E0AC002028AD002058AF002000BFFEE7BF
:1045900002480068C0F30220704700000CED00E004
:1045A00010B5002804DB0A07130E054A135406E071
:1045B0000A07140E034A00F00F031B1FD45410BD4A
:1045C00000E400E018ED00E000BF704700BF704756
:1045D00010B5044615E000BF012204210A48FCF78B
:1045E000DDFE00BFFA20FCF7C9FC00BF0022042159
:1045F0000548FCF7D3FE00BFFA20FCF7BFFC601EA5
:10460000C4B2002CE7DC10BD001801402DE9F041D8
:1046100006460D4690461F462420FBF700FE044642
:1046200014B90020BDE8F08131462046FBF7A2FE18
:1046300000202061276265612076E061CDB1E869E4
:1046400098B10D49E86908600DE00B480068006901
:1046500028B10948006800690749086003E0064876
:104660000068046100E0F0E700E0EC61287E401C97
:1046700028762046D6E700005C0000202DE9F041B6
:1046800007460D46164600F05BF9A02000F020F921
:1046900000F09EF9384600F01BF900F099F900246B
:1046A00006E0285D00F014F900F092F9601CC4B235
:1046B000B442F6DB00F06CF90A20FCF75FFCBDE8C1
:1046C000F0812DE9F04107460C46154600F038F917
:1046D000A02000F0FDF800F07BF9384600F0F8F873
:1046E00000F076F900F02CF9A12000F0F1F800F0CC
:1046F0006FF9002606E000F0C1F8A05500F06EF852
:10470000701CC6B2681EB042F5DC00F0B7F8691E36
:10471000605400F093F800F03BF9BDE8F0811CB55F
:104720000020019055200090012201A9FF20FFF7F1
:10473000C8FF9DF80400552801D100201CBD0122AE
:104740006946FF20FFF79AFF012201A9FF20FFF72A
:10475000B8FF9DF80400552801D10020EEE70120A4
:10476000ECE7000000BF054A126802F04002002A90
:10477000F9D0C2B2014B1B1D1A60704700380140CE
:104780000146002004E00A5C044B1A54421CD0B2DB
:104790000428F8DB0148006870470000640000202E
:1047A00001460022002007E00A4B53F8213033F87D
:1047B000103003B1521C401C074B53F82130834288
:1047C000F2D864205043044B53F82130B0FBF3F08F
:1047D00080B2704708000020F05A000810B500BFF2
:1047E00000224FF400711148FCF7D8FD00BF00F023
:1047F0001FF800BF012211020C48FCF7CFFD00BFDB
:1048000000F016F800BF00224FF480710748FCF753
:10481000C5FD00BF00F00CF800BF012251020348A3
:10482000FCF7BCFD00BF00F003F810BD000C014018
:1048300010B5022000F0F4FF10BD000010B500BF5D
:10484000012251020C48FCF7A9FD00BFFFF7F0FF61
:1048500000BF012211020848FCF7A0FD00BFFFF7CE
:10486000E7FF00BF00224FF480710348FCF796FD7C
:1048700000BFFFF7DDFF10BD000C014070B5002444
:1048800000251EE06006040E00BF012211020F4841
:10489000FCF784FD00BFFFF7CBFF4FF400710B481E
:1048A000FCF76AFD08B1601CC4B200BF00224FF4DF
:1048B00080710648FCF772FD00BFFFF7B9FF681C66
:1048C000C5B2082DDEDB204670BD0000000C0140A3
:1048D00070B50446002526E000BFE00928B101229A
:1048E00051021648FCF75AFD05E000224FF4007112
:1048F0001248FCF753FD00BFFFF79AFF00BF0122EB
:1049000011020E48FCF74AFD00BFFFF791FF00BF00
:1049100000224FF480710948FCF740FD00BF60069B
:10492000040E681CC5B2082DD6DB00BF012251025F
:104930000248FCF733FD00BF70BD0000000C0140D1
:1049400010B500BF012251021048FCF727FD00BF3F
:1049500000BF012211020D48FCF720FD00BFFFF748
:1049600067FF00BF00224FF400710848FCF716FDF6
:1049700000BFFFF75DFF00BF00224FF480710348C6
:10498000FCF70CFD00BFFFF753FF10BD000C01400A
:1049900010B500BF00224FF400710C48FCF7FEFC7C
:1049A00000BFFFF745FF00BF012211020748FCF7D7
:1049B000F5FC00BFFFF73CFF00BF01225102034896
:1049C000FCF7ECFC00BFFFF733FF10BD000C01400B
:1049D00070B50024002500BF012251021548FCF7E4
:1049E000DDFC00BFFFF724FF00BF012211021148C8
:1049F000FCF7D4FC00BFFFF71BFF07E0601CC4B24C
:104A0000FA2C03DDFFF7C4FF012506E04FF4007127
:104A10000848FCF7B1FC0028F0D100BF00BF00221D
:104A20004FF480710348FCF7B9FC00BFFFF700FFAB
:104A3000284670BD000C014070B505460024224890
:104A4000007868B301212148FCF796FC01280BD0BF
:104A500010211F48FCF790FC012805D008211C48B4
:104A6000FCF78AFC01281BD10A20FCF787FA0020FA
:104A70001549087001211548FCF77EFC012800D17A
:104A8000052410211248FCF777FC012800D10124ED
:104A900008210F48FCF770FC012813D1022411E013
:104AA00001210A48FCF768FC60B910210848FCF7AE
:104AB00063FC38B908210648FCF75EFC10B90120F8
:104AC00001490870204670BD4C00002000080140DC
:104AD000001801401CB5FCF779FC5348FBF7D7FEE2
:104AE000FFF792F8FEF7ACFBFEF74AFBFEF762FB1E
:104AF000FEF752FDFEF7AAFDFEF7E8FDFEF726FEE3
:104B0000FEF764FEFEF7BCFEFEF7D6FEFEF7F0FEF3
:104B1000FEF7CAFC00F073FB444808238022002102
:104B20000090084600F014FB00F022FE00F038F977
:104B300000F05CF9FFF7F3FD8046FFF749FD4FF405
:104B40007A70FCF71BFA00F0FEFA282008210923EE
:104B50001822CDE9001003214FF4FD6000F066FD3E
:104B6000334B0022114633A0FFF750FD0446304B73
:104B70000022214632A0FFF749FD054600231A46D0
:104B8000294631A0FFF742FD00231A46294631A0ED
:104B9000FFF73CFD264B0022214631A0FFF736FDF2
:104BA000064600231A46314630A0FFF72FFD0023AA
:104BB0001A46314630A0FFF729FD1D4B0022214641
:104BC00030A0FFF723FD074600231A4639462FA0E1
:104BD000FFF71CFD00231A4639462FA0FFF716FDEC
:104BE000304804601EE00A20FCF7C8F92E4800781F
:104BF000401C2D49087008460078322812D12948F7
:104C0000006800F0E3FD27480068016A2548006855
:104C1000884700BF20212548FCF7B6FB00BF0020D5
:104C200021490870DFE7000058AF0020F463000856
:104C3000B14C00084D61696E4D656E750000000055
:104C4000736574704D6F7400736574704D6F745F2D
:104C500031000000736574704D6F745F32000000A6
:104C600055534152544D656E7500000055534152E5
:104C7000544D656E755F310055534152544D656E0C
:104C8000755F32004949434D656E75004949434D92
:104C9000656E755F310000004949434D656E755F73
:104CA00032000000580000201100002000180140D0
:104CB0002DE9F041044600260025002764E000208D
:104CC000FFF7BAFE0646002E48D0012E06D0022E6F
:104CD00011D0032E3BD0052E3ED118E06D1C207E56
:104CE000A84200DC00252A48006800F06FFD64201F
:104CF000FCF744F931E06D1E002D00DA257E2448D2
:104D0000006800F063FD6420FCF738F925E02048D6
:104D1000006800F05BFDE06910B11E49E0690860C1
:104D200005E01C48006800691A4908606D1E25B13D
:104D30001848006800690028F3D116480068144933
:104D400008600846006800F041FD012705E01049B1
:104D500060690860012700E000BF13E00A20FCF74B
:104D60000DF90D480078401CC0B20B49087032287C
:104D700008DB00BF20210948FCF706FB00BF00202C
:104D80000549087007B100E099E700BFBDE8F08170
:104D9000580000205C000020600000200018014046
:104DA00000B50F4909684A000E498868002100F0E3
:104DB000A9F90D490A680B490868002100F0A2F919
:104DC000074949684A000749C868002100F09AF974
:104DD00005494A6803494868002100F093F900BD7D
:104DE000F05A000800000020F85A000801200A4983
:104DF00081F82C000220094981F82C000320084981
:104E000081F82C000420074981F82C000520064970
:104E100081F82C007047000068AE002098AE00209A
:104E2000C8AE0020F8AE002028AF002090F82D106A
:104E300019B9416A491C416202E0416A491E416256
:104E40007047000070B5044614F82A0F401C20700B
:104E500014F82A0902287AD1002084F82A0094F84C
:104E60002B0048B194F82B00042805D02046FFF70A
:104E7000DDFF206A401C206294F82B00052864D2D4
:104E8000DFE800F062033D205000606901683248AD
:104E900000F0FEFC06464FF0804100F0F9FC0546AC
:104EA00000F0B8FD20856069001D60616168206ABE
:104EB000884206DB0120E16800F0F6F8022084F861
:104EC0002B0043E060690168234800F0E1FC0646DE
:104ED0004FF0804100F0DCFC054600F09BFD208592
:104EE0006069001D6061D4E90710884206DB01207B
:104EF000216900F0D9F8042084F82B0026E0174A35
:104F0000216892FBF1F000EBD071C1F34F012185D4
:104F1000A169206A884204DB20696061032084F86B
:104F20002B0013E0204600F025F80120FFF738FCA5
:104F3000054694F82C102A4609A0FBF79FF900209B
:104F400084F82B0002E002E000E000BF00BF204632
:104F500000F042F870BD00000024744A00093D00D2
:104F60006D6F746F72256420667265652025640D0F
:104F70000A00000010B5044694F82C0006281DD243
:104F8000DFE800F01C03080D121708210D48FDF79B
:104F90001DFD14E000210C48FDF718FD0FE008216D
:104FA0000A48FDF713FD0AE004210948FDF70EFD4C
:104FB00005E004210748FDF709FD00E000BF00BF40
:104FC00010BD0000E8AA002008AC002078AB00204B
:104FD000C0AB002030AB002010B50021002290F8BB
:104FE0002C30062B36D2DFE803F035030D17212BCA
:104FF0001A4B1B68596A038D0B449AB2174B1B68F6
:10500000DA6328E0164B1B68596A038D0B449AB289
:10501000134B1B685A631EE0124B1B68596A038DC1
:105020000B449AB20F4B1B68DA6314E00E4B1B68FB
:10503000596A038D0B449AB20B4B1B689A6300BFED
:105040000A4B1B68596A038D0B449AB2074B1B68C5
:105050009A6300BF00BF00BF10BD0000E8AA002097
:1050600008AC002078AB0020C0AB002030AB0020A3
:1050700070B504464FF47A7094FBF0F594FBF0F1B0
:1050800000FB114603E0074800F0CAFB6D1E002D2F
:10509000F9D12EB14FF47A7106FB01F000F0C0FB9C
:1050A00070BD000040420F00F0B5134B53F82030A4
:1050B000CC1A01B9F0BD114B53F82030A34200D8EF
:1050C000F8E70F4B53F82030B4FBF3F20A4B0833E8
:1050D00053F8203033F81250002309E00027064E21
:1050E000083656F8206002EB030C26F81C705B1C97
:1050F000AB42F3DB00BFDDE700000020F85A0008F8
:10510000E85A000830B5034601E003F8011B141EFD
:10511000A2F10102F9D130BD70B505460C46FFF78A
:105120000FFC7820FFF7D4FBFFF752FC2846FFF76F
:10513000CFFBFFF74DFC2046FFF7CAFBFFF748FC0B
:10514000FFF726FC70BD10B5002000F03BF810BD45
:105150002DE9F05F06460F4690461C46DDF828A074
:105160004FF0000BE11704EB5171C910A4EBC10122
:1051700031B92046E11704EB5171C1F3C70506E0D0
:105180002046E11704EB5171C910491CCDB23D46D0
:1051900014E02946304600F08DF8B1460AE0594641
:1051A0000BF1010B1AF8010000F015F909F10100EB
:1051B00000F0FF09C145F2DB681CC5B2A542E8DB7F
:1051C000BDE8F09F70B50646002415E004F1B0017B
:1051D000C8B200F0F9F8002000F0F6F8102000F056
:1051E000F3F8002504E0304600F0F5F8681CC5B27D
:1051F000802DF8DB601CC4B2082CE7DB70BD10B555
:105200006420FBF7BBFEAE2000F0DEF8202000F0AB
:10521000DBF8102000F0D8F8B02000F0D5F8C82056
:1052200000F0D2F8002000F0CFF8102000F0CCF809
:10523000402000F0C9F8812000F0C6F8FF2000F0FF
:10524000C3F8A12000F0C0F8A62000F0BDF8A82007
:1052500000F0BAF83F2000F0B7F8A42000F0B4F84E
:10526000D32000F0B1F8002000F0AEF8D52000F017
:10527000ABF8F02000F0A8F8D92000F0A5F8222023
:1052800000F0A2F8DA2000F09FF8122000F09CF85D
:10529000DB2000F099F8202000F096F88D2000F037
:1052A00093F8142000F090F8AF2000F08DF8FFF78D
:1052B0004AFF10BD70B504460D4605F1B001C8B2F5
:1052C00000F082F8102141EA141000F07DF804F09B
:1052D0000F0141F0010000F077F870BD2DE9F047B3
:1052E0000646894617469A464FF0000800240025D6
:1052F000BAF1010F03D0BAF1020F5ED125E020E030
:10530000785D203800F0FF087E2E04DD002609F1CC
:10531000010000F0FF0949463046FFF7CBFF0024AB
:1053200009E008EB4801264A02EB4101085D00F064
:1053300052F8601CC4B2062CF3DBB01DC6B2681C68
:10534000C5B2785D0028DBD137E032E0785D2038E7
:1053500000F0FF08782E04DD002609F1010000F0BE
:10536000FF0949463046FFF7A5FF002407E004EB9C
:105370000811144A505C00F02EF8601CC4B2082CCE
:10538000F5DB09F10100C1B23046FFF793FF0024BD
:1053900008E004EB081108310A4A505C00F01BF8E1
:1053A000601CC4B2082CF4DB06F10800C6B2681C0D
:1053B000C5B2785D0028C9D100BF00BFBDE8F08745
:1053C000DC5B0008045E000810B50446214600209E
:1053D000FFF7A2FE10BD10B5044621464020FFF79E
:1053E0009BFE10BD2DE9FF4F04460D4669B2A1F1A9
:1053F00002084FFA88F8B8F1000107DC01F10C0847
:105400004FFA88F1A4F101081FFA88F44FF06409FB
:1054100094FBF9FA4FEAE47904EB99794FEAA90B86
:10542000A4F1010940F26D1E09FB0EB9A9EB0A09AE
:105430004FF4C87A94FBFAFA09EB0A0340F26F18AA
:1054400001FB08F84FF00C0998FBF9F808F11D066C
:10545000571E03EB0608B844DFF83090A8EB090CA0
:105460000CEB4C09DDF80C8008EBC908C8EB0819F7
:10547000DDF8348008EB8908C8EB0819DDF83880BE
:1054800008EB890004B0BDE8F08F00003AF90A008B
:10549000FEB50026002400253CA2D2E90010926847
:1054A000CDE9010200913C4806683604001D006801
:1054B00006443A48B6FBF0F439480088A04239D097
:1054C00037490C8040F2B2750EE0284600F094F89F
:1054D00030B1B4F5B77F00D209E0A4F5B77401E0AC
:1054E000A4F26D14681C85B2B4F5B67FEDD800BF88
:1054F0002C488580002515E02A49888800F07CF832
:1055000030B1012D04D11D2C00D20DE01D3C07E06F
:105510001DF80500A04200D906E01DF80500241A78
:10552000681C85B21C2CE7D200BF681C1D4988711D
:10553000601CC8711948B6FBF0F100FB11644FF410
:105540006160B4FBF0F0174908704FF46160B4FB80
:10555000F0F100FB11403C21B0FBF1F01149487023
:105560004FF46160B4FBF0F100FB11403C21B0FB53
:10557000F1F201FB12000B4988700B46DA79997938
:10558000988800F011F807490872FEBD1F1C1F1E05
:105590001F1E1F1F1E1F1E1F1828004080510100C4
:1055A00038000020C8AA002070B503460020032957
:1055B00004DA01F10C04E1B25C1EA3B24C1C04EB52
:1055C0004404052594FBF5F5541C022606FB014412
:1055D0002C441C4404EBA304642593FBF5F5641BE5
:1055E0004FF4C87593FBF5F52C44072594FBF5F6AD
:1055F00005FB1644E0B270BD0146CA1701EB92727A
:105600009210A1EB82022AB9642291FBF2F302FB11
:10561000131232B94FF4C87291FBF2F302FB13126A
:105620000AB9012070470020FCE700002DE9FC4783
:1056300005460E4617469846DDE90A9A0024434679
:105640003A4631462846CDE9009AFFF7CBFE04469C
:1056500000BF1D48C06940F080501B49C861084622
:10566000C06900F08050019000BF00BF00BF084635
:10567000C06940F00060C8610846C06900F0006081
:10568000019000BF00BFFBF767FF1048006840F0C3
:1056900010000E490860A0B20C4918310860200CB7
:1056A000091F08600948006820F0100007490860D9
:1056B00000BF074800684068C0F340100028F8D0D9
:1056C0000020BDE8FC8700000010024004280040D4
:1056D000D4AA002070B505460C46164655200E4942
:1056E00048700870082088700320C8700120087175
:1056F0004E71301288710846C5710C7220124872C2
:105700004FF6FF730A220548FDF7DEFC044800EB64
:105710008500448070BD000054AE002098AC00208D
:1057200044AE002070B504460D46164624B1012C47
:1057300016D0022C1AD10DE0324629460020FFF780
:10574000C9FF40F6B830401B81B232460120FFF756
:10575000C1FF0BE0324629460220FFF7BBFF05E000
:10576000324629460320FFF7B5FF00BF00BF70BDDA
:1057700010B51448FEF737FA00200AE0124901F884
:10578000200040F2DC51104A02EB80025180411CA3
:10579000C8B20428F2DB41F288324FF4966100204F
:1057A000FFF7C0FF41F288324FF411710220FFF77A
:1057B000B9FF41F288324FF4A5610120FFF7B2FF33
:1057C00010BD000038AE002044AE002070B5044685
:1057D000FFF7B9FC0A20FBF7D1FB01232246002189
:1057E0000620FFF77BFD0225E069A8B10B49E069BF
:1057F000086000BF01230948294602680220FFF71C
:105800006DFD681CC5B20548006800690349086061
:10581000084600680028EDD170BD00005C00002043
:1058200071B50098B0F5617F13D9002404E04FF4FE
:105830006170FFF7F5FF641C4FF461710098B0FBD5
:10584000F1F0A042F3D80098B0FBF1F201FB120096
:1058500000904FF0E02084694821009801FB104639
:10586000002E08DB00BF4FF0E0208569A5420CDA6E
:10587000B542F8DA09E00548064400BF4FF0E020E1
:105880008569A542FADDB542F8DC78BD4019010012
:105890004FF47F0C1CEAD0121EBF1CEAD11392EA0F
:1058A0000C0F93EA0C0F00F0858090EA010F48BFBF
:1058B00042F4807240F4000C41F400002CF07F416F
:1058C00020F07F4000B58142A2EB03020FF2081CDA
:1058D000ACEB504EC0F100009EF800E04FEA4E0ED7
:1058E00000FB0EFC38BF49004FEA2C1C02F5FA02FF
:1058F0000CFB0EF34FEACE1E4FEA112C4FEAC121EA
:105900000EEB635E42EB22420EFB0CFC4FEA1C5393
:1059100000FB03114FEA112C4FEA01310EFB0CFC86
:105920004FEADC4C00FB0C11C14228BF09184CEBBC
:1059300003335DF804EB10EB410143EBC250B2F5C9
:105940007C0F38BF704729D512F0F00F1CBF00F153
:10595000C04000F0004070470081828384858687C4
:1059600088898B8C8D8E8F919293959697999A9C1E
:105970009D9FA0A2A3A5A7A8AAACAEB0B2B3B5B78D
:10598000B9BCBEC0C2C5C7C9CCCED1D4D7D9DCDF63
:10599000E2E6E9ECF0F3F7FAFE0000004FEA400C13
:1059A0000CF1807CBCF17E4F28BF7047B0F1C04045
:1059B00000F095B890EA010F0CEAD11348BF42F409
:1059C0008072624538BF634507D213F47F0F16D04B
:1059D00080EA010000F00040704710B500F039F88F
:1059E000097EFC3E00F005B880EA010000F00040AE
:1059F000704780EA010000F0004000F070B812F437
:105A00007F0F04BF0248704780EA010000F067B8CA
:105A10000000C07FC10DD1F19E0206DB4FEA0023DA
:105A200043F0004323FA02F07047004207D54FEAE3
:105A30004001B1F1FE4F02D24FF00000704710B5A7
:105A400000F007F849922480002070476FEA200098
:105A500070470EF1020E2EF0030E5EF8044B244246
:105A600004D44FEA4102B2F17F4F11D84FEA40030C
:105A7000B3F17F4F0CD80ED14FEAD07CB2F17F4FFB
:105A80000CEB4C0C0CF1020C08BF4CEBD17C04E08D
:105A90004FF0080C01E04FEAD17C0CEB4C0324FAE8
:105AA00003F404F00704B4F1040C06D20EEB840CEA
:105AB000BDE810404CF0010C6047DFE80CF007082F
:105AC00002024FF00040A0F5800010BD08464200E1
:105AD00018BFD2F1807288BF00F0004010BDFF21D6
