:020000040800F2
:1000000058B8002035020008854D00081344000848
:10001000814D0008030A0008795B00080000000019
:100020000000000000000000000000002150000857
:10003000450A000800000000ED4D00083D50000892
:100040004F0200084F0200084F020008A54E0008AA
:100050004F0200084F0200084F0200084F0200083C
:100060004F0200084F0200084F0200084F0200082C
:100070004F020008090A00084F0200084F0200085A
:100080004F0200084F0200084F0200084F0200080C
:10009000555B00084F0200084F0200084F0200089D
:1000A0004F0200084F0200084F020008CD50000820
:1000B000DD500008ED500008FD5000084F02000818
:1000C0004F0200084F0200084F0200084F020008CC
:1000D0004F020008B15A0008D55A0008E55A000836
:1000E0004F0200084F0200084F0200084F020008AC
:1000F0004F0200084F0200081D5100084F0200087F
:100100004F0200084F0200080D5100084F0200087E
:100110004F0200084F0200084F0200084F0200087B
:100120004F0200084F0200084F0200084F0200086B
:1001300000F002F800F06FF80AA090E8000C82448A
:100140008344AAF10107DA4501D100F064F8AFF267
:10015000090EBAE80F0013F0010F18BFFB1A43F0A5
:1001600001031847E4D1000004D200000A444FF014
:10017000000C10F8013B13F0070408BF10F8014B06
:100180001D1108BF10F8015B641E05D010F8016B4B
:10019000641E01F8016BF9D113F0080F1EBF10F8AF
:1001A000014BAD1C0C1B09D16D1E58BF01F801CBD2
:1001B000FAD505E014F8016B01F8016B6D1EF9D555
:1001C0009142D6D37047000000230024002500266A
:1001D000103A28BF78C1FBD8520728BF30C148BFAA
:1001E0000B607047642900F0D180752900F0CE8043
:1001F000782900F00781632900F02B83732900F030
:100200003083002070471FB59DE8030000F056FAC8
:100210001FBD10B510BD00F080FB1146FFF7F3FFC6
:1002200006F0A0FD00F09EFB03B4FFF7F2FF03BC55
:1002300006F034F80948804709480047FEE7FEE722
:10024000FEE7FEE7FEE7FEE7FEE7FEE7FEE7FEE786
:1002500004480549054A064B70470000CB5000088A
:100260003101000858B2002058B8002058B40020CE
:1002700058B40020704770B5064600F003FA0568D0
:1002800006F10B0020F00704B4429CBF002070BDB3
:100290002B466A68BAB11068A04210D304F1080175
:1002A00088423CBF5068586007D3516810194160BC
:1002B0001168091B016058601460101D70BD134661
:1002C0005268002AE7D12146284600F0E3F90028C9
:1002D000DED170BD0FB4044910B503AA029800F036
:1002E000C5FA10BC5DF814FB8C00002070B5044604
:1002F00085690068C10601D5302600E02026C007C8
:1003000007D070BDD4E9012130469047206A401CD7
:1003100020626D1EF6D570BD70B504468569007803
:10032000C00707D170BDD4E9012120209047206A81
:10033000401C20626D1EF6D570BD70B50C4605469A
:10034000012A05D02878800600D5EA69002302E05A
:10035000012305E05B1C934202D2E05C0028F9D146
:10036000A869E618C01AA861286A184428622846B5
:10037000FFF7BCFF04E0D5E9012114F8010B904719
:10038000B442F8D32846FFF7C7FF70BD2DE9F0410E
:100390000646002410687529314616A510D0AFF323
:1003A0000080002802DA404213A507E031688A077E
:1003B00001D512A502E0490704D511A5012401E0E9
:1003C000AFF3008000210A2206F1240709E0B0FB08
:1003D000F2FCB0FBF2F302FB1C00303078541846FC
:1003E000491C0028F3D123462A463046BDE8F04197
:1003F00000F0CCB9000000002D0000002B00000030
:100400002000000070B504460D4621461068AFF389
:1004100000802188090502D50F4A7A4402E00E4A7D
:100420007A440E32002104F1240305E000F00F06A7
:100430000009965D5E54491C0028F7D120780023FE
:10044000000704D5702D02D009B1022311322046D5
:10045000BDE8704000F09AB9DAC900002DE9F05FFC
:10046000894604464FF0000ADFF874B1FB44C0F837
:1004700020A02046E1688847002874D0252806D0AF
:10048000D4E901219047206A401C2062F1E7002650
:100490005F462046E16888472028054607DB312D66
:1004A00005D2781910F8200C08B10643F1E7B0071F
:1004B00001D526F00406C4F81CA00027C4F818A033
:1004C0002A2D09D0284605F0E2FE38B304EB870850
:1004D000303DC8F8185019E059F8041B204604EBC9
:1004E00087029161E1688847012F054618D1E069CC
:1004F000002820DA26F020061DE0D8F8180000EBCE
:10050000800005EB40003038C8F818002046E1684C
:100510008847054605F0BBFE0028EED1012F0AD022
:100520002E2D08D12046E16888477F1C0546022F02
:1005300046F02006C4DBA069002803DA404246F0FA
:100540000106A061F00701D026F010066C2D0BD03B
:10055000682D09D04C2D39D06A2D35D0742D35D069
:100560007A2D33D016E038E0E1682F4620468847E0
:10057000B842054609D16C2F26D04FF48060E1685F
:10058000064320468847054604E06C2F1AD04FF4F6
:10059000807006430DB3A5F14100192802D820351B
:1005A00046F400664A462946204626604E46FFF736
:1005B00019FE80B101280BD0F61D26F0070000F1CE
:1005C000080956E74020E4E78020D8E70020D6E776
:1005D00006F104094DE7284652E7206ABDE8F09F7E
:1005E000B0C9000040EA0103024630B59B0710D1B4
:1005F0004FF0013400E008C208C91D1B9D4315EAF5
:10060000C41FF8D013F0FF0102F8011B0DD01B0A24
:10061000F8E711F8013B002B02F8013B05D011F877
:10062000013B002B02F8013BF3D130BD4FF000023B
:1006300000B5134694469646203922BFA0E80C50D8
:10064000A0E80C50B1F12001BFF4F7AF090728BFB3
:10065000A0E80C5048BF0CC05DF804EB890028BF2F
:1006600040F8042B08BF704748BF20F8022B11F058
:10067000804F18BF00F8012B7047704770477047D4
:100680007047000000487047FCB100207047704779
:100690007047704738B504460A4600206946AFF3F4
:1006A0000080002808BF38BD02460099204600F0AF
:1006B000F7F8012038BD012000F028B9F8B5AFF3F4
:1006C0000080054600200C46102000BF0646A819F1
:1006D000A0420DD9324669460020AFF300800700E2
:1006E00008BF00F013F90098A04218BF0546C419CE
:1006F000FFF7C8FF05600746F01D20F00700461908
:10070000284600F00AF8B44208BFF8BDA21B3146E3
:100710003868BDE8F84000F0C3B800210160C0E9C6
:10072000011070471020704770B50446051FFFF791
:10073000A9FF0068002C14BF446870BD002C18BFCE
:10074000AC423CBF20466468F8D301680A18AA424C
:1007500018BF456003D12A68054611440160286826
:100760004119A1421CBF6C6070BD6168696021685D
:100770000844286070BD10B500F08EF8006810BD08
:1007800010B5044600F088F8046010BD2DE9F0476C
:100790000D4699469246044600F1240801688806F1
:1007A00004D5E06921F01001216000E00120A84299
:1007B00001DD471B00E00027A1697A1902EB09005F
:1007C000081AA0612078C00602D42046FFF78EFDEB
:1007D000002608E0D4E901211AF806009047206AB3
:1007E000401C761C20624E45F4DB2078C0060AD5FA
:1007F0002046FFF77BFD06E0D4E901213020904739
:10080000206A401C2062381EA7F10107F4DC07E0D3
:10081000D4E9012118F805009047206A401C2062A5
:10082000281EA5F10105F3DC2046FFF775FD2078B1
:10083000000602D50220BDE8F0870120FBE710B5D5
:10084000436913B1AFF3008001E0FFF776FD0120AB
:1008500010BD127800F124010A7000224A700122B2
:10086000EDE711684FF0FF32E9E70000074B70B584
:100870000D467B4400F033F80446284600F042F869
:1008800010B14FF0FF3070BD204670BD5B600000BE
:1008900000487047F4B1002000487047F4B10020D0
:1008A000034640688C46002818BF88423CBF034678
:1008B0004068F8D318681844884207D00CF1030048
:1008C00020F00700001D411A521A0146081D0A6057
:1008D000FFF72ABF01694A1C02610878704700B51A
:1008E0008FB0CDE901310021059105497944CDE969
:1008F000031011466846FFF7B1FD0FB000BD0000C0
:10090000E5FFFFFF007B00F08000704710B500F0AE
:1009100037F8BDE8104000F02EB87546FFF7B8FF75
:10092000AE4605006946534620F00700854618B0DC
:1009300020B5FFF78DFCBDE820404FF000064FF0DA
:1009400000074FF000084FF0000B21F00701AC4604
:10095000ACE8C009ACE8C009ACE8C009ACE8C00923
:100960008D46704710B50446AFF300802046BDE8C1
:100970001040FFF759BC002801D005F08FBC70472C
:1009800010B5012805D0002103A000F021F80120B6
:1009900010BD09A1F8E7000053494752544D454D99
:1009A0003A204F7574206F662068656170206D6510
:1009B0006D6F7279000000003A2048656170206D0B
:1009C000656D6F727920636F727275707465640003
:1009D00070B505460C460A2000E06D1C05F060FC71
:1009E00035B128780028F8D102E0641C05F058FCE5
:1009F00014B120780028F8D1BDE870400A2005F035
:100A00004FBC00BFFEE7000010B5024800F024FE16
:100A100010BD000074AF002030B590F840500124A4
:100A2000AC40C56B6C60046863604468102C04D1F2
:100A30000468A2600468E16003E00468A1600468DF
:100A4000E26030BD704772B600BFFEE770B5044685
:100A5000B3F5804F13D1D1E9000540EA05108D6848
:100A600040EA05208D6928438D8940EA054054F805
:100A70002250064E3540284344F8220003E06FF030
:100A8000704044F82200002070BD00000000F0CF4C
:100A900070B50246086852F8200020F001000E6888
:100AA00042F826008868082801D1402300E000238E
:100AB000486818438E683043CE6830430E6930432F
:100AC0004E693043CE6930430E6A30434E6A30433C
:100AD0008E6A3043CE6A30430E6B40EA0604886962
:100AE0000443486B0443074D45F4806545F4E02515
:100AF000086852F82000A84320430E6842F82600F8
:100B0000002070BD7FFB080010B50346D1E900044A
:100B100040EA04108C6840EA04208C8940EA0444CE
:100B2000088A401E44EA0054087D801E44EA0060A2
:100B30008C692043541C53F8244004F04044204363
:100B4000541C43F82400002010BD002105E00023C0
:100B500000F1180253544A1CD1B21429F7DB552175
:100B600081701222C2700171002141718171816016
:100B7000C160016141617047F0B504460D461E46F3
:100B800094F8207020688368A86800B900E000BF6E
:100B9000012F01D0022F7DD103F0806030B903F026
:100BA000006018B903F0805000287ED0C3F30161C3
:100BB000012088403060A86860B9B5F800C0E868D6
:100BC00040EA4C5C206800F5C07000EB0110C0F8F2
:100BD00000C00FE0D5E901C040EACC00D5F80CC058
:100BE00040EA0C00D4F800C00CF5C07C0CEB011CF2
:100BF000CCF80000D5F810C0206800F5C07000EBFC
:100C00000110C0F804C0287D01280ED1206800F52D
:100C1000C07000EB0110406840F4807C206800F553
:100C2000C07000EB0110C0F804C0D079000692F843
:100C300006C040EA0C4092F805C040EA0C2092F849
:100C400004C040EA0C00D4F800C00CF5C07C0CEBEA
:100C5000011CCCF80C00D078000692F802C040EAE3
:100C60000C4092F801C040EA0C2092F800C040EA23
:100C70000C00D4F800C00CF5C07C0CEB011CCCF8C7
:100C80000800206800F5C07000EB0110006840F01B
:100C9000010C01E00FE008E0206800F5C07000EBF7
:100CA0000110C0F800C00020F0BD606A40F40010E0
:100CB00060620120F8E7606A40F4802060620120F1
:100CC000F2E7F0B504460A46216894F82050012D59
:100CD00001D0022D74D1D1F8000240F00100C1F81A
:100CE0000002107D00F01F06012000FA06F3D1F883
:100CF0001C029843C1F81C02D069C8B9D1F80C0293
:100D00009843C1F80C02908880B2968940EA064662
:100D100001F51070576940F83760108880B2168965
:100D200040EA064601F51070576900EBC7004660BF
:100D3000D069012819D1D1F80C021843C1F80C026E
:100D4000908880B2168840EA064601F5107057690F
:100D500040F83760908980B2168940EA064601F56E
:100D60001070576900EBC7004660906928B9D1F848
:100D700004029843C1F8040204E0D1F804021843C5
:100D8000C1F80402106928B9D1F814029843C1F8D7
:100D9000140204E0D1F814021843C1F81402106AD6
:100DA000012804D1D1F81C021843C1F81C02D1F863
:100DB000000220F00100C1F800020020F0BDFFE7B2
:100DC000606A40F4802060620120F7E7704710B548
:100DD0000246002092F82030012B01D0022B09D1CD
:100DE00021B91468E46804F0030003E0146824697E
:100DF00004F0030010BD70B5044694F82050012D96
:100E000001D0022D7DD151B92068C06800F00300E7
:100E100080B9606A40F400106062012070BD2068F3
:100E2000006900F0030028B9606A40F400106062B5
:100E30000120F3E7206800F5D87000EB011000688E
:100E400000F004009060906840B9206800F5D87008
:100E500000EB01100068400D106007E0206800F50D
:100E6000D87000EB01100068C0085060206800F5E1
:100E7000D87000EB0110006800F00200D06020681C
:100E800000F5D87000EB0110406800F00F00082852
:100E900002D30820106108E0206800F5D87000EB4C
:100EA0000110406800F00F001061206800F5D87054
:100EB00000EB0110406800F47F40000A9061206858
:100EC00000F5D87000EB01104068000C50612068FC
:100ED00000F5D87000EB011080681870206800F5EC
:100EE000D87000EB0110806800F47F40000A587051
:100EF000206800F5D87000EB0110806800F47F00D6
:100F000000E03CE0000C9870206800F5D87000EB21
:100F100001108068000ED870206800F5D87000EBD2
:100F20000110C0681871206800F5D87000EB01103E
:100F3000C06800F47F40000A5871206800F5D8703E
:100F400000EB0110C06800F47F00000C987120686D
:100F500000F5D87000EB0110C068000ED87131B9EF
:100F60002068C06840F020002668F06005E0206836
:100F7000006940F020002668306100204EE7606A7A
:100F800040F480206062012048E72DE9F05F0446CC
:100F90000025206846692068D0F80490206887689A
:100FA0002068D0F80CA02068D0F810B02068D0F8E5
:100FB000188006F00100002855D007F00100C0B1EC
:100FC00001202168886007F0020018B1204600F077
:100FD0003EFA0EE007F0040010B145F4006508E0A9
:100FE00007F0080010B145F4805502E0204600F0FB
:100FF0002DFA07F48070C8B14FF4807021688860C2
:1010000007F4007018B1204600F023FA0EE007F450
:10101000806010B145F4005508E007F4006010B19D
:1010200045F4804502E0204600F012FA07F48030D3
:10103000C8B14FF480302168886007F4003018B1DF
:10104000204600F008FA0EE007F4802010B145F4C5
:10105000004508E007F4002010B145F4803502E0B7
:10106000204600F0F7F906F0080038B10AF0100049
:1010700020B145F4007510202168C86006F0040016
:1010800040B10AF0080028B108202168C860204655
:1010900000F0A8F906F0020038B12068C06800F03E
:1010A000030010B1204600F09EF906F0400038B170
:1010B0000BF0100020B145F4806510202168086114
:1010C00006F0200040B10BF0080028B1082021688C
:1010D0000861204600F088F906F0100038B1206859
:1010E000006900F0030010B1204600F07EF906F41C
:1010F000003040B109F0100028B11020216848608C
:10110000204600F073F906F4803040B109F0080081
:1011100028B1082021684860204600F09DF906F4B7
:10112000004088B309F0040078B306F4807020B161
:1011300008F0010008B145F0010506F4007020B187
:1011400008F0020008B145F0020506F4806020B105
:1011500008F0040008B145F0040506F40060A0B1F1
:1011600008F0700088B108F07000402817D006DC45
:1011700010280BD020280CD0302819D10CE0502892
:1011800010D0602814D110E01DE019E045F00805EA
:101190000FE045F010050CE045F0200509E045F0B2
:1011A000400506E045F0800503E045F4807500E069
:1011B00000BF00BF2068806920F07000216888614E
:1011C0000420216848602DB1606A2843606220468F
:1011D000FFF7FCFDBDE8F09F70B504460CB9012097
:1011E00070BD94F8200010B9204600F0AFF82068D8
:1011F000006840F001002168086000F0B1FE05467B
:101200000DE000F0ADFE401B0A2808D9606A40F4EA
:1012100000306062052084F820000120E0E72068AB
:10122000406800F001000028EBD02068006820F042
:1012300002002168086000F093FE05460DE000F012
:101240008FFE401B0A2808D9606A40F400306062B3
:10125000052084F820000120C2E72068406800F0E3
:1012600002000028EBD1207E012806D1206800680A
:1012700040F080002168086005E02068006820F0E8
:10128000800021680860607E012806D1206800681F
:1012900040F040002168086005E02068006820F008
:1012A000400021680860A07E012806D120680068FF
:1012B00040F020002168086005E02068006820F008
:1012C000200021680860E07E012806D120680068BF
:1012D00020F010002168086005E02068006840F0F8
:1012E000100021680860207F012806D1206800686E
:1012F00040F008002168086005E02068006820F0E0
:10130000080021680860607F012806D12068006815
:1013100040F004002168086005E02068006820F0C3
:10132000040021680860D4E90201084321690843E8
:10133000616908436168491E08432168C86100204B
:101340006062012084F82000002049E710B586B0D3
:101350000446002002900390049005901E492068E6
:10136000884236D100BF1D48C06940F000701B495B
:10137000C8610846C06900F00070019000BF00BF5E
:1013800000BF0846806940F0040088610846806913
:1013900000F00400019000BF00BFC81402900020BC
:1013A0000390049002A90E4800F022FC4FF48050F4
:1013B0000290022003900320059002A9084800F043
:1013C00017FC00221146142000F050FE142000F0FB
:1013D0003DFE06B010BD0000006400400010024059
:1013E000000801407047704770477047704770B5FC
:1013F000044694F82000012822D1022084F820001D
:101400002068006820F001002168086000F0A8FD55
:1014100005460DE000F0A4FD401B0A2808D9606ACB
:1014200040F400306062052084F82000012070BD87
:101430002068406800F001000028EBD16062F6E708
:10144000606A40F4002060620120F0E77047704756
:10145000704770477047704770470146002291F807
:101460002100022808D00420886300BF002081F8F2
:10147000200000BF012070470868006820F00E00BF
:101480000B6818600868006820F001000B6818609D
:1014900091F8403001209840CB6B5860012081F8D2
:1014A000210000BF002081F8200000BF1046E2E7C5
:1014B00070B50446002594F82100022803D00420CA
:1014C000A0630125C1E02068006820F00E002168BB
:1014D00008602068006820F00100216808605C490D
:1014E0002068884252D95A4978392068884201D107
:1014F000012047E0564964392068884201D1102014
:1015000040E0534950392068884201D1801539E0C4
:101510004F493C392068884201D1801432E04C495F
:1015200028392068884202D14FF480302AE04849A7
:1015300014392068884202D14FF4801022E04449D7
:101540002068884201D140041CE04249206888425A
:1015500001D1012016E03F4914312068884201D1B1
:1015600010200FE03B4928312068884201D18015C6
:1015700008E038493C312068884201D1801401E0FC
:101580004FF480303349091F086051E03049783901
:101590002068884201D1012047E02D496439206844
:1015A000884201D1102040E0294950392068884202
:1015B00001D1801539E026493C392068884201D1A3
:1015C000801432E0224928392068884202D14FF441
:1015D00080302AE01E4914392068884202D14FF435
:1015E000801022E01A492068884201D140041CE0A2
:1015F00018492068884201D1012016E015491431AC
:101600002068884201D110200FE01249283120685B
:10161000884201D1801508E00E493C31206888429B
:1016200001D1801401E04FF48030094980394860CD
:10163000012084F8210000BF002084F8200000BFB2
:10164000606B10B12046616B8847284670BD000072
:10165000800002400804024070B50446E06B056853
:101660002068066894F8401004208840284000282C
:1016700075D006F004000028FAD02068006800F059
:10168000200028B92068006820F004002168086064
:10169000D5492068884254D9D3497839206888428E
:1016A00001D1042049E0D04964392068884201D141
:1016B000402042E0CC4950392068884201D10015D1
:1016C0003BE0C9493C392068884202D14FF4804050
:1016D00033E0C54928392068884202D14FF4802080
:1016E0002BE0C14914392068884202D14FF48000B0
:1016F00023E0BD492068884201D1C0041DE0BB49F8
:101700002068884201D1042017E0B84914312068CC
:10171000884201D1402010E0B44928312068884235
:1017200001D1001509E0B1493C312068884202D15D
:101730004FF4804001E04FF48020AC49091F08605D
:1017400054E0A94978392068884201D104204AE050
:10175000A54964392068884202D1402043E04CE02A
:10176000A14950392068884201D100153BE09E49CB
:101770003C392068884202D14FF4804033E09A49D6
:1017800028392068884202D14FF480202BE0964906
:1017900014392068884202D14FF4800023E0924936
:1017A0002068884201D1C0041DE090492068884229
:1017B00001D1042017E08D4914312068884201D1FD
:1017C000402010E0894928312068884201D1001565
:1017D00009E086493C312068884202D14FF48040BC
:1017E00001E04FF48020804980394860E06A002899
:1017F00002D02046E16A8847F4E094F840100220C5
:1018000088402840002871D006F002000028FAD055
:101810002068006800F0200040B92068006820F0CF
:101820000A0021680860012084F821006E492068C0
:10183000884254D96C4978392068884201D1022005
:1018400049E0694964392068884201D1202042E09A
:10185000654950392068884201D140153BE0624912
:101860003C392068884202D14FF4005033E05E4991
:1018700028392068884202D14FF400302BE05A49C1
:1018800014392068884202D14FF4001023E05649F1
:101890002068884201D180041DE0544920688842B4
:1018A00001D1022017E0514914312068884201D14A
:1018B000202010E04D4928312068884201D1401590
:1018C00009E04A493C312068884202D14FF4005077
:1018D00001E04FF400304549091F086054E04249D7
:1018E00078392068884202D102204AE057E03E4918
:1018F00064392068884201D1202042E03A495039B9
:101900002068884201D140153BE037493C392068C6
:10191000884202D14FF4005033E03349283920681F
:10192000884202D14FF400302BE02F49143920684F
:10193000884202D14FF4001023E02B4920688842EE
:1019400001D180041DE029492068884201D102208C
:1019500017E0264914312068884201D1202010E088
:10196000224928312068884201D1401509E01F49E9
:101970003C312068884202D14FF4005001E04FF41E
:10198000003019498039486000BF002084F82000E9
:1019900000BFA06A30B32046A16A884722E094F8CD
:1019A0004010082088402840E0B106F00800C8B187
:1019B0002068006820F00E002168086094F840104C
:1019C00001208840E16B48600120A06384F8210079
:1019D00000BF002084F8200000BF206B10B120461B
:1019E000216B884770BD000080000240080402405F
:1019F0000146002209B9012070471E4B0868984231
:101A00000BD21D4B0868C01A1423B0FBF3F0800002
:101A1000086419480838C8630AE0164B0868C01AF9
:101A20001423B0FBF3F08000086412480838C86340
:101A3000022081F821000868026843F6F0708243B2
:101A4000D1E901031843CB6818430B6918434B696C
:101A500018438B691843CB69184302430868026036
:101A600000208863012081F82100002081F82000F7
:101A700000BFC1E708040240080002402DE9F04120
:101A800004460D4616461F464FF0000800BF94F866
:101A90002000012802D10220BDE8F081012084F855
:101AA000200000BF94F8210001282CD1022084F8E6
:101AB00021000020A0632068006820F00100216858
:101AC00008603B46324629462046FEF7A5FFE06AFD
:101AD00030B12068006840F00E00216808600BE01B
:101AE0002068006820F00400216808602068006811
:101AF00040F00A00216808602068006840F001009A
:101B00002168086006E000BF002084F8200000BFC4
:101B10004FF002084046BFE770B5044600F020FAD7
:101B200006462546681C10B104480078054400BFED
:101B300000F016FA801BA842FAD370BD5C000020AA
:101B400000B585B0002001900290039004902248D7
:101B5000006808B105B000BD01201F49086000BF42
:101B60001E48406940F480701C494861084640693D
:101B700000F48070009000BF00BF4FF23F00019062
:101B8000022002900320049001A9154800F030F8CB
:101B900041F23F000190022002900320049001A92D
:101BA000104800F025F84FF6837001900220029053
:101BB0000320049001A90C4800F01AF84DF6337088
:101BC0000190022002900320049001A9074800F030
:101BD0000FF800BFBEE700002C00002000100240FC
:101BE000001C014000200140001801400014014089
:101BF0002DE9F847024600239C467BE14FF001089F
:101C000008FA03F4D1F8008008EA0400A0427DD16C
:101C1000DFF8F4A2D1F80480A8EB0A09D0453AD045
:101C200014DCB8F1030F50D009DCB8F1000F31D04B
:101C3000B8F1010F1CD0B8F1020F49D120E0B8F182
:101C4000110F18D0B8F1120F42D11EE0B9F5881F5C
:101C500025D006DCB9F5803F20D0B9F5801F37D1FB
:101C60001AE0B9F5001F18D0B9F5041F30D117E0FC
:101C7000D1F80CC02DE0D1F80C8008F1040C28E05C
:101C8000D1F80C8008F1080C23E0D1F80C8008F1A1
:101C90000C0C1EE000BF00BF00BF00BF00BF00BFB4
:101CA000D1F80880B8F1000F02D14FF0040C0BE01E
:101CB000D1F80880B8F1010F03D14FF0080C14617E
:101CC00002E04FF0080C546103E04FF0000C00E01C
:101CD00000BF00BFFF2801D8904601E002F10408D0
:101CE0004646FF2802D84FEA830803E0A3F108081C
:101CF0004FEA88084746D6F800804FF00F0909FAE6
:101D000007F928EA09080CFA07F900E07AE048EA3E
:101D10000908C6F80080D1F8048008F08058B8F1AE
:101D2000805F6FD100BFDFF8E481D8F8188048F0F9
:101D30000108DFF8D891C9F81880C846D8F818808B
:101D400008F00108CDF8008000BF00BF4FEAB938A5
:101D50004FEA930958F829504FEA83784FEA1879E7
:101D60004FF00F0808FA09F825EA0805DFF8A08106
:101D7000424502D14FF0000824E0DFF89881424547
:101D800002D14FF001081DE0DFF88C81424502D1FD
:101D90004FF0020816E0DFF88481424502D14FF08F
:101DA00003080FE0DFF87881424502D14FF00408C4
:101DB00008E0DFF87081424502D14FF0050801E0EC
:101DC0004FF006084FEA83794FEA197908FA09F8C3
:101DD00048EA0505DFF850814FEA930948F8295091
:101DE000D1F8048008F48018B8F5801F0BD1DFF813
:101DF0003C81D8F8008048EA0008DFF83091C9F843
:101E000000800AE075E0DFF82481D8F8008028EA35
:101E10000008DFF81891C9F80080D1F8048008F4B0
:101E20000018B8F5001F0ED1DFF8008108F1040892
:101E3000D8F8008048EA0008DFF8F09009F10409BA
:101E4000C9F800800DE0DFF8E48008F10408D8F854
:101E5000008028EA0008DFF8D49009F10409C9F8E5
:101E60000080D1F8048008F40038B8F5003F0ED1A6
:101E7000DFF8B880A8F10408D8F8008048EA000824
:101E8000DFF8A890A9F10409C9F800800DE0DFF897
:101E90009C80A8F10408D8F8008028EA0008DFF840
:101EA0008C90A9F10409C9F80080D1F8048008F4E5
:101EB0008038B8F5803F0ED1DFF87080A8F10808AF
:101EC000D8F8008048EA0008DFF86090A9F1080916
:101ED000C9F800800DE0DFF85480A8F10808D8F8B0
:101EE000008028EA0008DFF84490A9F10809C9F841
:101EF00000805B1CD1F8008028FA03F8B8F1000FCD
:101F00007FF47CAEBDE8F88700001110001002409D
:101F100000080140000C0140001001400014014085
:101F200000180140001C0140080001400804014065
:101F3000024693680B400BB1012000E0002070477F
:101F400010B5C26821EA020302EA010443EA04432D
:101F5000036110BD0AB1016101E00B040361704728
:101F600001480068704700005400002003480068E2
:101F7000034909780844014908607047540000206B
:101F80005C00002010B50848006840F010000649C9
:101F90000860032000F0A8F80F2000F007F800F018
:101FA0002BF8002010BD00000020024070B5044650
:101FB0000E4800784FF47A71B1FBF0F00C490968D3
:101FC000B1FBF0F5284600F039FF08B1012070BDE3
:101FD000102C07D200222146501E00F047F8054879
:101FE000046001E00120F2E70020F0E75C0000203F
:101FF000600000205800002008B500BF114880692B
:1020000040F001000F4988610846806900F0010036
:10201000009000BF00BF00BF0846C06940F080507C
:10202000C8610846C06900F08050009000BF00BF42
:1020300000BF0549486820F0E06040F0007048604B
:1020400000BF08BD001002400000014001460846E4
:10205000002809DB00F01F0301229A4043099B007E
:1020600003F1E023C3F8002100BF70472DE9F05FC2
:1020700080460D461646002703F0A8FD0746394660
:102080002A46334601F00700C0F1070ABAF1040FEF
:1020900002D94FF0040A01E0C0F1070AD14600F16D
:1020A000040ABAF1070F02D24FF0000A01E0A0F1D2
:1020B000030AD4464FF0010A0AFA09FAAAF1010A02
:1020C0000AEA020A0AFA0CFA4FF0010B0BFA0CFBAF
:1020D000ABF1010B0BEA030B4AEA0B042146404625
:1020E00003F07CFDBDE8F09F00BF00F00702064B47
:1020F00019684FF6FF031940044B0B4343EA0221D2
:10210000014B196000BF70470CED00E00000FA05BC
:10211000012001490862704700000E422DE9F04796
:1021200006464FF00008002500270024A146042E93
:1021300037D004DC012E3CD0022E6CD160E0082E9A
:1021400033D0102E67D136484468006800F08070A4
:1021500008B33448C4F38341475C04F4803078B159
:102160002F484068C0F340402F4911F8008004F424
:10217000803040B12D48B0FBF8F000FB07F502E0DD
:102180002B4807FB00F52648406800F48000B0F5B6
:10219000800F01D1A94603E068000321B0FBF1F9EB
:1021A0003AE000F0CBF9814636E000F0C7F981460D
:1021B00032E01B48046A04F44070B0F5807F05D11A
:1021C00004F0020010B14FF4004918E004F440702C
:1021D000B0F5007F07D11248406A00F0020010B14C
:1021E00049F640490BE004F44070B0F5407F06D159
:1021F0000B48006800F4003008B14FF224490BE0AE
:1022000000F08CF906494968C1F38131491C490045
:10221000B0FBF1F900E000BF00BF4846BDE8F08721
:102220000010024016C1000826C1000800127A0002
:1022300000093D00F8B5044600260025207800F08E
:10224000010000286BD000274348C06900F080508F
:1022500070B900BF4048C06940F080503E49C86135
:102260000846C06900F08050009000BF00BF012701
:102270003A48006800F48070B0B93848006840F40B
:10228000807036490860FFF76BFE064606E0FFF7F0
:1022900067FE801B642801D90320F8BD2F48006821
:1022A00000F480700028F2D02B48006A00F44075DA
:1022B0002DB3A08800F44070A84220D02648006AC0
:1022C00020F440750120264908600020086022485B
:1022D000056205F0010090B1FFF742FE064608E0F6
:1022E000FFF73EFE801B41F28831884201D903206E
:1022F000D3E71948006A00F002000028F0D0164821
:10230000006A20F440706168084313490862012F95
:1023100004D10846C06920F08050C86100BF207811
:1023200000F00200022807D10B48406820F440402A
:10233000A168084308494860207800F01000102880
:1023400007D10548406820F48000616908430249CC
:1023500048600020A1E7000000100240007000402B
:102360004004424270B504460D460CB9012070BDD0
:102370005A48006800F00700A8420ED2574800688B
:1023800020F007002843554908600846006800F01F
:102390000700A84201D00120E9E7207800F0020000
:1023A00002281DD1207800F00400042805D14C48F3
:1023B000406840F4E0604A494860207800F0080036
:1023C000082805D14648406840F4605044494860B8
:1023D0004348406820F0F000A16808434049486045
:1023E000207800F0010078B36068012806D13C48ED
:1023F000006800F4003090B90120B8E76068022856
:1024000006D13748006800F0007040B90120AEE7FF
:102410003348006800F0020008B90120A7E73048FF
:10242000406820F00300616808432D494860FFF7C9
:1024300097FD064609E0FFF793FD801B41F28831C6
:10244000884202D9032092E707E02548406800F05F
:102450000C006168B0EB810FEDD12048006800F0FE
:102460000700A8420ED91D48006820F00700284345
:102470001A4908600846006800F00700A84201D029
:10248000012074E7207800F00400042807D11448E4
:10249000406820F4E060E168084311494860207812
:1024A00000F00800082808D10D48406820F460506A
:1024B000216940EAC1000A49486000F03FF8084934
:1024C0004968C1F30311074A515CC84006490860D6
:1024D00006480068FFF76AFD002048E70020024038
:1024E0000010024028C100086000002058000020B1
:1024F00001480068704700006000002000B5FFF749
:10250000F7FF04494968C1F30221034A515CC840FE
:1025100000BD00000010024038C1000800B5FFF700
:10252000E7FF04494968C1F3C221034A515CC8402E
:1025300000BD00000010024038C1000870B5002145
:102540000022002400230020134D696801F00C05CF
:10255000F5B1042D02D0082D19D101E00F4819E082
:102560000F4DC1F38346AB5D01F4803555B10A4D83
:102570006D68C5F340450B4E725D084D5D43B5FB7C
:10258000F2F402E0084D03FB05F4204602E000BF30
:10259000024800BF00BF70BD0010024000127A0068
:1025A00004C1000814C1000800093D00F8B5044644
:1025B0000CB90120F8BD207800F00100002878D087
:1025C000F848406800F00C0004280CD0F54840683A
:1025D00000F00C00082811D1F248406800F4803067
:1025E000B0F5803F0AD1EF48006800F400300028C1
:1025F0005FD0606800285CD10120DBE700BF606825
:10260000B0F5803F06D1E748006840F48030E549E6
:10261000086028E0606858B9E248006820F480301B
:10262000E04908600846006820F4802008601AE04D
:102630006068B0F5A02F0BD1DA48006840F4802024
:10264000D84908600846006840F4803008600AE015
:10265000D448006820F48030D249086008460068F9
:1026600020F48020086000BF606888B1FFF778FC24
:10267000054606E0FFF774FC401B642801D90320DF
:1026800098E7C848006800F400300028F2D010E055
:10269000FFF766FC054606E0FFF762FC401B642876
:1026A00001D9032086E7BF48006800F40030002805
:1026B000F2D1207800F00200022857D1B9484068D2
:1026C00000F00C0050B1B748406800F00C0008283A
:1026D00018D1B448406800F4803098B9B148006817
:1026E00000F0020020B12069012801D0012061E73B
:1026F000AC48006820F0F800616940EAC100A949CF
:10270000086033E02069E8B10120A7490860FFF7BD
:1027100027FC054606E0FFF723FC401B022801D9F1
:10272000032047E79F48006800F002000028F2D02D
:102730009C48006820F0F800616940EAC1009949AE
:10274000086013E0002098490860FFF709FC05467F
:1027500006E0FFF705FC401B022801D9032029E70A
:102760009048006800F002000028F2D1207800F0C4
:10277000080008282DD1A069B8B101208B49086054
:10278000FFF7EEFB054606E0FFF7EAFB401B0228D9
:1027900001D903200EE78348406A00F002000028B8
:1027A000F2D0012002F024FB13E000207F490860F2
:1027B000FFF7D6FB054606E0FFF7D2FB401B0228D9
:1027C00001D90320F6E67748406A00F002000028AD
:1027D000F2D1207800F00400042873D1002771485A
:1027E000C06900F0805070B900BF6E48C06940F009
:1027F00080506C49C8610846C06900F08050009064
:1028000000BF00BF01276A48006800F48070B0B9BB
:102810006748006840F4807065490860FFF7A0FBD6
:10282000054606E0FFF79CFB401B642801D9032006
:10283000C0E65F48006800F480700028F2D000BF56
:10284000E068012806D15748006A40F00100554968
:10285000086227E0E06858B95248006A20F0010099
:10286000504908620846006A20F00400086219E036
:10287000E06805280BD14B48006A40F00400494944
:1028800008620846006A40F0010008620AE0454814
:10289000006A20F00100434908620846006A20F0FF
:1028A0000400086200BFE068A0B1FFF759FB0546CD
:1028B00009E0FFF755FB401B41F28831884202D9FD
:1028C000032077E622E03748006A00F00200002883
:1028D000EFD012E0FFF744FB054608E0FFF740FBAE
:1028E000401B41F28831884201D9032062E62D481D
:1028F000006A00F002000028F0D1012F05D129481C
:10290000C06920F080502749C86100BFE069C8B3A2
:102910002448406800F00C00082860D0E0690228D4
:1029200048D1002020490866FFF71AFB054606E05B
:10293000FFF716FB401B022801D903203AE619488D
:10294000006800F000700028F2D1206AB0F5803FE6
:1029500007D11448406820F40030A16808431149A9
:102960004860D4E9080108430E49496821F474110C
:1029700008430C49486001200B490866FFF7F0FA4C
:10298000054607E03DE0FFF7EBFA401B022801D9BE
:1029900003200FE60348006800F000700028F2D022
:1029A0002FE000000010024000004242800442423A
:1029B00000700040002014490866FFF7D1FA054670
:1029C00006E0FFF7CDFA401B022801D90320F1E50C
:1029D0000E48006800F000700028F2D111E0E069B4
:1029E000012800D1E6E50948466806F48031206AEE
:1029F000814204D106F47011606A814201D0012045
:102A0000D8E50020D6E50000000042420010024058
:102A100010B5034600220020024A02EB810214682E
:102A2000A0B210BD006C004010B503460020034862
:102A300000EB810094B2046010BD0000006C004007
:102A40007047704710B504462068006800F0010028
:102A5000F0B12068406800F00100C8B1206840680B
:102A6000C0F3800048B12046FFF7EBFF6FF0040091
:102A7000216848600420607404E02046FFF7E0FF0E
:102A8000012060742068406820F0010021684860DF
:102A900010BD000070B5044600250CB9012070BDC2
:102AA000607C20B900202074204600F053F80220FA
:102AB0006074204600F06AF918B1042060740120A7
:102AC000EDE7204602F0B3F918B10420607401204C
:102AD000E5E72068406820F0070021684860A068AA
:102AE00028B11B48006820F0010019490860184807
:102AF000001F006820F46070A16808431449091F92
:102B000008606068401C08B1656809E00120FFF7B3
:102B100005FB05461DB9042060740120BFE76D1E4A
:102B2000C5F3034021688860A8B22168C8602046C8
:102B300002F09AF918B1042060740120AFE7002177
:102B4000E17301216173A173012060740020A6E785
:102B5000306C004038B5044613492068884222D1C1
:102B6000FFF7D6FA00BF1148C06940F000600F4976
:102B7000C8610846C06900F00060009000BF00BF57
:102B800001200B490860002202210320FFF76EFAA2
:102B90000320FFF75BFA06F0A1FC45F25002012189
:102BA0000448FFF741FF38BD0028004000100240F4
:102BB0003C04424290AC00202DE9F04704460D460B
:102BC000904600260027B14604B115B90120BDE8A2
:102BD000F08700BF207C012801D10220F7E7012007
:102BE000207400BF02206074B8F1000F06D1E978AC
:102BF000E17369786173A978A1730BE0E87802F05A
:102C00000BF9E073687802F007F96073A87802F0B6
:102C100003F9A073A27B617BE07B02F091F9207342
:102C2000207B2870204602F071F906464FF461605F
:102C3000B6FBF0F9B9F1180F2FD91820B9FBF0F055
:102C400000EB4000C000C0EB4011C1EB0020A6EB40
:102C500000163146204602F0CCF938B104206074E9
:102C600000BF0020207400BF0120B0E7204602F022
:102C700041F90746781C80B1B7420ED20B48074491
:102C80003946204602F09EF938B10420607400BF36
:102C90000020207400BF012099E70120607400BF6C
:102CA0000020207400BF00BF91E7000080510100A8
:102CB0002DE9F04704460D4690460026002704B152
:102CC00015B90120BDE8F08700BF207C012801D1A3
:102CD0000220F7E70120207400BF02206074B8F1E1
:102CE000000F0BD128784FF4616148436978C1EB3C
:102CF000011100EB8100A978461812E0287802F053
:102D00008BF84FF4616100FB01F9687802F084F8F8
:102D1000C0EB001009EB8009A87802F07DF809EB00
:102D200000063146204602F064F938B10420607490
:102D300000BF0020207400BF0120C3E72068406866
:102D400020F0050021684860204602F0D3F80746CD
:102D5000781C80B1B7420ED20B4807443946204652
:102D600002F030F938B10420607400BF00202074F4
:102D700000BF0120A6E70120607400BF002020747E
:102D800000BF00BF9EE700008051010070B50446FF
:102D900000250CB9012070BD2068406820F00800B3
:102DA00021684860FFF7DCF8054607E0FFF7D8F830
:102DB000401BB0F57A7F01D90320ECE7206840681A
:102DC00000F008000028F1D00020E4E770B50446C8
:102DD0000E4615461CB1A069B0F5807F01D10120D7
:102DE00070BD94F8410028B9002084F840002046C6
:102DF00000F01FF804F108012068FDF749FE314694
:102E0000A2682068FDF780FE2946236BD4E9010201
:102E1000FDF71CFEA168206850F8210040F0010079
:102E2000A268216841F82200012084F841000020B6
:102E3000D6E710B50446FEF783FE10BD70B5044614
:102E40002546681EB0F1807F01D301200FE0681E87
:102E50004FF0E02148610F214FF0FF3002F0BEFE3D
:102E600000204FF0E021886107200861002070BD3C
:102E70007047704710B50346002200BF93F83C002E
:102E8000012801D1022010BD012083F83C0000BFC1
:102E900022F0FF00CC6840EA040222F440708C6803
:102EA00040EA040222F480604C6840EA040222F402
:102EB00000600C6840EA040222F480500C6940EA89
:102EC000040222F400504C6940EA040222F48040DB
:102ED000CC6940EA04021868426400BF002083F80D
:102EE0003C0000BF00BFCEE730B502460B4600BF36
:102EF00092F83C00012801D1022030BD012082F867
:102F00003C0000BF022082F83D0010684468106851
:102F1000816824F070041868044310684460144DFC
:102F20001068A84213D0134D1068A8420FD0106843
:102F3000B0F1804F0BD0104D1068A84207D00F4D54
:102F40001068A84203D00E4D1068A84205D121F0A8
:102F500080015868014310688160012082F83D00BB
:102F600000BF002082F83C0000BF00BFC5E70000A2
:102F7000002C0140003401400004004000080040E3
:102F8000000C004010B504460CB9012010BD94F8A7
:102F90003D0028B9002084F83C00204600F026F8C7
:102FA000022084F83D00211D206802F0BFF80120B6
:102FB00084F8460000BF84F83E0001213F200155FF
:102FC000402001554120015500BF00BF012084F879
:102FD000420043200155442001554520015500BFC2
:102FE000012084F83D000020D0E7000008B5094A20
:102FF000016891420DD100BF0749C96941F0100134
:10300000054AD1611146C96901F01001009100BF64
:1030100000BF08BD0010004000100240014691F8BA
:103020003D00012801D001207047022081F83D00B9
:10303000164B0868984213D0154B086898420FD079
:103040000868B0F1804F0BD0124B0868984207D047
:10305000114B0868984203D0104B086898420CD175
:103060000868806800F00702062A0CD0086800682B
:1030700040F001000B68186005E00868006840F047
:1030800001000B6818600020CEE70000002C014012
:10309000003401400004004000080040000C0040E3
:1030A000014691F83D00012801D00120704702201F
:1030B00081F83D000868C06840F001000B68D860E6
:1030C000164B0868984213D0154B086898420FD0E9
:1030D0000868B0F1804F0BD0124B0868984207D0B7
:1030E000114B0868984203D0104B086898420CD1E5
:1030F0000868806800F00702062A0CD0086800689B
:1031000040F001000B68186005E00868006840F0B6
:1031100001000B6818600020C8E70000002C014087
:10312000003401400004004000080040000C004052
:1031300010B5044603492068884201D106F070F8B2
:1031400010BD0000000C00402DE9F04104460D4682
:103150001646002700BF94F83C00012802D1022047
:10316000BDE8F081012084F83C0000BF96B9EB680F
:10317000D5E90012206802F015F92068806920F076
:103180000C002168886120688069A968084321686B
:10319000886141E0042E13D1EB68D5E90012206864
:1031A00002F03EF92068806920F44060216888615F
:1031B00020688069A96840EA0120216888612BE0C5
:1031C000082E12D1EB68D5E90012206802F045F90B
:1031D0002068C06920F00C002168C8612068C069BF
:1031E000A96808432168C86116E00C2E13D1EB686A
:1031F000D5E90012206802F04CF92068C06920F47B
:1032000040602168C8612068C069A96840EA01205F
:103210002168C86100E0012700BF002084F83C005D
:1032200000BF38469CE710B504460CB9012010BD1C
:1032300094F83D0028B9002084F83C00204600F0B6
:1032400025F8022084F83D00211D206801F06EFF62
:10325000012084F8460000BF84F83E0001213F2091
:103260000155402001554120015500BF00BF0120FC
:1032700084F8420043200155442001554520015562
:1032800000BF012084F83D000020D0E710B586B0D3
:10329000044600200290039004900590184920688D
:1032A00088422BD100BF1748C06940F0080015497B
:1032B000C8610846C06900F00800019000BF00BF67
:1032C00000BF0846806940F00400886108468069B4
:1032D00000F00400019000BF00BF02200290002017
:1032E0000390049002A90848FEF782FC0022012105
:1032F0003220FEF7BBFE3220FEF7A8FE06B010BD5E
:10330000000C004000100240000801402DE9F0438D
:1033100004460D46002615B994F83E000BE0042D36
:1033200002D13F20005D06E0082D02D14020005D63
:1033300001E04120005D804615B994F842000BE0A1
:10334000042D02D14320005D06E0082D02D1442067
:10335000005D01E04520005D8146B8F1010F02D11A
:10336000B9F1010F02D00120BDE8F0831DB90220A0
:1033700084F83E000EE0042D03D102213F200155C8
:1033800008E0082D03D102214020015502E002216E
:10339000412001551DB9022084F842000EE0042DA1
:1033A00003D102214320015508E0082D03D1022159
:1033B0004420015502E002214520015535B1042D7C
:1033C0000BD0082D10D00C2D1CD114E02068C06843
:1033D00040F002002168C86016E02068C06840F034
:1033E00004002168C8600FE02068C06840F0080051
:1033F0002168C86008E02068C06840F010002168BB
:10340000C86001E0012600BF00BF46BB012229467B
:10341000206801F0D9FE16492068884213D015496A
:10342000206888420FD02068B0F1804F0BD012493D
:103430002068884207D011492068884203D010498B
:10344000206888420CD12068806800F00707062FAA
:103450000CD02068006840F001002168086005E099
:103460002068006840F001002168086030467BE772
:10347000002C0140003401400004004000080040DE
:10348000000C004010B5044620680069C0F34000FD
:10349000D8B12068C068C0F34000B0B16FF002003E
:1034A00021680861012020772068806900F003000E
:1034B00018B12046FFF73CFE05E0204600F0A8F9D1
:1034C000204600F0C9FB0020207720680069C0F387
:1034D0008000D8B12068C068C0F38000B0B16FF040
:1034E000040021680861022020772068806900F4C8
:1034F000407018B12046FFF71BFE05E0204600F0A3
:1035000087F9204600F0A8FB00202077206800699A
:10351000C0F3C000D8B12068C068C0F3C000B0B12B
:103520006FF0080021680861042020772068C069D6
:1035300000F0030018B12046FFF7FAFD05E0204631
:1035400000F066F9204600F087FB00202077206815
:103550000069C0F30010D8B12068C068C0F3001043
:10356000B0B16FF010002168086108202077206852
:10357000C06900F4407018B12046FFF7D9FD05E09E
:10358000204600F045F9204600F066FB0020207739
:103590002068006900F0010058B12068C06800F0A0
:1035A000010030B16FF0010021680861204600F091
:1035B00055FB20680069C0F3C01058B12068C0688E
:1035C000C0F3C01030B16FF0800021680861204660
:1035D000FFF74EFC20680069C0F3801058B12068E6
:1035E000C068C0F3801030B16FF0400021680861FE
:1035F000204600F060FB20680069C0F3401058B11D
:103600002068C068C0F3401030B16FF0200021681E
:1036100008612046FFF72DFC10BD000010B586B0F4
:1036200004460020029003900490059052492068BF
:10363000884218D100BF5148806940F004004F49CA
:1036400088610846806900F00400019000BF00BF57
:1036500008150290022003900320059002A9484813
:10366000FEF7C6FA85E02068B0F1804F22D100BF96
:103670004248806940F008004049886108468069F6
:1036800000F00800019000BF00BF08200290022057
:1036900003900320059002A93A48FEF7A9FA00BF5B
:1036A0003949486820F4407040F0E06040F4807090
:1036B00048605EE035492068884218D100BF2F4835
:1036C000806940F008002D4988610846806900F053
:1036D0000800019000BF00BF01200290022003906B
:1036E0000320059002A92748FEF782FA41E0284905
:1036F0002068884221D100BF2048806940F0200026
:103700001E4988610846806900F02000019000BFD2
:1037100000BF4FF400500290022003900320059058
:1037200002A91C48FEF764FA00BF1749486840F038
:10373000E06040F4805048601BE0174920688842F0
:1037400017D100BF0D48806940F010000B49886117
:103750000846806900F01000019000BF00BF4020C3
:103760000290022003900320059002A90B48FEF767
:103770003FFA06B010BD0000002C014000100240CE
:1037800000080140000C014000000140000400401E
:1037900000080040001401400034014000100140C6
:1037A0002DE9F04104460E461546002700BF94F867
:1037B0003C00012802D10220BDE8F081012084F8FC
:1037C0003C0000BF35B1042D09D0082D0CD00C2DC4
:1037D00014D10EE03146206801F008FD10E03146BA
:1037E000206801F03BFD0BE03146206801F074FDDC
:1037F00006E03146206801F0ABFD01E0012700BF83
:1038000000BF00BF002084F83C0000BF3846D3E76B
:1038100010B5044613492068884203D1124803F0CA
:1038200011FF1EE011492068884203D1104803F0BF
:1038300009FF16E00F492068884203D10E4803F0C3
:1038400001FF0EE00D492068884203D10C4803F0C7
:10385000F9FE06E02068B0F1804F02D1094803F07C
:10386000F1FE10BD002C0140F4AF002000340140F7
:1038700024B000200004004054B0002000080040A4
:1038800084B00020B4B0002010B504460CB901206B
:1038900010BD94F83D0028B9002084F83C00204673
:1038A00000F026F8022084F83D00211D206801F078
:1038B0003DFC012084F8460000BF84F83E00012151
:1038C0003F200155402001554120015500BF00BF58
:1038D000012084F842004320015544200155452031
:1038E000015500BF012084F83D000020D0E7000012
:1038F00038B5044643492068884216D100BF424883
:10390000806940F40060404988610846806900F49D
:103910000060009000BF00BF002202211B20FEF7C4
:10392000A5FB1B20FEF792FB6AE02068B0F1804FF8
:1039300016D100BF3448C06940F001003249C86167
:103940000846C06900F00100009000BF00BF0022DF
:1039500002211C20FEF78AFB1C20FEF777FB4FE0BC
:103960002A492068884216D100BF2748C06940F024
:1039700002002549C8610846C06900F002000090B5
:1039800000BF00BF002202211D20FEF76FFB1D209B
:10399000FEF75CFB34E01E492068884216D100BF68
:1039A0001948C06940F004001749C8610846C06959
:1039B00000F00400009000BF00BF002202211E2082
:1039C000FEF754FB1E20FEF741FB19E01149206869
:1039D000884215D100BF0C48806940F400500A4964
:1039E00088610846806900F40050009000BF00BF65
:1039F000002202212E20FEF739FB2E20FEF726FBA7
:103A000038BD0000002C01400010024000040040BE
:103A10000008004000340140F0B504460D46002681
:103A200015B994F83E000BE0042D02D13F20005D53
:103A300006E0082D02D14020005D01E04120005D3C
:103A4000012801D00120F0BD1DB9022084F83E00FC
:103A50000EE0042D03D102213F20015508E0082D7E
:103A600003D102214020015502E0022141200155ED
:103A700035B1042D0BD0082D10D00C2D1CD114E025
:103A80002068C06840F002002168C86016E0206825
:103A9000C06840F004002168C8600FE02068C0687A
:103AA00040F008002168C86008E02068C06840F065
:103AB00010002168C86001E0012600BF00BFD6BB2E
:103AC00001222946206801F07FFB1F4920688842B7
:103AD00003D01E492068884201D1012000E0002067
:103AE00028B12068406C40F40040216848641649C1
:103AF0002068884213D01549206888420FD020687A
:103B0000B0F1804F0BD012492068884207D011498C
:103B10002068884203D01049206888420CD1206870
:103B2000806800F00707062F0CD02068006840F07E
:103B300001002168086005E02068006840F001008D
:103B40002168086030467EE7002C014000340140C7
:103B50000004004000080040000C004070B504461E
:103B60000D46002635B1042D0BD0082D10D00C2D9C
:103B70001CD114E02068C06820F002002168C860F1
:103B800016E02068C06820F004002168C8600FE0DB
:103B90002068C06820F008002168C86008E020683C
:103BA000C06820F010002168C86001E0012600BF55
:103BB00000BF002E4AD100222946206801F004FBF4
:103BC00023492068884203D022492068884201D1D5
:103BD000012000E0002090B100BF2068006A41F29F
:103BE0001111084050B92068006A8910084028B9AE
:103BF0002068406C20F400402168486400BF00BF8A
:103C00002068006A41F21111084050B92068006A2A
:103C10008910084028B92068006820F00100216858
:103C2000086000BF1DB9012084F83E000EE0042D9D
:103C300003D101213F20015508E0082D03D10121C6
:103C40004020015502E0012141200155304670BD60
:103C5000002C0140003401407047000010B50446BC
:103C600006492068884202D105F08AFE05E0044931
:103C70002068884201D105F06FFB10BD00100040A4
:103C8000000C00400246002031B1042907D0082969
:103C900008D00C290CD108E01368586B09E01368B0
:103CA000986B06E01368D86B03E01368186C00E0AB
:103CB00000BF00BF70477047704770B504460025CD
:103CC00020684069C0F3C01594F84100212817D13D
:103CD000B5B100BF00BF2168143151E8001F21F0C9
:103CE00080002168143141E80002002AF3D100BFAE
:103CF000A06B10B1A06BFDF7B0FB204601F0CBFC30
:103D000020684069C0F3801594F84200222817D13A
:103D1000B5B100BF00BF2168143151E8001F21F088
:103D200040002168143141E80002002AF3D100BFAD
:103D3000E06B10B1E06BFDF790FB204601F065FCF5
:103D4000002070BD704700002DE9F84F0446206840
:103D500005682068C668206847694FF00009CA46B0
:103D600005F00F09B9F1000F0AD105F0200038B1B4
:103D700006F0200020B1204601F0A0FCBDE8F88F3D
:103D8000B9F1000F7BD007F0010018B906F490706C
:103D9000002874D005F0010030B106F4807018B12D
:103DA000606C40F00100606405F0040030B107F081
:103DB000010018B1606C40F00200606405F0020080
:103DC00030B107F0010018B1606C40F0040060648D
:103DD00005F0080048B106F0200010B907F0010016
:103DE00018B1606C40F008006064606C002845D039
:103DF00005F0200028B106F0200010B1204601F0A7
:103E00005DFC20684069C0F3801A606C00F0080017
:103E100010B9BAF1000F2CD0204601F0F6FB206853
:103E2000406900F0400000B300BF00BF21681431BA
:103E300051E8001F21F040002168143141E80002E0
:103E4000002AF3D100BFE06B50B17748E16B4863C3
:103E5000E06BFDF72DFB88B1E06B416B88470DE00F
:103E60002046FFF76FFF09E009E02046FFF76AFFF1
:103E700004E02046FFF766FF002060647EE7206BC9
:103E8000012877D105F01000002873D006F010004B
:103E90000028FAD000BF0020009020680068009041
:103EA00020684068009000BF00BF2068406900F0B3
:103EB000400000285FD0E06B006840681FFA80F87F
:103EC000B8F1000F55D0A08D404552DDA4F82E80EA
:103ED000E06B8069202843D000BF00BF21680C310F
:103EE00051E8001F21F4807021680C3141E8000284
:103EF000002AF3D100BF00BF00BF2168143151E890
:103F0000001F21F001002168143141E80002002A5D
:103F1000F3D100BF00BF00BF2168143151E8001F7A
:103F200021F040002168143141E80002002AF3D159
:103F300000BF202084F842000020206300BF00BFA3
:103F400021680C3151E8001F21F0100021680C316C
:103F500041E80002002AF3D100BFE06BFDF77DFAD3
:103F600002206063A08DE28D801A81B22046FFF7A7
:103F7000A3FE03E742E0A08DE18D401A1FFA80F80E
:103F8000E08DD0B3B8F1000F37D000BF00BF21687B
:103F90000C3151E8001F21F4907021680C3141E888
:103FA0000002002AF3D100BF00BF00BF2168143116
:103FB00051E8001F21F001002168143141E800029E
:103FC000002AF3D100BF202084F8420000202063A3
:103FD00000BF00BF21680C3151E8001F21F0100024
:103FE00021680C3141E80002002AF3D100BF022011
:103FF000606341462046FFF75FFEBFE605F08000A4
:1040000030B106F0800018B1204601F0D7FCB5E6CB
:1040100005F0400030B106F0400018B1204601F034
:104020002AFBABE600BFA9E6CF54000810B5044652
:104030000CB9012010BDA06900B100E000BF94F8E8
:10404000410028B9002084F84000204600F02AF8FA
:10405000242084F841002068C06820F400502168C2
:10406000C860204601F0A8FB2068006920F4904059
:10407000216808612068406920F02A0021684861B1
:104080002068C06840F400502168C8600020606467
:10409000202084F8410084F842000020606300BFC3
:1040A000C8E7000010B586B00446002002900390D7
:1040B000049005906A49206888423FD100BF694852
:1040C000806940F48040674988610846806900F44F
:1040D0008040019000BF00BF00BF0846806940F0EB
:1040E000080088610846806900F00800019000BF60
:1040F00000BF40200290022003900320059002A9F7
:104100005948FDF775FD802002900020039004902F
:1041100002A95548FDF76CFD00BF5449486840F0BE
:10412000E06040F00400486000BF00220321252029
:10413000FDF79CFF2520FDF789FF8EE04C492068A4
:10414000884236D100BF4748C06940F40030454935
:10415000C8610846C06900F40030019000BF00BF8C
:1041600000BF0846806940F0040088610846806905
:1041700000F00400019000BF00BF04200290022064
:1041800003900320059002A93A48FDF731FD08206D
:10419000029000200390049002A93648FDF728FD04
:1041A000002211462620FDF761FF2620FDF74EFF75
:1041B00053E03149206888424FD100BF2948C06987
:1041C00040F480202749C8610846C06900F4802077
:1041D000019000BF00BF00BF0846806940F00800A2
:1041E00088610846806900F00800019000BF00BFA8
:1041F00008150290022003900320059002A91A4896
:10420000FDF7F6FC4FF4006002900020039004904C
:1042100002A91548FDF7ECFC184819490860002070
:1042200048600021164881608021C1600021016141
:1042300041618161C161FDF7DBFB08B1FCF703FC63
:1042400000BF0F48E063446200BF002211462720F0
:10425000FDF70CFF2720FDF7F9FE06B010BD0000AA
:104260000038014000100240000C014000000140F5
:104270000044004000080140004800403000024077
:1042800074AF002070B504460D46164694F84200FF
:1042900020280BD105B10EB9012070BD002020638C
:1042A00032462946204601F005FBF6E70220F4E7F6
:1042B00070B504460D46164694F8420020280BD1EE
:1042C00005B10EB9012070BD002020633246294699
:1042D000204601F053FBF6E70220F4E71D4A01688F
:1042E000914236D11C49098801F4004189BB1A4921
:1042F000098801F4804171B1174989780A2903D0EE
:104300000021154A118024E01349098841F4004135
:10431000114A11801DE0104989780D2906D10E49F6
:10432000098841F480410C4A118012E00A498A78D8
:104330000988C1F30D030849C91CCA54C91E09885C
:10434000491C054A118011460988C72901DD002151
:104350001180704700380140E4B0002070472DE91B
:10436000F84F04460E46174699464FF0000A94F857
:10437000410020284AD106B117B90120BDE8F88FC5
:1043800000206064212084F84100FDF7E9FD8246A9
:10439000A784E784A068B0F5805F04D1206910B9D4
:1043A0000025B04602E035464FF000081BE05346BA
:1043B000002280212046CDF8009001F02FFB08B1AB
:1043C0000320DBE745B9B8F80000C0F30800216816
:1043D000486008F1020803E02878216848606D1CF5
:1043E000E08C401EE084E08C0028E0D1534600229F
:1043F00040212046CDF8009001F010FB08B10320C9
:10440000BCE7202084F841000020B7E70220B5E790
:10441000704700BFFEE7000000B591B029482A4967
:10442000086004204860002127488160C1604FF483
:10443000002101614FF4E0014161002101764176E4
:104440008176C17601774177FCF7C6FE08B1FCF7AB
:10445000FAFA002010900F909DF8400040110E9045
:104460009DF840004FF6FF7101EAC020001D0D903D
:104470009DF83C0040110C909DF83C0001EAC020E2
:10448000001D0B900120069000200790012008904D
:10449000BDF838000190BDF834000290BDF830003E
:1044A0000390BDF82C000490002005900120099095
:1044B00001A90548FCF705FC0348FCF798FF11B07B
:1044C00000BD00000064004014AC002008B500BF2F
:1044D0000A48406940F001000849486108464069BF
:1044E00000F00100009000BF00BF002211460D2027
:1044F000FDF7BCFD0D20FDF7A9FD08BD0010024031
:1045000000B587B01C216846FCF790F84FF02040BA
:104510001B4908601B484860062088600021184835
:10452000C16001611021416100218161C1610162AD
:1045300041624FF4805181620021C1620163416395
:104540008163002000900F20019003200290002042
:104550000390102004901120059000200690002266
:1045600069460748FEF732FC08B1FCF76CFA0648CA
:10457000C06940F480600449C86107B000BD000014
:104580003CAC0020040100A00000014000B585B053
:104590000020019002900390049000BF8E48806933
:1045A00040F040008C4988610846806900F0400076
:1045B000009000BF00BF00BF0846806940F01000B7
:1045C00088610846806900F01000009000BF00BFBD
:1045D00000BF0846806940F0800088610846806915
:1045E00000F08000009000BF00BF00BF0846806957
:1045F00040F0040088610846806900F004000090E3
:1046000000BF00BF00BF0846806940F00800886115
:104610000846806900F00800009000BF00BF00BF9E
:104620000846806940F4807088610846806900F41B
:104630008070009000BF00BF00BF0846806940F056
:10464000200088610846806900F02000009000BFCB
:1046500000BF002204216148FDF77CFC01222021DB
:104660005E48FDF777FC01220F215D48FDF772FCE3
:10467000002230215A48FDF76DFC00224FF4006102
:104680005848FDF767FC002244F2C0115648FDF778
:1046900061FC0122D1035448FDF75CFC00224FF479
:1046A00080715248FDF756FC012251024F48FDF738
:1046B00051FC0420019001200290022003900490FC
:1046C00001A94648FDF794FA1820019000200290B5
:1046D0000220039001A94148FDF78AFA20200190A9
:1046E0000120029003900220049001A93B48FDF7AD
:1046F0007FFA4020019000200290039001A93748E2
:10470000FDF776FA4FF4F8600190002002900390D4
:1047100001A93448FDF76CFA3F2001900120029076
:10472000002003900220049001A92D48FDF760FAB3
:1047300001200190002002900220039001A92C4842
:10474000FDF756FA102001900220029003200490F9
:1047500001A92748FDF74CFA4FF4006001900120B1
:104760000290002003900220049001A91D48FDF74B
:104770003FFA4FF4805001900220029003200490F1
:1047800001A91A48FDF734FA4CF2C010019001203B
:104790000290002003900220049001A91248FDF726
:1047A00027FA4FF4807001900120029003900320BB
:1047B000049001A90D48FDF71BFA4FF40070019019
:1047C00011200290002003900320049001A90748C3
:1047D000FDF70EFA05B000BD0010024000180140C0
:1047E00000100140001C014000200140000C01406D
:1047F000000801401FB5002400200390029000BF74
:104800003548C06940F000603349C8610846C06956
:1048100000F00060019000BF00BF00BF0846C06903
:1048200040F08050C8610846C06900F08050019097
:1048300000BF00BFFDF76CFC01212848FEF7E8F837
:1048400084B22748254908604FF0FF3048600021B6
:1048500022488160FEF71EF908B1FCF7F4F8162033
:104860008DF80C0010208DF80D0000208DF80E0042
:10487000012203A91948FEF71BFA08B1FCF7E3F877
:1048800006208DF8080003208DF8090023208DF8FC
:104890000A0000208DF80B00012202A90F48FEF744
:1048A0008BF908B1FCF7CFF845F2500084420AD0EA
:1048B0000020202111231722CDE9001003214FF4FD
:1048C000FD6004F0D9FE05480068006840F0010072
:1048D0000249096808601FBD0010024090AC00202A
:1048E0000028004000B591B000200F9010901C21CE
:1048F00008A8FBF79BFE20216846FBF797FE24489B
:1049000024490860112048600021224881604FF648
:10491000FE71C1600021016141618161FEF7B4FF58
:1049200008B1FCF790F800200F9010900FA91948DB
:10493000FEF7DAFA08B1FCF786F83020089000207C
:1049400009900A900B900C900D900E90082208A9E7
:104950001048FEF725FF08B1FCF775F8002000901D
:1049600001900290039004904FF4005005900020B5
:10497000079069460748FEF77DFA08B1FCF763F82F
:104980000448FEF74BFB0348FEF748FE11B000BD9C
:10499000002C0140A4AC002000B589B00020079095
:1049A00008901C216846FBF741FE4FF080401949F2
:1049B0000860112048600021164881604FF6FE71A2
:1049C000C160002101618161FEF75EFF08B1FCF763
:1049D0003AF800200790089007A90E48FEF784FADD
:1049E00008B1FCF730F830200090002001900290D0
:1049F0000490042269460748FEF7D2FE08B1FCF78E
:104A000022F80448FEF70AFB0248FEF707FE09B049
:104A100000BD0000ECAC002000B589B0002007907C
:104A200008901C216846FBF701FE194819490860E7
:104A3000112048600021174881604FF6FE71C16067
:104A4000002101618161FEF71FFF08B1FBF7FBFF49
:104A500000200790089007A90E48FEF745FA08B114
:104A6000FBF7F1FF302000900020019002900490AD
:104A7000082269460748FEF793FE08B1FBF7E3FFFB
:104A80000448FEF7CBFA0348FEF7C8FD09B000BDA5
:104A90000004004034AD002000B589B0002007902C
:104AA00008901C216846FBF7C1FD194819490860A8
:104AB000112048600021174881604FF6FE71C160E7
:104AC000002101618161FEF7DFFE08B1FBF7BBFF4A
:104AD00000200790089007A90E48FEF705FA08B1D4
:104AE000FBF7B1FF3020009000200190029004906D
:104AF000042269460748FEF753FE08B1FBF7A3FFFF
:104B00000448FEF78BFA0348FEF788FD09B000BDA4
:104B1000000800407CAD002000B587B00020059063
:104B2000069001900290039004901D481D49086072
:104B30004720486000211B48816042F21071C1602B
:104B4000002101618161FEF76EFB08B1FBF77BFF7D
:104B500000200590069005A91248FEF7C5F908B196
:104B6000FBF771FF002001900120029000200390CC
:104B700003200490042201A90A48FEF7E5FA08B1CF
:104B8000FBF761FF04210748FEF7C0FB05480068FA
:104B9000C06840F0010003490968C86007B000BD63
:104BA000000C0040C4AD00201CB500200090019016
:104BB0000F48104908604720486000210D48816077
:104BC00042F20F71C16000218161FEF7DBF908B18B
:104BD000FBF739FF00200090019069460548FEF779
:104BE00083F908B1FBF72FFF0248FEF759FA1CBD05
:104BF000001000400CAE002000B591B000200F90D6
:104C000010901C2108A8FBF711FD20216846FBF736
:104C10000DFD2448244908601120486000212248E5
:104C200081604FF6FE71C1600021016141618161C7
:104C3000FEF72AFE08B1FBF706FF00200F90109048
:104C40000FA91948FEF750F908B1FBF7FCFE302018
:104C50000890002009900A900B900C900D900E90F7
:104C6000002208A91048FEF79BFD08B1FBF7EBFEF8
:104C70000020009001900290039004904FF40050A7
:104C800005900020079069460748FEF7F3F808B141
:104C9000FBF7D9FE0448FEF7C1F90348FEF7BEFC56
:104CA00011B000BD0034014054AE002010B50B48D7
:104CB0000B4908604FF4E1304860002108488160EA
:104CC000C16001610C21416100218161C161FFF777
:104CD000ADF908B1FBF7B7FE10BD00000038014088
:104CE0009CAE002010B50D480D4908604FF41650D9
:104CF000486000210A488160C16001610C21416166
:104D000000218161C161FFF791F908B1FBF79BFEBA
:104D1000012204490448FFF7CBFA10BD00440040CB
:104D2000E4AE0020E6B000209CAE002010B5114893
:104D3000114908604FF4E130486000210E4881605D
:104D4000C16001610C21416100218161C161FFF7F6
:104D50006DF908B1FBF777FE07480068C06840F0BE
:104D6000100005490968C8601E2204490248FFF77F
:104D700089FA10BD004800402CAF0020D4B10020BB
:104D800000BFFEE700BFFEE710B50446207E1649CF
:104D90008978884200D010BD617E1348C078814276
:104DA00000D0F8E72C20005D0F490979884200D037
:104DB000F1E7A07E6071E07EA07104F11C0001F0BB
:104DC00075FEA06004F1200001F070FEE06004F1C7
:104DD000240001F06BFE206104F1280001F066FE62
:104DE000606100BFD7E70000BCB100207047000041
:104DF00008B508490968C9084FF47A72B1FBF2F1A5
:104E00004143009100BF00BF00994A1E0092002953
:104E1000F9D108BD60000020014600BF080900EB81
:104E20008000420001F00F001044C0B2704770B51E
:104E300004460025FDF794F8054607E0FDF790F8D5
:104E4000401BB0F57A7F01D9032070BD206840680F
:104E500000F020000028F1D02068406840F01000E9
:104E6000216848600020F0E770B5044600252068FE
:104E7000406820F0100021684860FDF771F8054691
:104E800007E0FDF76DF8401BB0F57A7F01D90320EC
:104E900070BD2068406800F020000028F1D000209C
:104EA000F6E7000010B51248FDF7CCFD1048006889
:104EB000406800F0010048B104F010FB0C480068A5
:104EC000406820F001000A49096848600848006805
:104ED000406820F0040006490968486000BF0448A3
:104EE00000684068C0F340100028F8D010BD0000F2
:104EF00090AC00200146002200230868006A82B2BC
:104F00000868406A83B243EA0240704730B5014600
:104F100000220023002400200D68AD69AAB20D68AC
:104F2000ED69ACB20D68AD69ABB29A4205D00D68BF
:104F3000ED6963F31F45284601E044EA024030BDB5
:104F4000F0B504460B460021002504F5FA61032B59
:104F50001BD2C3EBC30000EB03100926B0FBF6F035
:104F60001044001D4618481E06EB90066427B0FB4F
:104F7000F7F0361A481EBF00B0FBF7F030440726A2
:104F8000B0FBF6F706FB17051AE0C3EBC30000EB16
:104F900003100926B0FBF6F01044001D084400EB96
:104FA00091006426B1FBF6F6801B4FF4C876B1FB86
:104FB000F6F63044801E0726B0FBF6F706FB170511
:104FC000E8B2F0BD70B504460D4600262046FFF756
:104FD0002EFF08B101260AE0280C21680862A8B259
:104FE000216848622046FFF73FFF00B101263046A6
:104FF00070BD70B504460D4600262046FFF717FF2A
:1050000008B101260AE0280C21688861A8B221684D
:10501000C8612046FFF728FF00B10126304670BD69
:105020007047002104E00023821C53544A1CD1B273
:105030000A29F8DB002101704170704710B5FCF7B8
:1050400095FF10BD00B595B028210BA8FBF7EEFA2F
:10505000142106A8FBF7EAFA18216846FBF7E6FADE
:1050600005200B904FF480300C9000200D90012013
:105070000E900F9002201290C10313914FF4E01193
:1050800014910BA8FDF792FA08B1FBF7DCFC0F2096
:10509000069002200790002008904FF4806009904D
:1050A00000200A90022106A8FDF75CF908B1FBF781
:1050B000CAFC01200090000201906846FDF7BAF892
:1050C00008B1FBF7C0FC15B000BD704710B5024831
:1050D000FEF7D8F910BD0000A4AC002010B50248BE
:1050E000FEF7D0F910BD0000ECAC002010B502486E
:1050F000FEF7C8F910BD000034AD002010B502481D
:10510000FEF7C0F910BD00007CAD002010B50248CC
:10511000FEF7B8F910BD0000C4AD002010B502487C
:10512000FEF7B0F910BD000054AE002010B50268C3
:10513000204B98420ED0204B98420BD0B0F1804FBC
:1051400008D01E4B984205D01D4B984202D01D4BF3
:10515000984203D122F070024B681A43154B9842D3
:105160000ED0154B98420BD0B0F1804F08D0134BA6
:10517000984205D0124B984202D0124B984203D16C
:1051800022F44072CB681A4322F080034C6943EA50
:10519000040202608B68C3620B688362054B98420D
:1051A00002D0054B984201D10B690363012343618F
:1051B00010BD0000002C01400034014000040040FC
:1051C00000080040000C004030B501F01F0501242C
:1051D00004FA05F3046A9C430462046A01F01F05A3
:1051E00002FA05F52C43046230BD000030B5026AB6
:1051F000056A25F0010505624368846924F070049E
:1052000024F003040D682C4322F002028D682A4327
:10521000104DA84200D103E00F4DA84206D100BFB7
:1052200022F00802CD682A4322F00402094DA84268
:1052300002D0094DA84207D123F4807323F40073F0
:105240004D692B438D692B43436084614D684563F1
:10525000026230BD002C01400034014030B5026ACA
:10526000056A25F0100505624368846924F4E0446A
:1052700024F440740D6844EA052422F020028D686D
:1052800042EA0512124DA84200D103E0114DA84296
:1052900007D100BF22F08002CD6842EA051222F059
:1052A00040020B4DA84202D00A4DA84209D123F476
:1052B000806323F400634D6943EA85038D6943EA03
:1052C0008503436084614D688563026230BD0000E0
:1052D000002C01400034014030B5026A056A25F413
:1052E000807505624368C46924F0700424F00304E7
:1052F0000D682C4322F400728D6842EA0522124D9B
:10530000A84200D103E0114DA84207D100BF22F40A
:105310000062CD6842EA052222F480620A4DA8426A
:1053200002D00A4DA84209D123F4805323F400533C
:105330004D6943EA05138D6943EA05134360C4616F
:105340004D68C563026230BD002C0140003401404D
:1053500030B5036A056A25F4805505624468C26960
:1053600022F4E04222F440720D6842EA052223F45E
:1053700000538D6843EA0533084DA84202D0084D1A
:10538000A84204D124F480444D6944EA8514446061
:10539000C2614D680564036230BD0000002C01400D
:1053A0000034014070B50C461546026A066A26F0C4
:1053B000010606628169154EB0420ED0144EB0420D
:1053C0000BD0B0F1804F08D0124EB04205D0124E33
:1053D000B04202D0114EB04201D1012600E00026B9
:1053E0001EB121F00301294301E041F0010121F048
:1053F000F001F02606EA0316314322F00A0204F017
:105400000A0632438161026270BD0000002C014037
:10541000003401400004004000080040000C00403F
:1054200070B50C461546026A066A26F0100606623A
:10543000816921F4407141EA052121F470414FF462
:10544000704606EA0336314322F0A002A02606EA9F
:10545000041632438161026270BD70B50C46154678
:10546000026A066A26F480760662C16921F00301A9
:10547000294321F0F001F02606EA0316314322F415
:1054800000724FF4007606EA04263243C1610262DC
:1054900070BD70B50C461546026A066A26F4805641
:1054A0000662C16921F4407141EA052121F470418D
:1054B0004FF4704606EA0336314322F400524FF4AB
:1054C000005606EA04363243C161026270BD70B50F
:1054D00005466C6A0020E085E0842046FEF732FC39
:1054E00070BD70B506460025746A20684069C0F337
:1054F000C01594F84100212805D125B10020E08491
:10550000204600F0C8F820684069C0F3801594F880
:105510004200222805D125B10020E085204600F078
:1055200074F8606C40F0100060642046FEF70AFCDE
:1055300070BD70B505466C6A2868006800F02000F0
:10554000002842D1E08500BF00BF21680C3151E83E
:10555000001F21F4807021680C3141E80002002A0C
:10556000F3D100BF00BF00BF2168143151E8001F14
:1055700021F001002168143141E80002002AF3D132
:1055800000BF00BF00BF2168143151E8001F21F0A7
:1055900040002168143141E80002002AF3D100BF25
:1055A000202084F84200206B01280ED100BF00BFEC
:1055B00021680C3151E8001F21F0100021680C31E6
:1055C00041E80002002AF3D100BF00206063206B95
:1055D000012804D1A18D2046FEF76EFB02E0204693
:1055E000FEF77CFE70BD70B505466C6A01206063F5
:1055F000206B012805D1A08D41082046FEF75CFBF9
:1056000002E02046FEF7AAFE70BD00BF00BF0268A0
:105610000C3252E8002F22F4907102680C3242E8FA
:105620000013002BF3D100BF00BF00BF026814328B
:1056300052E8002F22F001010268143242E8001300
:10564000002BF3D100BF016B01290ED100BF00BFB9
:1056500002680C3252E8002F22F0100102680C326E
:1056600042E80013002BF3D100BF202180F8421044
:1056700000210163704710B504462068C06820F01F
:1056800040002168C860202084F841002046FEF7D1
:10569000BFFE002010BD00BF00BF02680C3252E800
:1056A000002F22F0C00102680C3242E80013002BE8
:1056B000F3D100BF202180F841107047F8B50446AF
:1056C00094F84200222875D1A068B0F5805F0CD113
:1056D000206950B90025A66A20684068C0F3080018
:1056E0003080A06A801CA06215E0A56A0026A06830
:1056F000B0F5805F03D0A06828B9206918B9206888
:105700004068287004E02068406800F07F0028703E
:10571000A06A401CA062E08D401E80B2E085002897
:1057200046D12068C06820F020002168C860206849
:10573000C06820F480702168C8602068406920F04B
:10574000010021684861202084F842000020606345
:10575000206B012826D10020206300BF00BF2168F4
:105760000C3151E8001F21F0100021680C3141E894
:105770000002002AF3D100BF2068006800F010008A
:1057800010280AD100BF0020009020680068009017
:1057900020684068009000BF00BFA18D2046FEF742
:1057A0008BFA02E02046FEF799FD0020F8BD01E0EB
:1057B0000020FBE70220F9E770B50446216809697B
:1057C00021F44051E2681143226811612269A16805
:1057D0001143626941EA02052168C96841F20C621D
:1057E000914329432268D1602168496921F44071BD
:1057F000A2691143226851612D4A2168914202D168
:10580000FCF78CFE01E0FCF779FE00EBC00101EB38
:10581000001162689200B1FBF2F100EBC00202EBF2
:10582000001263689B00B2FBF3F26423B2FBF3F255
:1058300002EBC20303EB0212A1EB8201322202EB64
:1058400001116422B1FBF2F101F0F00100EBC002A2
:1058500002EB001263689B00B2FBF3F26423B2FB1D
:10586000F3F201EB021200EBC00101EB00116368DF
:105870009B00B1FBF3F100EBC00303EB0013666880
:10588000B600B3FBF6F36426B3FBF6F303EBC306F3
:1058900006EB0313A1EB8301322303EB0111642315
:1058A000B1FBF3F101F00F0111442268916070BD6A
:1058B0000038014077B581B0044615460298A062D1
:1058C000A58500206064222084F842002848E16B0E
:1058D00088622848E16BC8622748E16B08630020B2
:1058E000E16B486302AE32682368191D2B46E06BFA
:1058F000FCF7C4F800BF002000902068006800900A
:1059000020684068009000BF00BF206970B100BFF0
:1059100000BF21680C3151E8001F41F480702168FC
:105920000C3141E80002002AF3D100BF00BF00BFE4
:105930002168143151E8001F41F001002168143141
:1059400041E80002002AF3D100BF00BF00BF216878
:10595000143151E8001F41F040002168143141E842
:105960000002002AF3D100BF002004B070BD000087
:1059700033550008E7550008E354000810B5034606
:1059800099629A85DA8500205864222083F84200C3
:10599000186928B11868C06840F480701C68E0601D
:1059A0001868406940F001001C6860611868C068B0
:1059B00040F020001C68E060002010BD014691F816
:1059C0004100212828D18868B0F5805F0BD1086993
:1059D00048B90A6A1088C0F308000B685860086A62
:1059E000801C086205E00B6A581C086218780B6876
:1059F0005860C88C401E80B2C88458B90868C06816
:105A000020F080000B68D8600868C06840F0400053
:105A10000B68D860002070470220FCE72DE9F041B8
:105A200004460D4617469846069E34E0701C88B31F
:105A30002EB1FCF795FAA0EB0800B0422BD900BFBD
:105A400000BF21680C3151E8001F21F4D07021689B
:105A50000C3141E80002002AF3D100BF00BF00BFB3
:105A60002168143151E8001F21F001002168143130
:105A700041E80002002AF3D100BF202084F8410051
:105A800084F8420000BF002084F8400000BF0320DB
:105A9000BDE8F081FFE7206800682840A84201D1F6
:105AA000012000E00020B842C0D00020F0E7000054
:105AB00010B50648FEF748F900BF01220449034823
:105AC000FEF7F6FB0028F8D110BD00009CAE0020C8
:105AD000E6B0002010B50248FEF736F910BD000010
