:020000040800F2
:1000000018B60020D5010008813E0008BF35000861
:100010007D3E0008D90400084549000800000000A2
:10002000000000000000000000000000B9400008CF
:10003000DD04000800000000853E0008D5400008EF
:10004000EF010008EF010008EF0100083D3F000844
:10005000EF010008EF010008EF010008EF010008C0
:10006000EF010008EF010008EF010008EF010008B0
:10007000EF010008EF010008EF010008EF010008A0
:10008000EF010008EF010008EF010008EF01000890
:1000900025490008EF010008EF010008EF01000802
:1000A000EF010008EF010008EF01000865410008BA
:1000B000754100088541000895410008EF010008DE
:1000C000EF010008EF010008EF010008EF01000850
:1000D000EF010008F5480008054900081549000827
:1000E000EF010008EF010008EF010008EF01000830
:1000F000EF010008EF010008B5410008EF0100081A
:10010000EF010008EF010008A5410008EF01000819
:10011000EF010008EF010008EF010008EF010008FF
:10012000EF010008EF010008EF010008EF010008EF
:1001300000F002F800F03FF80AA090E8000C8244BA
:100140008344AAF10107DA4501D100F034F8AFF297
:10015000090EBAE80F0013F0010F18BFFB1A43F0A5
:10016000010318475469000074690000103A24BF65
:1001700078C878C1FAD8520724BF30C830C144BF0C
:1001800004680C607047000000230024002500264E
:10019000103A28BF78C1FBD8520728BF30C148BFEA
:1001A0000B607047642900F07780002070471FB50E
:1001B0001FBD10B510BD00F061F91146FFF7F7FF44
:1001C00004F0F2FD00F07FF903B4FFF7F2FF03BC87
:1001D00004F0D6FB0948804709480047FEE7FEE7E0
:1001E000FEE7FEE7FEE7FEE7FEE7FEE7FEE7FEE7E7
:1001F00004480549054A064B704700006341000862
:100200003101000818B0002018B6002018B20020F4
:1002100018B20020704700000FB4044910B503AABB
:10022000029800F0F9F810BC5DF814FB54000020AF
:100230002DE9F0410E460446002020622046E16888
:10024000884730B3252805D0D4E901219047206A9A
:10025000401CF2E7E168204600278847050018D0D7
:10026000A5F14100192802D820354FF40067324625
:10027000294620462760FFF795FF40B1012804D0AA
:10028000F61D26F007060836D8E7361DD6E72846BD
:10029000DAE7206ABDE8F0812DE9F0410646002446
:1002A00010687529314616A510D0AFF300800028DC
:1002B00002DA404213A507E031688A0701D512A58A
:1002C00002E0490704D511A5012401E0AFF3008045
:1002D00000210A2206F1240709E0B0FBF2FCB0FB82
:1002E000F2F302FB1C00303078541846491C0028F9
:1002F000F3D123462A463046BDE8F04100F033B83A
:10030000000000002D0000002B0000002000000075
:100310004FF0000200B5134694469646203922BF9E
:10032000A0E80C50A0E80C50B1F12001BFF4F7AFE9
:10033000090728BFA0E80C5048BF0CC05DF804EBCB
:10034000890028BF40F8042B08BF704748BF20F839
:10035000022B11F0804F18BF00F8012B7047704737
:100360007047704770472DE9F0470D469946924611
:10037000044600F124080168880604D5E06921F0EC
:100380001001216000E00120A84201DD471B00E0D0
:100390000027A1697A1902EB0900081AA0612078E8
:1003A000C00602D42046AFF30080002608E0D4E95E
:1003B00001211AF806009047206A401C761C206232
:1003C0004E45F4DB2078C0060AD52046AFF3008006
:1003D00006E0D4E9012130209047206A401C2062C9
:1003E000381EA7F10107F4DC07E0D4E9012118F871
:1003F00005009047206A401C2062281EA5F10105D7
:10040000F3DC2046AFF300802078000602D50220FE
:10041000BDE8F0870120FBE7074B70B50D467B4434
:1004200000F011F80446284600F020F810B14FF013
:10043000FF3070BD204670BDD346000001694A1CE4
:1004400002610878704700B58FB0CDE90131002115
:10045000059105497944CDE9031011466846FFF737
:10046000E7FE0FB000BD0000E5FFFFFF007B00F0DE
:100470008000704700487047B8AF00207546FFF70E
:10048000F9FFAE4605006946534620F00700854651
:1004900018B020B5FFF7ACFEBDE820404FF00006D5
:1004A0004FF000074FF000084FF0000B21F007015C
:1004B000AC46ACE8C009ACE8C009ACE8C009ACE89F
:1004C000C0098D46704710B50446AFF30080204642
:1004D000BDE81040FFF778BE00BFFEE7704772B678
:1004E00000BFFEE770B50446B3F5804F13D1D1E9E4
:1004F000000540EA05108D6840EA05208D69284313
:100500008D8940EA054054F82250064E3540284374
:1005100044F8220003E06FF0704044F8220000200D
:1005200070BD00000000F0CF70B50246086852F8B8
:10053000200020F001000E6842F826008868082894
:1005400001D1402300E00023486818438E683043FF
:10055000CE6830430E6930434E693043CE69304334
:100560000E6A30434E6A30438E6A3043CE6A30435F
:100570000E6B40EA060488690443486B0443074D48
:1005800045F4806545F4E025086852F82000A8434A
:1005900020430E6842F82600002070BD7FFB080053
:1005A00010B50346D1E9000440EA04108C6840EA23
:1005B00004208C8940EA0444088A401E44EA00541E
:1005C000087D801E44EA00608C692043541C53F867
:1005D000244004F040442043541C43F824000020ED
:1005E00010BDF0B504460A46216894F82050012D4C
:1005F00001D0022D74D1D1F8000240F00100C1F801
:100600000002107D00F01F06012000FA06F3D1F869
:100610001C029843C1F81C02D069C8B9D1F80C0279
:100620009843C1F80C02908880B2968940EA064649
:1006300001F51070576940F83760108880B216894C
:1006400040EA064601F51070576900EBC7004660A6
:10065000D069012819D1D1F80C021843C1F80C0255
:10066000908880B2168840EA064601F510705769F6
:1006700040F83760908980B2168940EA064601F555
:100680001070576900EBC7004660906928B9D1F82F
:1006900004029843C1F8040204E0D1F804021843AC
:1006A000C1F80402106928B9D1F814029843C1F8BE
:1006B000140204E0D1F814021843C1F81402106ABD
:1006C000012804D1D1F81C021843C1F81C02D1F84A
:1006D000000220F00100C1F800020020F0BDFFE799
:1006E000606A40F4802060620120F7E7704710B52F
:1006F0000246002092F82030012B01D0022B09D1B4
:1007000021B91468E46804F0030003E01468246964
:1007100004F0030010BD70B5044694F82050012D7C
:1007200001D0022D7DD151B92068C06800F00300CE
:1007300080B9606A40F400106062012070BD2068DA
:10074000006900F0030028B9606A40F4001060629C
:100750000120F3E7206800F5D87000EB0110006875
:1007600000F004009060906840B9206800F5D870EF
:1007700000EB01100068400D106007E0206800F5F4
:10078000D87000EB01100068C0085060206800F5C8
:10079000D87000EB0110006800F00200D060206803
:1007A00000F5D87000EB0110406800F00F00082839
:1007B00002D30820106108E0206800F5D87000EB33
:1007C0000110406800F00F001061206800F5D8703B
:1007D00000EB0110406800F47F40000A906120683F
:1007E00000F5D87000EB01104068000C50612068E3
:1007F00000F5D87000EB011080681870206800F5D3
:10080000D87000EB0110806800F47F40000A587037
:10081000206800F5D87000EB0110806800F47F00BC
:1008200000E03CE0000C9870206800F5D87000EB08
:1008300001108068000ED870206800F5D87000EBB9
:100840000110C0681871206800F5D87000EB011025
:10085000C06800F47F40000A5871206800F5D87025
:1008600000EB0110C06800F47F00000C9871206854
:1008700000F5D87000EB0110C068000ED87131B9D6
:100880002068C06840F020002668F06005E020681D
:10089000006940F020002668306100204EE7606A61
:1008A00040F480206062012048E72DE9F05F0446B3
:1008B0000025206846692068D0F804902068876881
:1008C0002068D0F80CA02068D0F810B02068D0F8CC
:1008D000188006F00100002855D007F00100C0B1D3
:1008E00001202168886007F0020018B1204600F05E
:1008F0003EFA0EE007F0040010B145F4006508E090
:1009000007F0080010B145F4805502E0204600F0E1
:100910002DFA07F48070C8B14FF4807021688860A8
:1009200007F4007018B1204600F023FA0EE007F437
:10093000806010B145F4005508E007F4006010B184
:1009400045F4804502E0204600F012FA07F48030BA
:10095000C8B14FF480302168886007F4003018B1C6
:10096000204600F008FA0EE007F4802010B145F4AC
:10097000004508E007F4002010B145F4803502E09E
:10098000204600F0F7F906F0080038B10AF0100030
:1009900020B145F4007510202168C86006F00400FD
:1009A00040B10AF0080028B108202168C86020463C
:1009B00000F0A8F906F0020038B12068C06800F025
:1009C000030010B1204600F09EF906F0400038B157
:1009D0000BF0100020B145F48065102021680861FB
:1009E00006F0200040B10BF0080028B10820216873
:1009F0000861204600F088F906F0100038B1206840
:100A0000006900F0030010B1204600F07EF906F402
:100A1000003040B109F0100028B110202168486072
:100A2000204600F073F906F4803040B109F0080068
:100A300028B1082021684860204600F09DF906F49E
:100A4000004088B309F0040078B306F4807020B148
:100A500008F0010008B145F0010506F4007020B16E
:100A600008F0020008B145F0020506F4806020B1EC
:100A700008F0040008B145F0040506F40060A0B1D8
:100A800008F0700088B108F07000402817D006DC2C
:100A900010280BD020280CD0302819D10CE0502879
:100AA00010D0602814D110E01DE019E045F00805D1
:100AB0000FE045F010050CE045F0200509E045F099
:100AC000400506E045F0800503E045F4807500E050
:100AD00000BF00BF2068806920F070002168886135
:100AE0000420216848602DB1606A28436062204676
:100AF000FFF7FCFDBDE8F09F70B504460CB901207E
:100B000070BD94F8200010B9204600F0AFF82068BE
:100B1000006840F001002168086000F043FC0546D1
:100B20000DE000F03FFC401B0A2808D9606A40F441
:100B300000306062052084F820000120E0E7206892
:100B4000406800F001000028EBD02068006820F029
:100B500002002168086000F025FC05460DE000F069
:100B600021FC401B0A2808D9606A40F4003060620A
:100B7000052084F820000120C2E72068406800F0CA
:100B800002000028EBD1207E012806D120680068F1
:100B900040F080002168086005E02068006820F0CF
:100BA000800021680860607E012806D12068006806
:100BB00040F040002168086005E02068006820F0EF
:100BC000400021680860A07E012806D120680068E6
:100BD00040F020002168086005E02068006820F0EF
:100BE000200021680860E07E012806D120680068A6
:100BF00020F010002168086005E02068006840F0DF
:100C0000100021680860207F012806D12068006854
:100C100040F008002168086005E02068006820F0C6
:100C2000080021680860607F012806D120680068FC
:100C300040F004002168086005E02068006820F0AA
:100C4000040021680860D4E90201084321690843CF
:100C5000616908436168491E08432168C861002032
:100C60006062012084F82000002049E710B586B0BA
:100C70000446002002900390049005901E492068CD
:100C8000884236D100BF1D48C06940F000701B4942
:100C9000C8610846C06900F00070019000BF00BF45
:100CA00000BF0846806940F00400886108468069FA
:100CB00000F00400019000BF00BFC81402900020A3
:100CC0000390049002A90E4800F0B4F94FF480504C
:100CD0000290022003900320059002A9084800F02A
:100CE000A9F900221146142000F0E2FB142000F0C4
:100CF000CFFB06B010BD00000064004000100240B1
:100D0000000801407047704770477047704770B5E2
:100D1000044694F82000012822D1022084F8200003
:100D20002068006820F001002168086000F03AFBAC
:100D300005460DE000F036FB401B0A2808D9606A22
:100D400040F400306062052084F82000012070BD6E
:100D50002068406800F001000028EBD16062F6E7EF
:100D6000606A40F4002060620120F0E7704770473D
:100D7000704770477047704770470146002291F8EE
:100D80002100022808D00420886300BF002081F8D9
:100D9000200000BF012070470868006820F00E00A6
:100DA0000B6818600868006820F001000B68186084
:100DB00091F8403001209840CB6B5860012081F8B9
:100DC000210000BF002081F8200000BF1046E2E7AC
:100DD00070B50446002594F82100022803D00420B1
:100DE000A0630125C1E02068006820F00E002168A2
:100DF00008602068006820F00100216808605C49F4
:100E00002068884252D95A4978392068884201D1ED
:100E1000012047E0564964392068884201D11020FA
:100E200040E0534950392068884201D1801539E0AB
:100E30004F493C392068884201D1801432E04C4946
:100E400028392068884202D14FF480302AE048498E
:100E500014392068884202D14FF4801022E04449BE
:100E60002068884201D140041CE042492068884241
:100E700001D1012016E03F4914312068884201D198
:100E800010200FE03B4928312068884201D18015AD
:100E900008E038493C312068884201D1801401E0E3
:100EA0004FF480303349091F086051E030497839E8
:100EB0002068884201D1012047E02D49643920682B
:100EC000884201D1102040E02949503920688842E9
:100ED00001D1801539E026493C392068884201D18A
:100EE000801432E0224928392068884202D14FF428
:100EF00080302AE01E4914392068884202D14FF41C
:100F0000801022E01A492068884201D140041CE088
:100F100018492068884201D1012016E01549143192
:100F20002068884201D110200FE012492831206842
:100F3000884201D1801508E00E493C312068884282
:100F400001D1801401E04FF48030094980394860B4
:100F5000012084F8210000BF002084F8200000BF99
:100F6000606B10B12046616B8847284670BD000059
:100F7000800002400804024010B50446A0B204F00C
:100F8000ADF910BD00B585B000200190029003902E
:100F900004902248006808B105B000BD01201F4937
:100FA000086000BF1E48406940F480701C494861D9
:100FB0000846406900F48070009000BF00BF4FF207
:100FC0003F000190022002900320049001A91548DF
:100FD00000F030F841F23F0001900220029003201F
:100FE000049001A9104800F025F84FF68370019095
:100FF000022002900320049001A90C4800F01AF886
:101000004DF633700190022002900320049001A954
:10101000074800F00FF800BFBEE700001C000020EA
:1010200000100240001C0140002001400018014057
:10103000001401402DE9F847024600239C467BE15D
:101040004FF0010808FA03F4D1F8008008EA040020
:10105000A0427DD1DFF8F4A2D1F80480A8EB0A0900
:10106000D0453AD014DCB8F1030F50D009DCB8F108
:10107000000F31D0B8F1010F1CD0B8F1020F49D1E7
:1010800020E0B8F1110F18D0B8F1120F42D11EE0D4
:10109000B9F5881F25D006DCB9F5803F20D0B9F519
:1010A000801F37D11AE0B9F5001F18D0B9F5041F19
:1010B00030D117E0D1F80CC02DE0D1F80C8008F148
:1010C000040C28E0D1F80C8008F1080C23E0D1F8DA
:1010D0000C8008F10C0C1EE000BF00BF00BF00BF79
:1010E00000BF00BFD1F80880B8F1000F02D14FF067
:1010F000040C0BE0D1F80880B8F1010F03D14FF0D8
:10110000080C146102E04FF0080C546103E04FF04A
:10111000000C00E000BF00BFFF2801D8904601E0AE
:1011200002F104084646FF2802D84FEA830803E08C
:10113000A3F108084FEA88084746D6F800804FF028
:101140000F0909FA07F928EA09080CFA07F900E07B
:101150007AE048EA0908C6F80080D1F8048008F06F
:101160008058B8F1805F6FD100BFDFF8E481D8F814
:10117000188048F00108DFF8D891C9F81880C846EF
:10118000D8F8188008F00108CDF8008000BF00BF33
:101190004FEAB9384FEA930958F829504FEA837853
:1011A0004FEA18794FF00F0808FA09F825EA080500
:1011B000DFF8A081424502D14FF0000824E0DFF8BB
:1011C0009881424502D14FF001081DE0DFF88C8183
:1011D000424502D14FF0020816E0DFF88481424513
:1011E00002D14FF003080FE0DFF87881424502D1C9
:1011F0004FF0040808E0DFF87081424502D14FF05B
:10120000050801E04FF006084FEA83794FEA1979A3
:1012100008FA09F848EA0505DFF850814FEA930912
:1012200048F82950D1F8048008F48018B8F5801FD8
:101230000BD1DFF83C81D8F8008048EA0008DFF8DD
:101240003091C9F800800AE075E0DFF82481D8F811
:10125000008028EA0008DFF81891C9F80080D1F86A
:10126000048008F40018B8F5001F0ED1DFF80081E3
:1012700008F10408D8F8008048EA0008DFF8F09088
:1012800009F10409C9F800800DE0DFF8E48008F1F5
:101290000408D8F8008028EA0008DFF8D49009F1A3
:1012A0000409C9F80080D1F8048008F40038B8F5C2
:1012B000003F0ED1DFF8B880A8F10408D8F800800C
:1012C00048EA0008DFF8A890A9F10409C9F80080ED
:1012D0000DE0DFF89C80A8F10408D8F8008028EA27
:1012E0000008DFF88C90A9F10409C9F80080D1F852
:1012F000048008F48038B8F5803F0ED1DFF87080A4
:10130000A8F10808D8F8008048EA0008DFF86090E3
:10131000A9F10809C9F800800DE0DFF85480A8F1B0
:101320000808D8F8008028EA0008DFF84490A9F1FE
:101330000809C9F800805B1CD1F8008028FA03F87E
:10134000B8F1000F7FF47CAEBDE8F8870000111003
:101350000010024000080140000C01400010014054
:101360000014014000180140001C01400800014029
:1013700008040140024693680B400BB1012000E0D5
:101380000020704710B5C26821EA020302EA010496
:1013900043EA0443036110BD0AB1016101E00B049B
:1013A0000361704701480068704700004400002056
:1013B00003480068034909780844014908607047F8
:1013C000440000204C00002010B50848006840F0A0
:1013D000100006490860032000F0A8F80F2000F074
:1013E00007F800F02BF8002010BD0000002002409C
:1013F00070B504460E4800784FF47A71B1FBF0F0F6
:101400000C490968B1FBF0F5284600F039FF08B136
:10141000012070BD102C07D200222146501E00F082
:1014200047F80548046001E00120F2E70020F0E7FA
:101430004C000020500000204800002008B500BFEC
:101440001148806940F001000F49886108468069B1
:1014500000F00100009000BF00BF00BF0846C06957
:1014600040F08050C8610846C06900F0805000908C
:1014700000BF00BF00BF0549486820F0E06040F0B1
:101480000070486000BF08BD00100240000001402D
:1014900001460846002809DB00F01F0301229A409C
:1014A00043099B0003F1E023C3F8002100BF70470C
:1014B0002DE9F05F80460D461646002703F044FAFA
:1014C000074639462A46334601F00700C0F1070AAD
:1014D000BAF1040F02D94FF0040A01E0C0F1070A83
:1014E000D14600F1040ABAF1070F02D24FF0000A08
:1014F00001E0A0F1030AD4464FF0010A0AFA09FA02
:10150000AAF1010A0AEA020A0AFA0CFA4FF0010BE0
:101510000BFA0CFBABF1010B0BEA030B4AEA0B04D1
:101520002146404603F018FABDE8F09F00BF00F0E6
:101530000702064B19684FF6FF031940044B0B4393
:1015400043EA0221014B196000BF70470CED00E037
:101550000000FA05012001490862704700000E42B0
:101560002DE9F04706464FF000080025002700242B
:10157000A146042E37D004DC012E3CD0022E6CD1C3
:1015800060E0082E33D0102E67D1364844680068DA
:1015900000F0807008B33448C4F38341475C04F41E
:1015A000803078B12F484068C0F340402F4911F88F
:1015B000008004F4803040B12D48B0FBF8F000FB0F
:1015C00007F502E02B4807FB00F52648406800F4C9
:1015D0008000B0F5800F01D1A94603E06800032127
:1015E000B0FBF1F93AE000F0CBF9814636E000F0CB
:1015F000C7F9814632E01B48046A04F44070B0F534
:10160000807F05D104F0020010B14FF4004918E0CA
:1016100004F44070B0F5007F07D11248406A00F032
:10162000020010B149F640490BE004F44070B0F5F7
:10163000407F06D10B48006800F4003008B14FF23B
:1016400024490BE000F08CF906494968C1F3813167
:10165000491C4900B0FBF1F900E000BF00BF48465B
:10166000BDE8F08700100240925D0008A25D00080E
:1016700000127A0000093D00F8B504460026002556
:10168000207800F0010000286BD000274348C06993
:1016900000F0805070B900BF4048C06940F08050F1
:1016A0003E49C8610846C06900F08050009000BF04
:1016B00000BF01273A48006800F48070B0B938488C
:1016C000006840F4807036490860FFF76BFE0646FC
:1016D00006E0FFF767FE801B642801D90320F8BDF0
:1016E0002F48006800F480700028F2D02B48006A70
:1016F00000F440752DB3A08800F44070A84220D0BB
:101700002648006A20F44075012026490860002020
:1017100008602248056205F0010090B1FFF742FE23
:10172000064608E0FFF73EFE801B41F28831884202
:1017300001D90320D3E71948006A00F0020000280D
:10174000F0D01648006A20F44070616808431349DD
:101750000862012F04D10846C06920F08050C8619A
:1017600000BF207800F00200022807D10B48406833
:1017700020F44040A168084308494860207800F000
:101780001000102807D10548406820F480006169E6
:101790000843024948600020A1E700000010024011
:1017A000007000404004424270B504460D460CB93A
:1017B000012070BD5A48006800F00700A8420ED210
:1017C0005748006820F0070028435549086008463C
:1017D000006800F00700A84201D00120E9E7207866
:1017E00000F0020002281DD1207800F00400042837
:1017F00005D14C48406840F4E0604A494860207890
:1018000000F00800082805D14648406840F46050C0
:10181000444948604348406820F0F000A16808430C
:1018200040494860207800F0010078B360680128E2
:1018300006D13C48006800F4003090B90120B8E7B8
:101840006068022806D13748006800F0007040B98F
:101850000120AEE73348006800F0020008B901201B
:10186000A7E73048406820F00300616808432D492D
:101870004860FFF797FD064609E0FFF793FD801BE0
:1018800041F28831884202D9032092E707E02548D7
:10189000406800F00C006168B0EB810FEDD120488A
:1018A000006800F00700A8420ED91D48006820F02B
:1018B000070028431A4908600846006800F007003E
:1018C000A84201D0012074E7207800F00400042829
:1018D00007D11448406820F4E060E16808431149EA
:1018E0004860207800F00800082808D10D484068BA
:1018F00020F46050216940EAC1000A49486000F0C4
:101900003FF808494968C1F30311074A515CC840D0
:101910000649086006480068FFF76AFD002048E7AE
:101920000020024000100240A45D0008500000208A
:101930004800002001480068704700005000002067
:1019400000B5FFF7F7FF04494968C1F30221034AD4
:10195000515CC84000BD000000100240B45D0008AA
:1019600000B5FFF7E7FF04494968C1F3C221034A04
:10197000515CC84000BD000000100240B45D00088A
:1019800070B500210022002400230020134D696857
:1019900001F00C05F5B1042D02D0082D19D101E09C
:1019A0000F4819E00F4DC1F38346AB5D01F480355C
:1019B00055B10A4D6D68C5F340450B4E725D084D3B
:1019C0005D43B5FBF2F402E0084D03FB05F420464D
:1019D00002E000BF024800BF00BF70BD001002401F
:1019E00000127A00805D0008905D000800093D004B
:1019F000F8B504460CB90120F8BD207800F00100CC
:101A0000002878D0F848406800F00C0004280CD07A
:101A1000F548406800F00C00082811D1F2484068F1
:101A200000F48030B0F5803F0AD1EF48006800F440
:101A3000003000285FD0606800285CD10120DBE71F
:101A400000BF6068B0F5803F06D1E748006840F409
:101A50008030E549086028E0606858B9E2480068CD
:101A600020F48030E04908600846006820F48020B7
:101A700008601AE06068B0F5A02F0BD1DA48006862
:101A800040F48020D84908600846006840F480305F
:101A900008600AE0D448006820F48030D249086029
:101AA0000846006820F48020086000BF606888B1A4
:101AB000FFF778FC054606E0FFF774FC401B64283E
:101AC00001D9032098E7C848006800F400300028D6
:101AD000F2D010E0FFF766FC054606E0FFF762FC77
:101AE000401B642801D9032086E7BF48006800F442
:101AF00000300028F2D1207800F00200022857D1EF
:101B0000B948406800F00C0050B1B748406800F098
:101B10000C00082818D1B448406800F4803098B907
:101B2000B148006800F0020020B12069012801D00E
:101B3000012061E7AC48006820F0F800616940EAE4
:101B4000C100A949086033E02069E8B10120A74934
:101B50000860FFF727FC054606E0FFF723FC401B63
:101B6000022801D9032047E79F48006800F00200DF
:101B70000028F2D09C48006820F0F800616940EA33
:101B8000C1009949086013E0002098490860FFF7F8
:101B900009FC054606E0FFF705FC401B022801D9B9
:101BA000032029E79048006800F002000028F2D1E5
:101BB000207800F0080008282DD1A069B8B10120D4
:101BC0008B490860FFF7EEFB054606E0FFF7EAFBEE
:101BD000401B022801D903200EE78348406A00F029
:101BE00002000028F2D0012002F04EF913E000209C
:101BF0007F490860FFF7D6FB054606E0FFF7D2FBFA
:101C0000401B022801D90320F6E67748406A00F01D
:101C100002000028F2D1207800F00400042873D1DB
:101C200000277148C06900F0805070B900BF6E484D
:101C3000C06940F080506C49C8610846C06900F036
:101C40008050009000BF00BF01276A48006800F480
:101C50008070B0B96748006840F4807065490860DA
:101C6000FFF7A0FB054606E0FFF79CFB401B64283E
:101C700001D90320C0E65F48006800F480700028A6
:101C8000F2D000BFE068012806D15748006A40F052
:101C900001005549086227E0E06858B95248006AD7
:101CA00020F00100504908620846006A20F0040054
:101CB000086219E0E06805280BD14B48006A40F043
:101CC0000400494908620846006A40F001000862C1
:101CD0000AE04548006A20F00100434908620846CE
:101CE000006A20F00400086200BFE068A0B1FFF7BE
:101CF00059FB054609E0FFF755FB401B41F28831CF
:101D0000884202D9032077E622E03748006A00F0D3
:101D100002000028EFD012E0FFF744FB054608E080
:101D2000FFF740FB401B41F28831884201D9032074
:101D300062E62D48006A00F002000028F0D1012F71
:101D400005D12948C06920F080502749C86100BFEB
:101D5000E069C8B32448406800F00C00082860D04F
:101D6000E069022848D1002020490866FFF71AFBE5
:101D7000054606E0FFF716FB401B022801D90320A9
:101D80003AE61948006800F000700028F2D1206A95
:101D9000B0F5803F07D11448406820F40030A168B6
:101DA000084311494860D4E9080108430E494968CD
:101DB00021F4741108430C49486001200B4908665E
:101DC000FFF7F0FA054607E03DE0FFF7EBFA401BAE
:101DD000022801D903200FE60348006800F00070D4
:101DE0000028F2D02FE00000001002400000424224
:101DF0008004424200700040002014490866FFF74A
:101E0000D1FA054606E0FFF7CDFA401B022801D9BA
:101E10000320F1E50E48006800F000700028F2D1C0
:101E200011E0E069012800D1E6E50948466806F4BA
:101E30008031206A814204D106F47011606A8142C7
:101E400001D00120D8E50020D6E500000000424284
:101E50000010024010B5034600220020024A02EBA7
:101E600081021468A0B210BD006C004010B503469A
:101E70000020034800EB810094B2046010BD000014
:101E8000006C00407047704710B504462068006839
:101E900000F00100F0B12068406800F00100C8B116
:101EA00020684068C0F3800048B12046FFF7EBFF90
:101EB0006FF00400216848600420607404E020464C
:101EC000FFF7E0FF012060742068406820F0010007
:101ED0002168486010BD000070B5044600250CB9AB
:101EE000012070BD607C20B900202074204600F0E5
:101EF00053F802206074204600F06AF918B10420FB
:101F000060740120EDE7204601F0DDFF18B10420E8
:101F100060740120E5E72068406820F00700216830
:101F20004860A06828B11B48006820F001001949EA
:101F300008601848001F006820F46070A16808431A
:101F40001449091F08606068401C08B1656809E011
:101F50000120FFF705FB05461DB904206074012030
:101F6000BFE76D1EC5F3034021688860A8B22168F1
:101F7000C860204601F0C4FF18B10420607401203D
:101F8000AFE70021E17301216173A1730120607447
:101F90000020A6E7306C004038B50446134920689D
:101FA000884222D1FFF7D6FA00BF1148C06940F03D
:101FB00000600F49C8610846C06900F000600090E9
:101FC00000BF00BF01200B4908600022022103204E
:101FD000FFF76EFA0320FFF75BFA03F0C3FB45F24D
:101FE000500201210448FFF741FF38BD002800409E
:101FF000001002403C04424230AB00202DE9F04783
:1020000004460D46904600260027B14604B115B996
:102010000120BDE8F08700BF207C012801D102200B
:10202000F7E70120207400BF02206074B8F1000FB0
:1020300006D1E978E17369786173A978A1730BE03F
:10204000E87801F035FFE073687801F031FF6073E4
:10205000A87801F02DFFA073A27B617BE07B01F0EB
:10206000BBFF2073207B2870204601F09BFF0646B3
:102070004FF46160B6FBF0F9B9F1180F2FD91820B1
:10208000B9FBF0F000EB4000C000C0EB4011C1EB29
:102090000020A6EB00163146204601F0F6FF38B1CD
:1020A0000420607400BF0020207400BF0120B0E74E
:1020B000204601F06BFF0746781C80B1B7420ED274
:1020C0000B4807443946204601F0C8FF38B10420C8
:1020D000607400BF0020207400BF012099E7012038
:1020E000607400BF0020207400BF00BF91E70000B3
:1020F000805101002DE9F04704460D469046002628
:10210000002704B115B90120BDE8F08700BF207C8D
:10211000012801D10220F7E70120207400BF02202E
:102120006074B8F1000F0BD128784FF46161484317
:102130006978C1EB011100EB8100A978461812E023
:10214000287801F0B5FE4FF4616100FB01F9687871
:1021500001F0AEFEC0EB001009EB8009A87801F099
:10216000A7FE09EB00063146204601F08EFF38B18C
:102170000420607400BF0020207400BF0120C3E76A
:102180002068406820F0050021684860204601F082
:10219000FDFE0746781C80B1B7420ED20B480744BB
:1021A0003946204601F05AFF38B10420607400BF60
:1021B0000020207400BF0120A6E70120607400BF4A
:1021C0000020207400BF00BF9EE700008051010086
:1021D00070B5044600250CB9012070BD2068406828
:1021E00020F0080021684860FFF7DCF8054607E0AA
:1021F000FFF7D8F8401BB0F57A7F01D90320ECE750
:102200002068406800F008000028F1D00020E4E7D2
:1022100070B504460E4615461CB1A069B0F5807F26
:1022200001D1012070BD94F8410028B9002084F844
:102230004000204600F01FF804F108012068FEF776
:1022400073F93146A2682068FEF7AAF92946236B84
:10225000D4E90102FEF746F9A168206850F8210090
:1022600040F00100A268216841F82200012084F8B2
:1022700041000020D6E710B50446FEF783FE10BDEE
:1022800070B504462546681EB0F1807F01D3012059
:102290000FE0681E4FF0E02148610F214FF0FF3042
:1022A00002F05AFB00204FF0E0218861072008610E
:1022B000002070BD7047704710B50346002200BF74
:1022C00093F83C00012801D1022010BD012083F8C1
:1022D0003C0000BF22F0FF00CC6840EA040222F478
:1022E00040708C6840EA040222F480604C6840EA46
:1022F000040222F400600C6840EA040222F48050D8
:102300000C6940EA040222F400504C6940EA0402DD
:1023100022F48040CC6940EA04021868426400BF9D
:10232000002083F83C0000BF00BFCEE730B5024676
:102330000B4600BF92F83C00012801D1022030BDBD
:10234000012082F83C0000BF022082F83D001068A6
:1023500044681068816824F07004186804431068A9
:102360004460144D1068A84213D0134D1068A84261
:102370000FD01068B0F1804F0BD0104D1068A842FC
:1023800007D00F4D1068A84203D00E4D1068A84228
:1023900005D121F080015868014310688160012057
:1023A00082F83D0000BF002082F83C0000BF00BF63
:1023B000C5E70000002C014000340140000400404B
:1023C00000080040000C0040014691F83D00012843
:1023D00001D001207047022081F83D00164B0868AB
:1023E000984213D0154B086898420FD00868B0F196
:1023F000804F0BD0124B0868984207D0114B0868E9
:10240000984203D0104B086898420CD10868806845
:1024100000F00702062A0CD00868006840F00100AE
:102420000B68186005E00868006840F001000B6860
:1024300018600020CEE70000002C0140003401406D
:102440000004004000080040000C004070B5054644
:102450004A492868884276D102214948FEF78AFF16
:10246000E0B100BF47480068006A20F0A00045497D
:102470000968086243480068006A40F0200041494A
:102480000968086200BF00203E49096848623E486A
:10249000007840F010003C4908706DE00421394894
:1024A00000F096FD84B200BF36480068006A20F054
:1024B000A00034490968086232480068006A31495E
:1024C0000968086200BF3048007800F0100000285A
:1024D0004CD02D48007800F08000A8B3B4F5967F6A
:1024E0000DDDB4F5487F0ADA28480068400827491E
:1024F00008600846006820F00040086036E0B4F547
:10250000AF6F0DDDB4F5E16F0ADA204800684008CE
:102510001E4908600846006840F00040086025E059
:10252000B4F5FA6F22DD40F6B83084421EDA18485E
:102530000078401C164908701348007800F0F0003D
:102540001149087012E018E0FFE741F26800844288
:102550000CDD41F25C20844208DA0B48007840F040
:102560008000094908700020094908700648007871
:1025700020F010000449087000BF70BD000C00403E
:102580000008014064AC0020580000205C000020DE
:10259000600000202DE9F04104460D461646002754
:1025A00000BF94F83C00012802D10220BDE8F08170
:1025B000012084F83C0000BF96B9EB68D5E9001211
:1025C000206801F03BFF2068806920F00C00216842
:1025D000886120688069A96808432168886141E0B2
:1025E000042E13D1EB68D5E90012206801F064FFD6
:1025F0002068806920F440602168886120688069D3
:10260000A96840EA0120216888612BE0082E12D1D8
:10261000EB68D5E90012206801F06BFF2068C06903
:1026200020F00C002168C8612068C069A9680843CF
:102630002168C86116E00C2E13D1EB68D5E90012B1
:10264000206801F072FF2068C06920F440602168B2
:10265000C8612068C069A96840EA01202168C86192
:1026600000E0012700BF002084F83C0000BF38468E
:102670009CE710B504460CB9012010BD94F83D004C
:1026800028B9002084F83C00204600F025F80220FC
:1026900084F83D00211D206801F094FD012084F89C
:1026A000460000BF84F83E0001213F200155402034
:1026B00001554120015500BF00BF012084F84200B0
:1026C00043200155442001554520015500BF0120FC
:1026D00084F83D000020D0E710B586B00446002005
:1026E00002900390049005901849206888422BD1ED
:1026F00000BF1748C06940F008001549C861084686
:10270000C06900F00800019000BF00BF00BF08468C
:10271000806940F0040088610846806900F0040088
:10272000019000BF00BF022002900020039004909F
:1027300002A90848FEF77EFC002201213220FEF7A4
:10274000B7FE3220FEF7A4FE06B010BD000C00401C
:1027500000100240000801402DE9F04304460D46F8
:10276000002615B994F83E000BE0042D02D13F205D
:10277000005D06E0082D02D14020005D01E041200F
:10278000005D804615B994F842000BE0042D02D19B
:102790004320005D06E0082D02D14420005D01E0E9
:1027A0004520005D8146B8F1010F02D1B9F1010F5A
:1027B00002D00120BDE8F0831DB9022084F83E005C
:1027C0000EE0042D03D102213F20015508E0082D21
:1027D00003D102214020015502E002214120015590
:1027E0001DB9022084F842000EE0042D03D102211D
:1027F0004320015508E0082D03D102214420015552
:1028000002E002214520015535B1042D0BD0082DE1
:1028100010D00C2D1CD114E02068C06840F00200DC
:102820002168C86016E02068C06840F00400216894
:10283000C8600FE02068C06840F008002168C860E8
:1028400008E02068C06840F010002168C86001E01E
:10285000012600BF00BF46BB01222946206801F0C7
:10286000FFFC16492068884213D015492068884229
:102870000FD02068B0F1804F0BD0124920688842F9
:1028800007D011492068884203D010492068884247
:102890000CD12068806800F00707062F0CD0206854
:1028A000006840F001002168086005E020680068C9
:1028B00040F001002168086030467BE7002C0140B1
:1028C000003401400004004000080040000C0040BB
:1028D00010B5044620680069C0F34000D8B12068F4
:1028E000C068C0F34000B0B16FF002002168086119
:1028F000012020772068806900F0030018B120468D
:10290000FFF7A4FD05E0204600F0A8F9204600F0FE
:1029100027FB0020207720680069C0F38000D8B131
:102920002068C068C0F38000B0B16FF00400216877
:102930000861022020772068806900F4407018B197
:102940002046FFF783FD05E0204600F087F920468A
:1029500000F006FB0020207720680069C0F3C0006B
:10296000D8B12068C068C0F3C000B0B16FF00800F3
:1029700021680861042020772068C06900F0030006
:1029800018B12046FFF762FD05E0204600F066F929
:10299000204600F0E5FA0020207720680069C0F3A7
:1029A0000010D8B12068C068C0F30010B0B16FF05B
:1029B000100021680861082020772068C06900F4B1
:1029C000407018B12046FFF741FD05E0204600F0B9
:1029D00045F9204600F0C4FA0020207720680069FD
:1029E00000F0010058B12068C06800F0010030B16B
:1029F0006FF0010021680861204600F0B3FA2068FA
:102A00000069C0F3C01058B12068C068C0F3C0109E
:102A100030B16FF08000216808612046FFF74AFC62
:102A200020680069C0F3801058B12068C068C0F306
:102A3000801030B16FF0400021680861204600F03E
:102A4000E0FA20680069C0F3401058B12068C068FF
:102A5000C0F3401030B16FF02000216808612046BB
:102A6000FFF729FC10BD000010B586B00446002019
:102A7000029003900490059052492068884218D132
:102A800000BF5148806940F004004F498861084602
:102A9000806900F00400019000BF00BF081502909B
:102AA000022003900320059002A94848FEF7C2FACD
:102AB00085E02068B0F1804F22D100BF4248806994
:102AC00040F00800404988610846806900F008002D
:102AD000019000BF00BF0820029002200390032055
:102AE000059002A93A48FEF7A5FA00BF394948689F
:102AF00020F4407040F0E06040F4807048605EE098
:102B000035492068884218D100BF2F48806940F0BD
:102B100008002D4988610846806900F0080001908E
:102B200000BF00BF01200290022003900320059007
:102B300002A92748FEF77EFA41E02849206888422A
:102B400021D100BF2048806940F020001E498861E3
:102B50000846806900F02000019000BF00BF4FF4DC
:102B600000500290022003900320059002A91C4807
:102B7000FEF760FA00BF1749486840F0E06040F493
:102B8000805048601BE017492068884217D100BF79
:102B90000D48806940F010000B4988610846806943
:102BA00000F01000019000BF00BF40200290022002
:102BB00003900320059002A90B48FEF73BFA06B0EC
:102BC00010BD0000002C0140001002400008014030
:102BD000000C0140000001400004004000080040DB
:102BE0000014014000340140001001402DE9F04183
:102BF00004460E461546002700BF94F83C00012805
:102C000002D10220BDE8F081012084F83C0000BF21
:102C100035B1042D09D0082D0CD00C2D14D10EE0A7
:102C20003146206801F02EFB10E03146206801F0AB
:102C300061FB0BE03146206801F09AFB06E031466B
:102C4000206801F0D1FB01E0012700BF00BF00BFF9
:102C5000002084F83C0000BF3846D3E710B5044696
:102C600013492068884203D1124802F021FA1EE07D
:102C700011492068884203D1104802F019FA16E081
:102C80000F492068884203D10E4802F011FA0EE085
:102C90000D492068884203D10C4802F009FA06E089
:102CA0002068B0F1804F02D1094802F001FA10BD4E
:102CB000002C0140F0AD00200034014020AE002087
:102CC0000004004050AE00200008004080AE00200C
:102CD000B0AE002010B504460CB9012010BD94F828
:102CE0003D0028B9002084F83C00204600F026F87A
:102CF000022084F83D00211D206801F063FA0120C4
:102D000084F8460000BF84F83E0001213F200155B1
:102D1000402001554120015500BF00BF012084F82B
:102D2000420043200155442001554520015500BF74
:102D3000012084F83D000020D0E7000038B50446AB
:102D400043492068884216D100BF4248806940F458
:102D50000060404988610846806900F40060009086
:102D600000BF00BF002202211B20FEF7A1FB1B2099
:102D7000FEF78EFB6AE02068B0F1804F16D100BFED
:102D80003448C06940F001003249C8610846C06952
:102D900000F00100009000BF00BF002202211C20B3
:102DA000FEF786FB1C20FEF773FB4FE02A492068E4
:102DB000884216D100BF2748C06940F0020025496B
:102DC000C8610846C06900F00200009000BF00BF63
:102DD000002202211D20FEF76BFB1D20FEF758FB91
:102DE00034E01E492068884216D100BF1948C069E6
:102DF00040F004001749C8610846C06900F00400AB
:102E0000009000BF00BF002202211E20FEF750FBF1
:102E10001E20FEF73DFB19E011492068884215D1BC
:102E200000BF0C48806940F400500A498861084698
:102E3000806900F40050009000BF00BF0022022112
:102E40002E20FEF735FB2E20FEF722FB38BD0000BA
:102E5000002C014000100240000400400008004027
:102E60000034014070B504460D46002635B1042DEE
:102E70000BD0082D10D00C2D1CD114E02068C06898
:102E800020F002002168C86016E02068C06820F0C9
:102E900004002168C8600FE02068C06820F00800C6
:102EA0002168C86008E02068C06820F01000216830
:102EB000C86001E0012600BF00BF002E4AD10022F9
:102EC0002946206801F0CCF923492068884203D0C4
:102ED00022492068884201D1012000E0002090B101
:102EE00000BF2068006A41F21111084050B9206803
:102EF000006A8910084028B92068406C20F400401E
:102F00002168486400BF00BF2068006A41F21111C7
:102F1000084050B92068006A8910084028B9206824
:102F2000006820F001002168086000BF1DB9012081
:102F300084F83E000EE0042D03D101213F2001550D
:102F400008E0082D03D101214020015502E00121B4
:102F500041200155304670BD002C01400034014035
:102F600070470000184A016891422BD1174909782F
:102F700001F0800131B31549097821F01001134A9D
:102F800011701146097801F00F0121B91146097835
:102F900041F0400111700D49097801F00F010E292F
:102FA00005DA0A490978491C084A11700AE00749FC
:102FB000097821F08001054A11701146097801F065
:102FC000F001117070470000000C00405800002014
:102FD0000246002031B1042907D0082908D00C2965
:102FE0000CD108E01368586B09E01368986B06E091
:102FF0001368D86B03E01368186C00E000BF00BFD3
:1030000070477047704770472DE9F84F04462068B5
:1030100005682068C668206847694FF00009CA46FD
:1030200005F00F09B9F1000F0AD105F0200038B101
:1030300006F0200020B1204601F0E5FABDE8F88F47
:10304000B9F1000F7BD007F0010018B906F49070B9
:10305000002874D005F0010030B106F4807018B17A
:10306000606C40F00100606405F0040030B107F0CE
:10307000010018B1606C40F00200606405F00200CD
:1030800030B107F0010018B1606C40F004006064DA
:1030900005F0080048B106F0200010B907F0010063
:1030A00018B1606C40F008006064606C002845D086
:1030B00005F0200028B106F0200010B1204601F0F4
:1030C000A2FA20684069C0F3801A606C00F0080022
:1030D00010B9BAF1000F2CD0204601F04EFA20684A
:1030E000406900F0400000B300BF00BF2168143108
:1030F00051E8001F21F040002168143141E800022E
:10310000002AF3D100BFE06B50B17748E16B486310
:10311000E06BFDF75DFE88B1E06B416B88470DE029
:103120002046FFF770FF09E009E02046FFF76BFF3C
:1031300004E02046FFF767FF002060647EE7206B15
:10314000012877D105F01000002873D006F0100098
:103150000028FAD000BF002000902068006800908E
:1031600020684068009000BF00BF2068406900F000
:10317000400000285FD0E06B006840681FFA80F8CC
:10318000B8F1000F55D0A08D404552DDA4F82E8037
:10319000E06B8069202843D000BF00BF21680C315C
:1031A00051E8001F21F4807021680C3141E80002D1
:1031B000002AF3D100BF00BF00BF2168143151E8DD
:1031C000001F21F001002168143141E80002002AAB
:1031D000F3D100BF00BF00BF2168143151E8001FC8
:1031E00021F040002168143141E80002002AF3D1A7
:1031F00000BF202084F842000020206300BF00BFF1
:1032000021680C3151E8001F21F0100021680C31B9
:1032100041E80002002AF3D100BFE06BFDF7ADFDED
:1032200002206063A08DE28D801A81B22046FFF7F4
:10323000E9FE03E742E0A08DE18D401A1FFA80F815
:10324000E08DD0B3B8F1000F37D000BF00BF2168C8
:103250000C3151E8001F21F4907021680C3141E8D5
:103260000002002AF3D100BF00BF00BF2168143163
:1032700051E8001F21F001002168143141E80002EB
:10328000002AF3D100BF202084F8420000202063F0
:1032900000BF00BF21680C3151E8001F21F0100071
:1032A00021680C3141E80002002AF3D100BF02205E
:1032B000606341462046FFF7A5FEBFE605F08000AB
:1032C00030B106F0800018B1204601F099FAB5E659
:1032D00005F0400030B106F0400018B1204601F082
:1032E00082F9ABE600BFA9E66745000810B50446C1
:1032F0000CB9012010BDA06900B100E000BF94F836
:10330000410028B9002084F84000204600F02AF847
:10331000242084F841002068C06820F4005021680F
:10332000C860204601F0EEF92068006920F4904062
:10333000216808612068406920F02A0021684861FE
:103340002068C06840F400502168C86000206064B4
:10335000202084F8410084F842000020606300BF10
:10336000C8E7000010B586B0044600200290039024
:10337000049005905D49206888423FD100BF5C48B9
:10338000806940F480405A4988610846806900F4A9
:103390008040019000BF00BF00BF0846806940F038
:1033A000080088610846806900F00800019000BFAD
:1033B00000BF40200290022003900320059002A944
:1033C0004C48FDF737FE80200290002003900490C7
:1033D00002A94848FDF72EFE00BF4749486840F063
:1033E000E06040F00400486000BF00220221252078
:1033F000FEF75EF82520FEF74BF875E03F492068A0
:10340000884236D100BF3A48C06940F4003038499C
:10341000C8610846C06900F40030019000BF00BFD9
:1034200000BF0846806940F0040088610846806952
:1034300000F00400019000BF00BF042002900220B1
:1034400003900320059002A92D48FDF7F3FD082005
:10345000029000200390049002A92948FDF7EAFD9C
:10346000002211462620FEF723F82620FEF710F84A
:103470003AE024492068884236D100BF1C48C06920
:1034800040F480201A49C8610846C06900F48020D1
:10349000019000BF00BF00BF0846806940F00800EF
:1034A00088610846806900F00800019000BF00BFF5
:1034B00008150290022003900320059002A90D48F0
:1034C000FDF7B8FD4FF400600290002003900490D7
:1034D00002A90848FDF7AEFD002211462720FDF79E
:1034E000E7FF2720FDF7D4FF06B010BD00380140EC
:1034F00000100240000C0140000001400044004068
:10350000000801400048004070472DE9F84F04468C
:103510000E46174699464FF0000A94F841002028BD
:103520004AD106B117B90120BDE8F88F00206064C8
:10353000212084F84100FDF735FF8246A784E78407
:10354000A068B0F5805F04D1206910B90025B046AD
:1035500002E035464FF000081BE053460022802170
:103560002046CDF8009001F07BF908B10320DBE79D
:1035700045B9B8F80000C0F308002168486008F1B8
:10358000020803E02878216848606D1CE08C401E2A
:10359000E084E08C0028E0D1534600224021204600
:1035A000CDF8009001F05CF908B10320BCE72020C1
:1035B00084F841000020B7E70220B5E7704700BF5C
:1035C000FEE7000000B591B029482A4908600420B0
:1035D0004860002127488160C1604FF400210161EB
:1035E0004FF4E00141610021017641768176C17698
:1035F00001774177FDF780FA08B1FCF770FF0020F2
:1036000010900F909DF8400040110E909DF84000E2
:103610004FF6FF7101EAC020001D0D909DF83C009F
:1036200040110C909DF83C0001EAC020001D0B9059
:10363000012006900020079001200890BDF8380076
:103640000190BDF834000290BDF830000390BDF841
:103650002C000490002005900120099001A9054844
:10366000FCF7BFFF0348FDF752FB11B000BD00009F
:1036700000640040B4AA002000B587B01C21684651
:10368000FCF746FE4FF020401B4908601B4848608D
:103690000620886000211848C16001611021416145
:1036A00000218161C161016241624FF480518162F8
:1036B0000021C162016341638163002000900F20FB
:1036C000019003200290002003901020049011200C
:1036D000059000200690002269460748FEF798FDF5
:1036E00008B1FCF7FCFE0648C06940F4806004495C
:1036F000C86107B000BD0000DCAA0020040100A0E2
:103700000000014000B585B00020019002900390B8
:10371000049000BF8E48806940F040008C49886169
:103720000846806900F04000009000BF00BF00BF65
:103730000846806940F0100088610846806900F002
:103740001000009000BF00BF00BF0846806940F035
:10375000800088610846806900F08000009000BF0A
:1037600000BF00BF0846806940F004008861084639
:10377000806900F00400009000BF00BF00BF084651
:10378000806940F0080088610846806900F0080000
:10379000009000BF00BF00BF0846806940F4807001
:1037A00088610846806900F48070009000BF00BF07
:1037B00000BF0846806940F02000886108468069A3
:1037C00000F02000009000BF00BF002204216148EB
:1037D000FDF7E2FD012220215E48FDF7DDFD01221B
:1037E0000F215D48FDF7D8FD002230215A48FDF732
:1037F000D3FD00224FF400615848FDF7CDFD0022B3
:1038000044F2C0115648FDF7C7FD0122D1035448C8
:10381000FDF7C2FD00224FF480715248FDF7BCFD58
:10382000012251024F48FDF7B7FD0420019001200D
:10383000029002200390049001A94648FDF7FAFB8C
:1038400018200190002002900220039001A9414815
:10385000FDF7F0FB20200190012002900390022050
:10386000049001A93B48FDF7E5FB402001900020B2
:103870000290039001A93748FDF7DCFB4FF4F86094
:10388000019000200290039001A93448FDF7D2FB7B
:103890003F2001900120029000200390022004901C
:1038A00001A92D48FDF7C6FB0120019000200290E0
:1038B0000220039001A92C48FDF7BCFB10200190C9
:1038C000022002900320049001A92748FDF7B2FBD3
:1038D0004FF400600190012002900020039002202C
:1038E000049001A91D48FDF7A5FB4FF480500190FD
:1038F000022002900320049001A91A48FDF79AFBC8
:103900004CF2C01001900120029000200390022090
:10391000049001A91248FDF78DFB4FF480700190CF
:103920000120029003900320049001A90D48FDF7A7
:1039300081FB4FF400700190112002900020039051
:103940000320049001A90748FDF774FB05B000BDF2
:10395000001002400018014000100140001C01400E
:1039600000200140000C0140000801401FB5002468
:1039700000200390029000BF3548C06940F000600D
:103980003349C8610846C06900F00060019000BF7B
:1039900000BF00BF0846C06940F08050C8610846BB
:1039A000C06900F08050019000BF00BFFDF7D2FD5C
:1039B00001212848FEF74EFA84B2274825490860BD
:1039C0004FF0FF304860002122488160FEF784FA02
:1039D00008B1FCF784FD16208DF80C0010208DF83E
:1039E0000D0000208DF80E00012203A91948FEF7F2
:1039F00081FB08B1FCF773FD06208DF80800032059
:103A00008DF8090023208DF80A0000208DF80B00A6
:103A1000012202A90F48FEF7F1FA08B1FCF75FFD99
:103A200045F2500084420AD00020202111231722A1
:103A3000CDE9001003214FF4FD6001F061FF05485E
:103A40000068006840F001000249096808601FBD75
:103A50000010024030AB00200028004000B591B0BB
:103A600000200F9010901C2108A8FCF751FC202189
:103A70006846FCF74DFC2448244908601120486042
:103A80000021224881604FF6FE71C1600021016172
:103A900041618161FFF71EF908B1FCF720FD0020AC
:103AA0000F9010900FA91948FEF740FC08B1FCF7E1
:103AB00016FD30200890002009900A900B900C9081
:103AC0000D900E90082208A91048FFF78FF808B152
:103AD000FCF705FD002000900190029003900490F7
:103AE0004FF4005005900020079069460748FEF704
:103AF000E3FB08B1FCF7F3FC0448FEF765FC034860
:103B0000FEF7B2FF11B000BD002C014044AB002015
:103B100000B589B00020079008901C216846FCF78A
:103B2000F7FB4FF0804019490860112048600021E0
:103B3000164881604FF6FE71C1600021016181610C
:103B4000FFF7C8F808B1FCF7CAFC002007900890FE
:103B500007A90E48FEF7EAFB08B1FCF7C0FC3020CD
:103B600000900020019002900490042269460748CA
:103B7000FFF73CF808B1FCF7B2FC0448FEF724FC60
:103B80000248FEF771FF09B000BD00008CAB0020B9
:103B900000B589B00020079008901C216846FCF70A
:103BA000B7FB1948194908601120486000211748DF
:103BB00081604FF6FE71C160002101618161FFF7F4
:103BC00089F808B1FCF78BFC00200790089007A942
:103BD0000E48FEF7ABFB08B1FCF781FC30200090EB
:103BE0000020019002900490082269460748FEF7E1
:103BF000FDFF08B1FCF773FC0448FEF7E5FB034842
:103C0000FEF732FF09B000BD00040040D4AB002035
:103C100000B589B00020079008901C216846FCF789
:103C200077FB19481949086011204860002117489E
:103C300081604FF6FE71C160002101618161FFF773
:103C400049F808B1FCF74BFC00200790089007A941
:103C50000E48FEF76BFB08B1FCF741FC30200090EA
:103C60000020019002900490042269460748FEF764
:103C7000BDFF08B1FCF733FC0448FEF7A5FB034881
:103C8000FEF7F2FE09B000BD000800401CAC0020A9
:103C900000B587B000200590069001900290039037
:103CA00004901D481D4908604720486000211B48BA
:103CB000816042F21071C160002101618161FEF7F3
:103CC000D8FC08B1FCF70BFC00200590069005A974
:103CD0001248FEF72BFB08B1FCF701FC0020019015
:103CE000012002900020039003200490042201A9E7
:103CF0000A48FEF74FFC08B1FCF7F1FB0421074826
:103D0000FEF72AFD05480068C06840F0010003493D
:103D10000968C86007B000BD000C004064AC00201A
:103D200000B591B000200F9010901C2108A8FCF75E
:103D3000EFFA20216846FCF7EBFA24482449086092
:103D4000112048600021224881604FF6FE71C16059
:103D50000021016141618161FEF7BCFF08B1FCF700
:103D6000BEFB00200F9010900FA91948FEF7DEFA55
:103D700008B1FCF7B4FB30200890002009900A90AD
:103D80000B900C900D900E90002208A91048FEF7A1
:103D90002DFF08B1FCF7A3FB0020009001900290DA
:103DA000039004904FF4005005900020079069465E
:103DB0000748FEF781FA08B1FCF791FB0448FEF7CB
:103DC00003FB0348FEF750FE11B000BD0034014074
:103DD000ACAC002010B50B480B4908604FF4E13043
:103DE0004860002108488160C16001610C21416187
:103DF00000218161C161FFF779FA08B1FCF76FFB1F
:103E000010BD000000380140F4AC002010B50B4894
:103E10000B4908604FF4E130486000210848816098
:103E2000C16001610C21416100218161C161FFF725
:103E30005DFA08B1FCF753FB10BD000000440040E0
:103E40003CAD002010B50B480B4908604FF4E13041
:103E50004860002108488160C16001610C21416116
:103E600000218161C161FFF741FA08B1FCF737FB1E
:103E700010BD00000048004084AD002000BFFEE7F8
:103E800000BFFEE77047000008B508490968C90887
:103E90004FF47A72B1FBF2F14143009100BF00BFD1
:103EA00000994A1E00920029F9D108BD5000002057
:103EB000014600BF080900EB8000420001F00F003E
:103EC0001044C0B2704770B504460025FDF76AFA89
:103ED000054607E0FDF766FA401BB0F57A7F01D989
:103EE000032070BD2068406800F020000028F1D059
:103EF0002068406840F01000216848600020F0E72A
:103F000070B5044600252068406820F01000216844
:103F10004860FDF747FA054607E0FDF743FA401B06
:103F2000B0F57A7F01D9032070BD2068406800F0A9
:103F300020000028F1D00020F6E7000010B512485C
:103F4000FDF7A2FF10480068406800F0010048B18A
:103F500001F008FC0C480068406820F001000A49A4
:103F60000968486008480068406820F00400064975
:103F70000968486000BF044800684068C0F340100A
:103F80000028F8D010BD000030AB00200146002210
:103F900000230868006A82B20868406A83B243EA74
:103FA0000240704730B50146002200230024002063
:103FB0000D68AD69AAB20D68ED69ACB20D68AD6966
:103FC000ABB29A4205D00D68ED6963F31F452846F0
:103FD00001E044EA024030BDF0B504460B46002142
:103FE000002504F5FA61032B1BD2C3EBC30000EBE1
:103FF00003100926B0FBF6F01044001D4618481EB9
:1040000006EB90066427B0FBF7F0361A481EBF0097
:10401000B0FBF7F030440726B0FBF6F706FB1705B8
:104020001AE0C3EBC30000EB03100926B0FBF6F067
:104030001044001D084400EB91006426B1FBF6F625
:10404000801B4FF4C876B1FBF6F63044801E07267D
:10405000B0FBF6F706FB1705E8B2F0BD70B50446F5
:104060000D4600262046FFF72EFF08B101260AE084
:10407000280C21680862A8B2216848622046FFF730
:104080003FFF00B10126304670BD70B504460D46B5
:1040900000262046FFF717FF08B101260AE0280C8A
:1040A00021688861A8B22168C8612046FFF728FF0F
:1040B00000B10126304670BD7047002104E00023A6
:1040C000821C53544A1CD1B20A29F8DB002101702A
:1040D0004170704710B5FDF76BF910BD00B595B094
:1040E00028210BA8FCF714F9142106A8FCF710F9F5
:1040F00018216846FCF70CF905200B904FF480302E
:104100000C9000200D9001200E900F900220129034
:10411000C10313914FF4E01114910BA8FDF768FC53
:1041200008B1FCF7DCF90F20069002200790002070
:1041300008904FF48060099000200A90022106A8A0
:10414000FDF732FB08B1FCF7CAF90120009000022C
:1041500001906846FDF790FA08B1FCF7C0F915B078
:1041600000BD704710B50248FEF7B2FB10BD00005D
:1041700044AB002010B50248FEF7AAFB10BD0000BA
:104180008CAB002010B50248FEF7A2FB10BD00006A
:10419000D4AB002010B50248FEF79AFB10BD00001A
:1041A0001CAC002010B50248FEF792FB10BD0000C9
:1041B00064AC002010B50248FEF78AFB10BD000079
:1041C000ACAC002010B50268204B98420ED0204BBA
:1041D00098420BD0B0F1804F08D01E4B984205D0CA
:1041E0001D4B984202D01D4B984203D122F0700221
:1041F0004B681A43154B98420ED0154B98420BD082
:10420000B0F1804F08D0134B984205D0124B984222
:1042100002D0124B984203D122F44072CB681A4369
:1042200022F080034C6943EA040202608B68C36297
:104230000B688362054B984202D0054B984201D12E
:104240000B6903630123436110BD0000002C014092
:10425000003401400004004000080040000C004011
:1042600030B501F01F05012404FA05F3046A9C43EC
:104270000462046A01F01F0502FA05F52C4304628A
:1042800030BD000030B5026A056A25F001050562FF
:104290004368846924F0700424F003040D682C43FF
:1042A00022F002028D682A43104DA84200D103E09B
:1042B0000F4DA84206D100BF22F00802CD682A4364
:1042C00022F00402094DA84202D0094DA84207D1AC
:1042D00023F4807323F400734D692B438D692B43C2
:1042E000436084614D684563026230BD002C01402B
:1042F0000034014030B5026A056A25F010050562F8
:104300004368846924F4E04424F440740D6844EA6A
:10431000052422F020028D6842EA0512124DA842BF
:1043200000D103E0114DA84207D100BF22F0800266
:10433000CD6842EA051222F040020B4DA84202D09D
:104340000A4DA84209D123F4806323F400634D6928
:1043500043EA85038D6943EA8503436084614D68C0
:104360008563026230BD0000002C01400034014032
:1043700030B5026A056A25F4807505624368C46930
:1043800024F0700424F003040D682C4322F400721E
:104390008D6842EA0522124DA84200D103E0114D7A
:1043A000A84207D100BF22F40062CD6842EA05228C
:1043B00022F480620A4DA84202D00A4DA84209D1D7
:1043C00023F4805323F400534D6943EA05138D69A8
:1043D00043EA05134360C4614D68C563026230BDA2
:1043E000002C01400034014030B5036A056A25F411
:1043F000805505624468C26922F4E04222F44072AA
:104400000D6842EA052223F400538D6843EA053320
:10441000084DA84202D0084DA84204D124F480449B
:104420004D6944EA85144460C2614D6805640362C5
:1044300030BD0000002C01400034014070B50C4636
:104440001546026A066A26F0010606628169154E63
:10445000B0420ED0144EB0420BD0B0F1804F08D015
:10446000124EB04205D0124EB04202D0114EB042B0
:1044700001D1012600E000261EB121F003012943ED
:1044800001E041F0010121F0F001F02606EA0316F7
:10449000314322F00A0204F00A06324381610262CB
:1044A00070BD0000002C01400034014000040040B9
:1044B00000080040000C004070B50C461546026A2A
:1044C000066A26F010060662816921F4407141EA0D
:1044D000052121F470414FF4704606EA033631435A
:1044E00022F0A002A02606EA04163243816102628D
:1044F00070BD70B50C461546026A066A26F48076D1
:104500000662C16921F00301294321F0F001F02680
:1045100006EA0316314322F400724FF4007606EAED
:1045200004263243C161026270BD70B50C46154667
:10453000026A066A26F480560662C16921F4407157
:1045400041EA052121F470414FF4704606EA033632
:10455000314322F400524FF4005606EA0436324347
:10456000C161026270BD70B505466C6A0020E085CD
:10457000E0842046FEF747FD70BD00BF00BF026823
:104580000C3252E8002F22F4907102680C3242E89B
:104590000013002BF3D100BF00BF00BF026814322C
:1045A00052E8002F22F001010268143242E80013A1
:1045B000002BF3D100BF016B01290ED100BF00BF5A
:1045C00002680C3252E8002F22F0100102680C320F
:1045D00042E80013002BF3D100BF202180F84210E5
:1045E00000210163704710B504462068C06820F0C0
:1045F00040002168C860202084F841002046FEF772
:10460000DDFF002010BDF8B5044694F842002228D2
:1046100075D1A068B0F5805F0CD1206950B9002534
:10462000A66A20684068C0F308003080A06A801C39
:10463000A06215E0A56A0026A068B0F5805F03D0EF
:10464000A06828B9206918B920684068287004E07B
:104650002068406800F07F002870A06A401CA062BB
:10466000E08D401E80B2E085002846D12068C068F9
:1046700020F020002168C8602068C06820F48070A5
:104680002168C8602068406920F001002168486105
:10469000202084F8420000206063206B012826D18E
:1046A0000020206300BF00BF21680C3151E8001FCB
:1046B00021F0100021680C3141E80002002AF3D1FA
:1046C00000BF2068006800F0100010280AD100BF69
:1046D00000200090206800680090206840680090EA
:1046E00000BF00BFA18D2046FEF78CFC02E02046F3
:1046F000FEF70AFF0020F8BD01E00020FBE70220E2
:10470000F9E7000070B504462168096921F44051B9
:10471000E2681143226811612269A168114362694C
:1047200041EA02052168C96841F20C6291432943BC
:104730002268D1602168496921F44071A26911435E
:10474000226851612D4A2168914202D1FDF708F992
:1047500001E0FDF7F5F800EBC00101EB0011626824
:104760009200B1FBF2F100EBC00202EB00126368B1
:104770009B00B2FBF3F26423B2FBF3F202EBC20341
:1047800003EB0212A1EB8201322202EB011164223F
:10479000B1FBF2F101F0F00100EBC00202EB0012FC
:1047A00063689B00B2FBF3F26423B2FBF3F201EB0C
:1047B000021200EBC00101EB001163689B00B1FB2A
:1047C000F3F100EBC00303EB00136668B600B3FB24
:1047D000F6F36426B3FBF6F303EBC30606EB031311
:1047E000A1EB8301322303EB01116423B1FBF3F14D
:1047F00001F00F0111442268916070BD0038014042
:10480000014691F84100212828D18868B0F5805FE1
:104810000BD1086948B90A6A1088C0F308000B6810
:104820005860086A801C086205E00B6A581C086220
:1048300018780B685860C88C401E80B2C88458B97C
:104840000868C06820F080000B68D8600868C068FD
:1048500040F040000B68D860002070470220FCE761
:104860002DE9F04104460D4617469846069E34E071
:10487000701C88B32EB1FCF795FDA0EB0800B04288
:104880002BD900BF00BF21680C3151E8001F21F473
:10489000D07021680C3141E80002002AF3D100BF3A
:1048A00000BF00BF2168143151E8001F21F0010052
:1048B0002168143141E80002002AF3D100BF202012
:1048C00084F8410084F8420000BF002084F84000D2
:1048D00000BF0320BDE8F081FFE7206800682840A2
:1048E000A84201D1012000E00020B842C0D0002041
:1048F000F0E7000010B50248FEF786FB10BD00008F
:10490000F4AC002010B50248FEF77EFB10BD00009D
:104910003CAD002010B50248FEF776FB10BD00004C
:1049200084AD00201CB50548FBF7BFFF6946204653
:1049300000F046F80120024908701CBDB4AA00200E
:104940001800002000BFFEE702480068C0F3022004
:10495000704700000CED00E010B5002804DB0A07EA
:10496000130E054A135406E00A07140E034A00F01A
:104970000F031B1FD45410BD00E400E018ED00E04D
:1049800000BF704710B5044615E000BF01220421A6
:104990000A48FCF701FD00BFFA20FCF7EDFA00BF62
:1049A000002204210548FCF7F7FC00BFFA20FCF7C1
:1049B000E3FA601EC4B2002CE7DC10BD0018014011
:1049C00070B504460D4600210E48FBF790FE08B96D
:1049D000002070BD2B460C4A00210A48FBF79BFEC5
:1049E00008B10020F5E708480068A04205D1064854
:1049F000806810B90448C06808B10020E9E702489F
:104A0000007CE6E7B4AA002098AA00202DE9F04136
:104A100007460D46164600F04BF9A02000F010F9AD
:104A200000F08EF9384600F00BF900F089F9002407
:104A300006E0285D00F004F900F082F9601CC4B2C1
:104A4000B442F6DB00F05CF90A20FCF795FABDE809
:104A5000F0812DE9F04107460C46154600F028F993
:104A6000A02000F0EDF800F06BF9384600F0E8F80F
:104A700000F066F900F01CF9A12000F0E1F800F068
:104A80005FF9002606E000F0B1F8A05500F05EF8EE
:104A9000701CC6B2681EB042F5DC00F0A7F8691EB3
:104AA000605400F083F800F02BF9BDE8F0811CB5EC
:104AB0000020019055200090012201A9FF20FFF75E
:104AC000C8FF9DF80400552801D100201CBD01221B
:104AD0006946FF20FFF79AFF012201A9FF20FFF797
:104AE000B8FF9DF80400552801D10020EEE7012011
:104AF000ECE7000000BF054A126802F04002002AFD
:104B0000F9D0C2B2014B1B1D1A607047003801403A
:104B100001460022002007E00A4B53F8213033F809
:104B2000103003B1521C401C074B53F82130834214
:104B3000F2D864205043044B53F82130B0FBF3F01B
:104B400080B2704708000020705D000810B500BFFB
:104B500000224FF400711148FCF71EFC00BF00F06A
:104B60001FF800BF012211020C48FCF715FC00BF22
:104B700000F016F800BF00224FF480710748FCF7E0
:104B80000BFC00BF00F00CF800BF012251020348EB
:104B9000FCF702FC00BF00F003F810BD000C014060
:104BA00010B5022000F07CFF10BD000010B500BF62
:104BB000012251020C48FCF7EFFB00BFFFF7F0FFAA
:104BC00000BF012211020848FCF7E6FB00BFFFF717
:104BD000E7FF00BF00224FF480710348FCF7DCFBC5
:104BE00000BFFFF7DDFF10BD000C014070B50024D1
:104BF00000251EE06006040E00BF012211020F48CE
:104C0000FCF7CAFB00BFFFF7CBFF4FF400710B4866
:104C1000FCF7B0FB08B1601CC4B200BF00224FF427
:104C200080710648FCF7B8FB00BFFFF7B9FF681CAE
:104C3000C5B2082DDEDB204670BD0000000C01402F
:104C400070B50446002526E000BFE00928B1012226
:104C500051021648FCF7A0FB05E000224FF400715A
:104C60001248FCF799FB00BFFFF79AFF00BF012233
:104C700011020E48FCF790FB00BFFFF791FF00BF49
:104C800000224FF480710948FCF786FB00BF6006E4
:104C9000040E681CC5B2082DD6DB00BF01225102EC
:104CA0000248FCF779FB00BF70BD0000000C01401A
:104CB00010B500BF012251021048FCF76DFB00BF88
:104CC00000BF012211020D48FCF766FB00BFFFF791
:104CD00067FF00BF00224FF400710848FCF75CFB3F
:104CE00000BFFFF75DFF00BF00224FF48071034853
:104CF000FCF752FB00BFFFF753FF10BD000C014053
:104D000010B500BF00224FF400710C48FCF744FBC3
:104D100000BFFFF745FF00BF012211020748FCF763
:104D20003BFB00BFFFF73CFF00BF012251020348DD
:104D3000FCF732FB00BFFFF733FF10BD000C014052
:104D400070B50024002500BF012251021548FCF770
:104D500023FB00BFFFF724FF00BF0122110211480F
:104D6000FCF71AFB00BFFFF71BFF07E0601CC4B293
:104D7000FA2C03DDFFF7C4FF012506E04FF40071B4
:104D80000848FCF7F7FA0028F0D100BF00BF002266
:104D90004FF480710348FCF7FFFA00BFFFF700FFF4
:104DA000284670BD000C01401CB5FCF70DFBFFF759
:104DB00095F9FEF7A7FCFEF75FFCFEF74FFEFEF746
:104DC000A7FEFEF7E5FEFEF723FFFEF7A9FFFFF7BC
:104DD00001F8FFF71BF8FFF735F8FEF7C7FDFEF700
:104DE000F1FBFEF755FF00F040FB5F4808238022EF
:104DF00000210090084600F0E1FA00F023FE00F0E8
:104E000005F900F029F9FFF752FE0446FFF7BAFD55
:104E10004FF47A70FCF7B0F800F0CBFA28200821A4
:104E200009231822CDE9001003214FF4FD6000F0A2
:104E300067FD98E000F00CFC4C49087008460078CB
:104E400000287CD0084600781C2866D012DC152883
:104E50003FD008DC072838D0082856D009283CD095
:104E60000D285FD141E0162843D0182845D01928D5
:104E700058D136E0462814D008DC40281DD04328FD
:104E80001FD0442815D045284CD106E047280CD027
:104E9000522836D05A2845D13BE035A03649086023
:104EA00044E036A03449086040E036A0324908604A
:104EB0003CE036A03049086038E036A02E49086052
:104EC00034E036A02C49086030E036A02A4908605A
:104ED0002CE036A02849086028E036A02649086062
:104EE00024E036A02449086020E036A0224908606A
:104EF0001CE036A02049086018E036A01E49086072
:104F000014E036A01C49086010E036A01A49086079
:104F10000CE036A01849086008E036A01649086081
:104F200004E00CE035A01449086000BF00BF012375
:104F3000114807210268002000F006FB02E00A2069
:104F4000FCF71AF82F480078401C2E4908700846D4
:104F50000078322807D10020087000BF20212A489D
:104F6000FCF710FA00BF65E7746600081000002027
:104F700031202020200000001400002032202020BA
:104F800020000000332020202000000034202020BA
:104F900020000000352020202000000036202020A6
:104FA0002000000037202020200000003820202092
:104FB0002000000039202020200000003020202088
:104FC0002000000023202020200000002A20202094
:104FD000200000005550202020000000444F574D75
:104FE000200000004C45465420000000524947482C
:104FF000540000004F4B2020200000004E554C4C28
:1050000020000000110000200018014000B50F49E9
:1050100009684A000E498868002100F0A9F90D4985
:105020000A680B490868002100F0A2F9074949689D
:105030004A000749C868002100F09AF905494A6802
:1050400003494868002100F093F900BD705D000835
:1050500000000020785D000801200A4981F82C003A
:105060000220094981F82C000320084981F82C000E
:105070000420074981F82C000520064981F82C00FE
:1050800070470000F0AD002020AE002050AE0020A0
:1050900080AE0020B0AE002090F82D1019B9416A02
:1050A000491C416202E0416A491E416270470000AA
:1050B00070B5044614F82A0F401C207014F82A0911
:1050C00002287AD1002084F82A0094F82B0048B1F5
:1050D00094F82B00042805D02046FFF7DDFF206A56
:1050E000401C206294F82B00052864D2DFE800F011
:1050F00062033D20500060690168324800F008FDFD
:1051000006464FF0804100F003FD054600F0C2FD69
:1051100020856069001D60616168206A884206DB45
:105120000120E16800F0F6F8022084F82B0043E04B
:1051300060690168234800F0EBFC06464FF08041AF
:1051400000F0E6FC054600F0A5FD20856069001D25
:105150006061D4E90710884206DB0120216900F074
:10516000D9F8042084F82B0026E0174A216892FB26
:10517000F1F000EBD071C1F34F012185A169206AE4
:10518000884204DB20696061032084F82B0013E06F
:10519000204600F025F80120FFF7BAFC054694F8F8
:1051A0002C102A4609A0FBF737F8002084F82B00C2
:1051B00002E002E000E000BF00BF204600F042F83D
:1051C00070BD00000024744A00093D006D6F746FCB
:1051D00072256420667265652025640D0A00000052
:1051E00010B5044694F82C0006281DD2DFE800F024
:1051F0001C03080D121708210D48FDF733FE14E0BB
:1052000000210C48FDF72EFE0FE008210A48FDF7AB
:1052100029FE0AE004210948FDF724FE05E00421E7
:105220000748FDF71FFE00E000BF00BF10BD0000F3
:1052300044AB0020ACAC0020D4AB00201CAC002060
:105240008CAB002010B50021002290F82C30062BEA
:1052500036D2DFE803F035030D17212B1A4B1B68FC
:10526000596A038D0B449AB2174B1B68DA6328E026
:10527000164B1B68596A038D0B449AB2134B1B687B
:105280005A631EE0124B1B68596A038D0B449AB295
:105290000F4B1B68DA6314E00E4B1B68596A038DD1
:1052A0000B449AB20B4B1B689A6300BF0A4B1B68F6
:1052B000596A038D0B449AB2074B1B689A6300BF6F
:1052C00000BF00BF10BD000044AB0020ACAC00200C
:1052D000D4AB00201CAC00208CAB002070B5044681
:1052E0004FF47A7094FBF0F594FBF0F100FB11465B
:1052F00003E0074800F0D4FB6D1E002DF9D12EB15C
:105300004FF47A7106FB01F000F0CAFB70BD00009B
:1053100040420F00F0B5134B53F82030CC1A01B9BE
:10532000F0BD114B53F82030A34200D8F8E70F4BE3
:1053300053F82030B4FBF3F20A4B083353F8203013
:1053400033F81250002309E00027064E083656F8BD
:10535000206002EB030C26F81C705B1CAB42F3DBF5
:1053600000BFDDE700000020785D0008685D0008F0
:1053700030B5034601E003F8011B141EA2F101023F
:10538000F9D130BD70B505460C46FFF791FC782089
:10539000FFF756FCFFF7D4FC2846FFF751FCFFF758
:1053A000CFFC2046FFF74CFCFFF7CAFCFFF7A8FC38
:1053B00070BD10B5002000F03BF810BD2DE9F05F86
:1053C00006460F4690461C46DDF828A04FF0000B1D
:1053D000E11704EB5171C910A4EBC10131B92046AA
:1053E000E11704EB5171C1F3C70506E02046E11750
:1053F00004EB5171C910491CCDB23D4614E0294659
:10540000304600F08DF8B1460AE059460BF1010B29
:105410001AF8010000F015F909F1010000F0FF0988
:10542000C145F2DB681CC5B2A542E8DBBDE8F09FD0
:1054300070B50646002415E004F1B001C8B200F0D2
:10544000F9F8002000F0F6F8102000F0F3F800253D
:1054500004E0304600F0F5F8681CC5B2802DF8DB9A
:10546000601CC4B2082CE7DB70BD10B56420FBF7EC
:1054700083FDAE2000F0DEF8202000F0DBF81020E5
:1054800000F0D8F8B02000F0D5F8C82000F0D2F82D
:10549000002000F0CFF8102000F0CCF8402000F001
:1054A000C9F8812000F0C6F8FF2000F0C3F8A12061
:1054B00000F0C0F8A62000F0BDF8A82000F0BAF86F
:1054C0003F2000F0B7F8A42000F0B4F8D32000F09B
:1054D000B1F8002000F0AEF8D52000F0ABF8F020D5
:1054E00000F0A8F8D92000F0A5F8222000F0A2F8DA
:1054F000DA2000F09FF8122000F09CF8DB2000F08A
:1055000099F8202000F096F88D2000F093F81420F0
:1055100000F090F8AF2000F08DF8FFF74AFF10BDC3
:1055200070B504460D4605F1B001C8B200F082F82E
:10553000102141EA141000F07DF804F00F0141F051
:10554000010000F077F870BD2DE9F0470646894666
:1055500017469A464FF0000800240025BAF1010FC3
:1055600003D0BAF1020F5ED125E020E0785D20384B
:1055700000F0FF087E2E04DD002609F1010000F096
:10558000FF0949463046FFF7CBFF002409E008EB4E
:105590004801264A02EB4101085D00F052F8601C08
:1055A000C4B2062CF3DBB01DC6B2681CC5B2785D70
:1055B0000028DBD137E032E0785D203800F0FF08CA
:1055C000782E04DD002609F1010000F0FF094946AC
:1055D0003046FFF7A5FF002407E004EB0811144A4A
:1055E000505C00F02EF8601CC4B2082CF5DB09F109
:1055F0000100C1B23046FFF793FF002408E004EB3E
:10560000081108310A4A505C00F01BF8601CC4B253
:10561000082CF4DB06F10800C6B2681CC5B2785D40
:105620000028C9D100BF00BFBDE8F0875C5E00085C
:105630008460000810B5044621460020FFF7A2FE52
:1056400010BD10B5044621464020FFF79BFE10BD5B
:1056500010B50020154B1B7803F0400323B3144B07
:1056600019781B88C3F30722D343DBB28B420CD1DA
:1056700059B90F4B1B68C3F307410D4B1B681A0E3A
:10568000D343DBB28B4200D1084620B1074B1B78D5
:1056900003F0800343B9054B1B7823F04003034C10
:1056A00023700023034C237010BD0000580000201D
:1056B0005C000020600000202DE9FF4F04460D46ED
:1056C00069B2A1F102084FFA88F8B8F1000107DCCD
:1056D00001F10C084FFA88F1A4F101081FFA88F4CF
:1056E0004FF0640994FBF9FA4FEAE47904EB9979F5
:1056F0004FEAA90BA4F1010940F26D1E09FB0EB996
:10570000A9EB0A094FF4C87A94FBFAFA09EB0A03E9
:1057100040F26F1801FB08F84FF00C0998FBF9F8FC
:1057200008F11D06571E03EB0608B844DFF8309059
:10573000A8EB090C0CEB4C09DDF80C8008EBC90850
:10574000C8EB0819DDF8348008EB8908C8EB0819A4
:10575000DDF8388008EB890004B0BDE8F08F000068
:105760003AF90A00FEB50026002400253CA2D2E941
:1057700000109268CDE9010200913C4806683604A9
:10578000001D006806443A48B6FBF0F4394800882A
:10579000A04239D037490C8040F2B2750EE028465D
:1057A00000F094F830B1B4F5B77F00D209E0A4F569
:1057B000B77401E0A4F26D14681C85B2B4F5B67F2D
:1057C000EDD800BF2C488580002515E02A4988883F
:1057D00000F07CF830B1012D04D11D2C00D20DE079
:1057E0001D3C07E01DF80500A04200D906E01DF8A9
:1057F0000500241A681C85B21C2CE7D200BF681C67
:105800001D498871601CC8711948B6FBF0F100FB96
:1058100011644FF46160B4FBF0F0174908704FF465
:105820006160B4FBF0F100FB11403C21B0FBF1F0F2
:10583000114948704FF46160B4FBF0F100FB114076
:105840003C21B0FBF1F201FB12000B4988700B46C2
:10585000DA799979988800F011F807490872FEBD45
:105860001F1C1F1E1F1E1F1F1E1F1E1F182800404B
:10587000805101004000002024AB002070B5034699
:105880000020032904DA01F10C04E1B25C1EA3B28A
:105890004C1C04EB4404052594FBF5F5541C02262E
:1058A00006FB01442C441C4404EBA304642593FB35
:1058B000F5F5641B4FF4C87593FBF5F52C440725EB
:1058C00094FBF5F605FB1644E0B270BD0146CA171D
:1058D00001EB92729210A1EB82022AB9642291FB31
:1058E000F2F302FB131232B94FF4C87291FBF2F3D8
:1058F00002FB13120AB9012070470020FCE70000E8
:105900002DE9FC4705460E4617469846DDE90A9AFA
:10591000002443463A4631462846CDE9009AFFF72F
:10592000CBFE044600BF1D48C06940F080501B49B3
:10593000C8610846C06900F08050019000BF00BFF8
:1059400000BF0846C06940F00060C8610846C069F1
:1059500000F00060019000BF00BFFBF7FBFD1048A6
:10596000006840F010000E490860A0B20C491831E0
:105970000860200C091F08600948006820F010002A
:105980000749086000BF074800684068C0F340103E
:105990000028F8D00020BDE8FC870000001002407D
:1059A0000428004030AB002070B505460C46164672
:1059B00055200E4948700870082088700320C87070
:1059C000012008714E71301288710846C5710C7241
:1059D000201248724FF6FF730A220548FDF795FD25
:1059E000044800EB8500448070BD0000DCAD002061
:1059F0003CAD0020CCAD002070B504460D461646E7
:105A000024B1012C16D0022C1AD10DE032462946C1
:105A10000020FFF7C9FF40F6B830401B81B2324684
:105A20000120FFF7C1FF0BE0324629460220FFF7B5
:105A3000BBFF05E0324629460320FFF7B5FF00BF54
:105A400000BF70BD10B51448FEF737FB00200AE018
:105A5000124901F8200040F2DC51104A02EB8002AA
:105A60005180411CC8B20428F2DB41F288324FF465
:105A700096610020FFF7C0FF41F288324FF41171A8
:105A80000220FFF7B9FF41F288324FF4A5610120EF
:105A9000FFF7B2FF10BD0000ACAF0020CCAD00207E
:105AA00071B50098B0F5617F13D9002404E04FF47C
:105AB0006170FFF7F5FF641C4FF461710098B0FB53
:105AC000F1F0A042F3D80098B0FBF1F201FB120014
:105AD00000904FF0E02084694821009801FB1046B7
